{
	"contracts/UntrustedEscrow.sol": {
		"UntrustedEscrow": {
			"abi": [
				{
					"inputs": [
						{
							"internalType": "address",
							"name": "_token",
							"type": "address"
						}
					],
					"stateMutability": "nonpayable",
					"type": "constructor"
				},
				{
					"anonymous": false,
					"inputs": [
						{
							"indexed": true,
							"internalType": "uint256",
							"name": "escrowId",
							"type": "uint256"
						},
						{
							"indexed": true,
							"internalType": "address",
							"name": "buyer",
							"type": "address"
						},
						{
							"indexed": true,
							"internalType": "address",
							"name": "seller",
							"type": "address"
						},
						{
							"indexed": false,
							"internalType": "uint256",
							"name": "amount",
							"type": "uint256"
						}
					],
					"name": "EscrowCreated",
					"type": "event"
				},
				{
					"anonymous": false,
					"inputs": [
						{
							"indexed": true,
							"internalType": "address",
							"name": "previousOwner",
							"type": "address"
						},
						{
							"indexed": true,
							"internalType": "address",
							"name": "newOwner",
							"type": "address"
						}
					],
					"name": "OwnershipTransferStarted",
					"type": "event"
				},
				{
					"anonymous": false,
					"inputs": [
						{
							"indexed": true,
							"internalType": "address",
							"name": "previousOwner",
							"type": "address"
						},
						{
							"indexed": true,
							"internalType": "address",
							"name": "newOwner",
							"type": "address"
						}
					],
					"name": "OwnershipTransferred",
					"type": "event"
				},
				{
					"anonymous": false,
					"inputs": [
						{
							"indexed": true,
							"internalType": "uint256",
							"name": "escrowId",
							"type": "uint256"
						},
						{
							"indexed": true,
							"internalType": "address",
							"name": "seller",
							"type": "address"
						},
						{
							"indexed": false,
							"internalType": "uint256",
							"name": "amount",
							"type": "uint256"
						}
					],
					"name": "Withdrawal",
					"type": "event"
				},
				{
					"inputs": [],
					"name": "acceptOwnership",
					"outputs": [],
					"stateMutability": "nonpayable",
					"type": "function"
				},
				{
					"inputs": [
						{
							"internalType": "address",
							"name": "_seller",
							"type": "address"
						},
						{
							"internalType": "uint256",
							"name": "_releaseTime",
							"type": "uint256"
						},
						{
							"internalType": "uint256",
							"name": "_amount",
							"type": "uint256"
						}
					],
					"name": "createEscrow",
					"outputs": [],
					"stateMutability": "nonpayable",
					"type": "function"
				},
				{
					"inputs": [],
					"name": "escrowCount",
					"outputs": [
						{
							"internalType": "uint256",
							"name": "",
							"type": "uint256"
						}
					],
					"stateMutability": "view",
					"type": "function"
				},
				{
					"inputs": [
						{
							"internalType": "uint256",
							"name": "",
							"type": "uint256"
						}
					],
					"name": "escrows",
					"outputs": [
						{
							"internalType": "address",
							"name": "buyer",
							"type": "address"
						},
						{
							"internalType": "address",
							"name": "seller",
							"type": "address"
						},
						{
							"internalType": "uint256",
							"name": "releaseTime",
							"type": "uint256"
						},
						{
							"internalType": "uint256",
							"name": "amount",
							"type": "uint256"
						},
						{
							"internalType": "bool",
							"name": "isActive",
							"type": "bool"
						}
					],
					"stateMutability": "view",
					"type": "function"
				},
				{
					"inputs": [],
					"name": "owner",
					"outputs": [
						{
							"internalType": "address",
							"name": "",
							"type": "address"
						}
					],
					"stateMutability": "view",
					"type": "function"
				},
				{
					"inputs": [],
					"name": "pendingOwner",
					"outputs": [
						{
							"internalType": "address",
							"name": "",
							"type": "address"
						}
					],
					"stateMutability": "view",
					"type": "function"
				},
				{
					"inputs": [
						{
							"internalType": "uint256",
							"name": "_escrowId",
							"type": "uint256"
						}
					],
					"name": "refundToBuyer",
					"outputs": [],
					"stateMutability": "nonpayable",
					"type": "function"
				},
				{
					"inputs": [],
					"name": "renounceOwnership",
					"outputs": [],
					"stateMutability": "nonpayable",
					"type": "function"
				},
				{
					"inputs": [],
					"name": "token",
					"outputs": [
						{
							"internalType": "contract IERC20",
							"name": "",
							"type": "address"
						}
					],
					"stateMutability": "view",
					"type": "function"
				},
				{
					"inputs": [
						{
							"internalType": "address",
							"name": "newOwner",
							"type": "address"
						}
					],
					"name": "transferOwnership",
					"outputs": [],
					"stateMutability": "nonpayable",
					"type": "function"
				},
				{
					"inputs": [
						{
							"internalType": "uint256",
							"name": "_escrowId",
							"type": "uint256"
						}
					],
					"name": "withdraw",
					"outputs": [],
					"stateMutability": "nonpayable",
					"type": "function"
				}
			],
			"devdoc": {
				"kind": "dev",
				"methods": {
					"acceptOwnership()": {
						"details": "The new owner accepts the ownership transfer."
					},
					"owner()": {
						"details": "Returns the address of the current owner."
					},
					"pendingOwner()": {
						"details": "Returns the address of the pending owner."
					},
					"renounceOwnership()": {
						"details": "Leaves the contract without owner. It will not be possible to call `onlyOwner` functions. Can only be called by the current owner. NOTE: Renouncing ownership will leave the contract without an owner, thereby disabling any functionality that is only available to the owner."
					},
					"transferOwnership(address)": {
						"details": "Starts the ownership transfer of the contract to a new account. Replaces the pending transfer if there is one. Can only be called by the current owner."
					}
				},
				"version": 1
			},
			"evm": {
				"assembly": "    /* \"contracts/UntrustedEscrow.sol\":258:3037  contract UntrustedEscrow is Ownable2Step {... */\n  mstore(0x40, 0x80)\n    /* \"contracts/UntrustedEscrow.sol\":816:885  constructor(address _token) {... */\n  callvalue\n  dup1\n  iszero\n  tag_1\n  jumpi\n  0x00\n  dup1\n  revert\ntag_1:\n  pop\n  mload(0x40)\n  sub(codesize, bytecodeSize)\n  dup1\n  bytecodeSize\n  dup4\n  codecopy\n  dup2\n  dup2\n  add\n  0x40\n  mstore\n  dup2\n  add\n  swap1\n  tag_2\n  swap2\n  swap1\n  tag_3\n  jump\t// in\ntag_2:\n    /* \"@openzeppelin/contracts/access/Ownable.sol\":936:968  _transferOwnership(_msgSender()) */\n  tag_7\n    /* \"@openzeppelin/contracts/access/Ownable.sol\":955:967  _msgSender() */\n  tag_8\n    /* \"@openzeppelin/contracts/access/Ownable.sol\":955:965  _msgSender */\n  shl(0x20, tag_9)\n    /* \"@openzeppelin/contracts/access/Ownable.sol\":955:967  _msgSender() */\n  0x20\n  shr\n  jump\t// in\ntag_8:\n    /* \"@openzeppelin/contracts/access/Ownable.sol\":936:954  _transferOwnership */\n  shl(0x20, tag_10)\n    /* \"@openzeppelin/contracts/access/Ownable.sol\":936:968  _transferOwnership(_msgSender()) */\n  0x20\n  shr\n  jump\t// in\ntag_7:\n    /* \"contracts/UntrustedEscrow.sol\":870:876  _token */\n  dup1\n    /* \"contracts/UntrustedEscrow.sol\":855:860  token */\n  0x02\n  0x00\n    /* \"contracts/UntrustedEscrow.sol\":855:877  token = IERC20(_token) */\n  0x0100\n  exp\n  dup2\n  sload\n  dup2\n  0xffffffffffffffffffffffffffffffffffffffff\n  mul\n  not\n  and\n  swap1\n  dup4\n  0xffffffffffffffffffffffffffffffffffffffff\n  and\n  mul\n  or\n  swap1\n  sstore\n  pop\n    /* \"contracts/UntrustedEscrow.sol\":816:885  constructor(address _token) {... */\n  pop\n    /* \"contracts/UntrustedEscrow.sol\":258:3037  contract UntrustedEscrow is Ownable2Step {... */\n  jump(tag_12)\n    /* \"@openzeppelin/contracts/utils/Context.sol\":640:736  function _msgSender() internal view virtual returns (address) {... */\ntag_9:\n    /* \"@openzeppelin/contracts/utils/Context.sol\":693:700  address */\n  0x00\n    /* \"@openzeppelin/contracts/utils/Context.sol\":719:729  msg.sender */\n  caller\n    /* \"@openzeppelin/contracts/utils/Context.sol\":712:729  return msg.sender */\n  swap1\n  pop\n    /* \"@openzeppelin/contracts/utils/Context.sol\":640:736  function _msgSender() internal view virtual returns (address) {... */\n  swap1\n  jump\t// out\n    /* \"@openzeppelin/contracts/access/Ownable2Step.sol\":1501:1654  function _transferOwnership(address newOwner) internal virtual override {... */\ntag_10:\n    /* \"@openzeppelin/contracts/access/Ownable2Step.sol\":1590:1603  _pendingOwner */\n  0x01\n  0x00\n    /* \"@openzeppelin/contracts/access/Ownable2Step.sol\":1583:1603  delete _pendingOwner */\n  0x0100\n  exp\n  dup2\n  sload\n  swap1\n  0xffffffffffffffffffffffffffffffffffffffff\n  mul\n  not\n  and\n  swap1\n  sstore\n    /* \"@openzeppelin/contracts/access/Ownable2Step.sol\":1613:1647  super._transferOwnership(newOwner) */\n  tag_15\n    /* \"@openzeppelin/contracts/access/Ownable2Step.sol\":1638:1646  newOwner */\n  dup2\n    /* \"@openzeppelin/contracts/access/Ownable2Step.sol\":1613:1637  super._transferOwnership */\n  shl(0x20, tag_16)\n    /* \"@openzeppelin/contracts/access/Ownable2Step.sol\":1613:1647  super._transferOwnership(newOwner) */\n  0x20\n  shr\n  jump\t// in\ntag_15:\n    /* \"@openzeppelin/contracts/access/Ownable2Step.sol\":1501:1654  function _transferOwnership(address newOwner) internal virtual override {... */\n  pop\n  jump\t// out\n    /* \"@openzeppelin/contracts/access/Ownable.sol\":2426:2613  function _transferOwnership(address newOwner) internal virtual {... */\ntag_16:\n    /* \"@openzeppelin/contracts/access/Ownable.sol\":2499:2515  address oldOwner */\n  0x00\n    /* \"@openzeppelin/contracts/access/Ownable.sol\":2518:2524  _owner */\n  dup1\n  0x00\n  swap1\n  sload\n  swap1\n  0x0100\n  exp\n  swap1\n  div\n  0xffffffffffffffffffffffffffffffffffffffff\n  and\n    /* \"@openzeppelin/contracts/access/Ownable.sol\":2499:2524  address oldOwner = _owner */\n  swap1\n  pop\n    /* \"@openzeppelin/contracts/access/Ownable.sol\":2543:2551  newOwner */\n  dup2\n    /* \"@openzeppelin/contracts/access/Ownable.sol\":2534:2540  _owner */\n  0x00\n  dup1\n    /* \"@openzeppelin/contracts/access/Ownable.sol\":2534:2551  _owner = newOwner */\n  0x0100\n  exp\n  dup2\n  sload\n  dup2\n  0xffffffffffffffffffffffffffffffffffffffff\n  mul\n  not\n  and\n  swap1\n  dup4\n  0xffffffffffffffffffffffffffffffffffffffff\n  and\n  mul\n  or\n  swap1\n  sstore\n  pop\n    /* \"@openzeppelin/contracts/access/Ownable.sol\":2597:2605  newOwner */\n  dup2\n    /* \"@openzeppelin/contracts/access/Ownable.sol\":2566:2606  OwnershipTransferred(oldOwner, newOwner) */\n  0xffffffffffffffffffffffffffffffffffffffff\n  and\n    /* \"@openzeppelin/contracts/access/Ownable.sol\":2587:2595  oldOwner */\n  dup2\n    /* \"@openzeppelin/contracts/access/Ownable.sol\":2566:2606  OwnershipTransferred(oldOwner, newOwner) */\n  0xffffffffffffffffffffffffffffffffffffffff\n  and\n  0x8be0079c531659141344cd1fd0a4f28419497f9722a3daafe3b4186f6b6457e0\n  mload(0x40)\n  mload(0x40)\n  dup1\n  swap2\n  sub\n  swap1\n  log3\n    /* \"@openzeppelin/contracts/access/Ownable.sol\":2489:2613  {... */\n  pop\n    /* \"@openzeppelin/contracts/access/Ownable.sol\":2426:2613  function _transferOwnership(address newOwner) internal virtual {... */\n  pop\n  jump\t// out\n    /* \"#utility.yul\":88:205   */\ntag_19:\n    /* \"#utility.yul\":197:198   */\n  0x00\n    /* \"#utility.yul\":194:195   */\n  dup1\n    /* \"#utility.yul\":187:199   */\n  revert\n    /* \"#utility.yul\":334:460   */\ntag_21:\n    /* \"#utility.yul\":371:378   */\n  0x00\n    /* \"#utility.yul\":411:453   */\n  0xffffffffffffffffffffffffffffffffffffffff\n    /* \"#utility.yul\":404:409   */\n  dup3\n    /* \"#utility.yul\":400:454   */\n  and\n    /* \"#utility.yul\":389:454   */\n  swap1\n  pop\n    /* \"#utility.yul\":334:460   */\n  swap2\n  swap1\n  pop\n  jump\t// out\n    /* \"#utility.yul\":466:562   */\ntag_22:\n    /* \"#utility.yul\":503:510   */\n  0x00\n    /* \"#utility.yul\":532:556   */\n  tag_31\n    /* \"#utility.yul\":550:555   */\n  dup3\n    /* \"#utility.yul\":532:556   */\n  tag_21\n  jump\t// in\ntag_31:\n    /* \"#utility.yul\":521:556   */\n  swap1\n  pop\n    /* \"#utility.yul\":466:562   */\n  swap2\n  swap1\n  pop\n  jump\t// out\n    /* \"#utility.yul\":568:690   */\ntag_23:\n    /* \"#utility.yul\":641:665   */\n  tag_33\n    /* \"#utility.yul\":659:664   */\n  dup2\n    /* \"#utility.yul\":641:665   */\n  tag_22\n  jump\t// in\ntag_33:\n    /* \"#utility.yul\":634:639   */\n  dup2\n    /* \"#utility.yul\":631:666   */\n  eq\n    /* \"#utility.yul\":621:684   */\n  tag_34\n  jumpi\n    /* \"#utility.yul\":680:681   */\n  0x00\n    /* \"#utility.yul\":677:678   */\n  dup1\n    /* \"#utility.yul\":670:682   */\n  revert\n    /* \"#utility.yul\":621:684   */\ntag_34:\n    /* \"#utility.yul\":568:690   */\n  pop\n  jump\t// out\n    /* \"#utility.yul\":696:839   */\ntag_24:\n    /* \"#utility.yul\":753:758   */\n  0x00\n    /* \"#utility.yul\":784:790   */\n  dup2\n    /* \"#utility.yul\":778:791   */\n  mload\n    /* \"#utility.yul\":769:791   */\n  swap1\n  pop\n    /* \"#utility.yul\":800:833   */\n  tag_36\n    /* \"#utility.yul\":827:832   */\n  dup2\n    /* \"#utility.yul\":800:833   */\n  tag_23\n  jump\t// in\ntag_36:\n    /* \"#utility.yul\":696:839   */\n  swap3\n  swap2\n  pop\n  pop\n  jump\t// out\n    /* \"#utility.yul\":845:1196   */\ntag_3:\n    /* \"#utility.yul\":915:921   */\n  0x00\n    /* \"#utility.yul\":964:966   */\n  0x20\n    /* \"#utility.yul\":952:961   */\n  dup3\n    /* \"#utility.yul\":943:950   */\n  dup5\n    /* \"#utility.yul\":939:962   */\n  sub\n    /* \"#utility.yul\":935:967   */\n  slt\n    /* \"#utility.yul\":932:1051   */\n  iszero\n  tag_38\n  jumpi\n    /* \"#utility.yul\":970:1049   */\n  tag_39\n  tag_19\n  jump\t// in\ntag_39:\n    /* \"#utility.yul\":932:1051   */\ntag_38:\n    /* \"#utility.yul\":1090:1091   */\n  0x00\n    /* \"#utility.yul\":1115:1179   */\n  tag_40\n    /* \"#utility.yul\":1171:1178   */\n  dup5\n    /* \"#utility.yul\":1162:1168   */\n  dup3\n    /* \"#utility.yul\":1151:1160   */\n  dup6\n    /* \"#utility.yul\":1147:1169   */\n  add\n    /* \"#utility.yul\":1115:1179   */\n  tag_24\n  jump\t// in\ntag_40:\n    /* \"#utility.yul\":1105:1179   */\n  swap2\n  pop\n    /* \"#utility.yul\":1061:1189   */\n  pop\n    /* \"#utility.yul\":845:1196   */\n  swap3\n  swap2\n  pop\n  pop\n  jump\t// out\n    /* \"contracts/UntrustedEscrow.sol\":258:3037  contract UntrustedEscrow is Ownable2Step {... */\ntag_12:\n  dataSize(sub_0)\n  dup1\n  dataOffset(sub_0)\n  0x00\n  codecopy\n  0x00\n  return\nstop\n\nsub_0: assembly {\n        /* \"contracts/UntrustedEscrow.sol\":258:3037  contract UntrustedEscrow is Ownable2Step {... */\n      mstore(0x40, 0x80)\n      callvalue\n      dup1\n      iszero\n      tag_1\n      jumpi\n      0x00\n      dup1\n      revert\n    tag_1:\n      pop\n      jumpi(tag_2, lt(calldatasize, 0x04))\n      shr(0xe0, calldataload(0x00))\n      dup1\n      0x8da5cb5b\n      gt\n      tag_14\n      jumpi\n      dup1\n      0x8da5cb5b\n      eq\n      tag_8\n      jumpi\n      dup1\n      0xb4050fc8\n      eq\n      tag_9\n      jumpi\n      dup1\n      0xe2ecb311\n      eq\n      tag_10\n      jumpi\n      dup1\n      0xe30c3978\n      eq\n      tag_11\n      jumpi\n      dup1\n      0xf2fde38b\n      eq\n      tag_12\n      jumpi\n      dup1\n      0xfc0c546a\n      eq\n      tag_13\n      jumpi\n      jump(tag_2)\n    tag_14:\n      dup1\n      0x012f52ee\n      eq\n      tag_3\n      jumpi\n      dup1\n      0x2e1a7d4d\n      eq\n      tag_4\n      jumpi\n      dup1\n      0x675ac67a\n      eq\n      tag_5\n      jumpi\n      dup1\n      0x715018a6\n      eq\n      tag_6\n      jumpi\n      dup1\n      0x79ba5097\n      eq\n      tag_7\n      jumpi\n    tag_2:\n      0x00\n      dup1\n      revert\n        /* \"contracts/UntrustedEscrow.sol\":527:568  mapping(uint256 => Escrow) public escrows */\n    tag_3:\n      tag_15\n      0x04\n      dup1\n      calldatasize\n      sub\n      dup2\n      add\n      swap1\n      tag_16\n      swap2\n      swap1\n      tag_17\n      jump\t// in\n    tag_16:\n      tag_18\n      jump\t// in\n    tag_15:\n      mload(0x40)\n      tag_19\n      swap6\n      swap5\n      swap4\n      swap3\n      swap2\n      swap1\n      tag_20\n      jump\t// in\n    tag_19:\n      mload(0x40)\n      dup1\n      swap2\n      sub\n      swap1\n      return\n        /* \"contracts/UntrustedEscrow.sol\":1561:2312  function withdraw(uint256 _escrowId) external {... */\n    tag_4:\n      tag_21\n      0x04\n      dup1\n      calldatasize\n      sub\n      dup2\n      add\n      swap1\n      tag_22\n      swap2\n      swap1\n      tag_17\n      jump\t// in\n    tag_22:\n      tag_23\n      jump\t// in\n    tag_21:\n      stop\n        /* \"contracts/UntrustedEscrow.sol\":575:601  uint256 public escrowCount */\n    tag_5:\n      tag_24\n      tag_25\n      jump\t// in\n    tag_24:\n      mload(0x40)\n      tag_26\n      swap2\n      swap1\n      tag_27\n      jump\t// in\n    tag_26:\n      mload(0x40)\n      dup1\n      swap2\n      sub\n      swap1\n      return\n        /* \"@openzeppelin/contracts/access/Ownable.sol\":1824:1925  function renounceOwnership() public virtual onlyOwner {... */\n    tag_6:\n      tag_28\n      tag_29\n      jump\t// in\n    tag_28:\n      stop\n        /* \"@openzeppelin/contracts/access/Ownable2Step.sol\":1734:1946  function acceptOwnership() public virtual {... */\n    tag_7:\n      tag_30\n      tag_31\n      jump\t// in\n    tag_30:\n      stop\n        /* \"@openzeppelin/contracts/access/Ownable.sol\":1201:1286  function owner() public view virtual returns (address) {... */\n    tag_8:\n      tag_32\n      tag_33\n      jump\t// in\n    tag_32:\n      mload(0x40)\n      tag_34\n      swap2\n      swap1\n      tag_35\n      jump\t// in\n    tag_34:\n      mload(0x40)\n      dup1\n      swap2\n      sub\n      swap1\n      return\n        /* \"contracts/UntrustedEscrow.sol\":2407:3034  function refundToBuyer(uint256 _escrowId) external onlyOwner {... */\n    tag_9:\n      tag_36\n      0x04\n      dup1\n      calldatasize\n      sub\n      dup2\n      add\n      swap1\n      tag_37\n      swap2\n      swap1\n      tag_17\n      jump\t// in\n    tag_37:\n      tag_38\n      jump\t// in\n    tag_36:\n      stop\n        /* \"contracts/UntrustedEscrow.sol\":893:1553  function createEscrow(address _seller, uint256 _releaseTime, uint256 _amount) external {... */\n    tag_10:\n      tag_39\n      0x04\n      dup1\n      calldatasize\n      sub\n      dup2\n      add\n      swap1\n      tag_40\n      swap2\n      swap1\n      tag_41\n      jump\t// in\n    tag_40:\n      tag_42\n      jump\t// in\n    tag_39:\n      stop\n        /* \"@openzeppelin/contracts/access/Ownable2Step.sol\":847:946  function pendingOwner() public view virtual returns (address) {... */\n    tag_11:\n      tag_43\n      tag_44\n      jump\t// in\n    tag_43:\n      mload(0x40)\n      tag_45\n      swap2\n      swap1\n      tag_35\n      jump\t// in\n    tag_45:\n      mload(0x40)\n      dup1\n      swap2\n      sub\n      swap1\n      return\n        /* \"@openzeppelin/contracts/access/Ownable2Step.sol\":1139:1317  function transferOwnership(address newOwner) public virtual override onlyOwner {... */\n    tag_12:\n      tag_46\n      0x04\n      dup1\n      calldatasize\n      sub\n      dup2\n      add\n      swap1\n      tag_47\n      swap2\n      swap1\n      tag_48\n      jump\t// in\n    tag_47:\n      tag_49\n      jump\t// in\n    tag_46:\n      stop\n        /* \"contracts/UntrustedEscrow.sol\":482:501  IERC20 public token */\n    tag_13:\n      tag_50\n      tag_51\n      jump\t// in\n    tag_50:\n      mload(0x40)\n      tag_52\n      swap2\n      swap1\n      tag_53\n      jump\t// in\n    tag_52:\n      mload(0x40)\n      dup1\n      swap2\n      sub\n      swap1\n      return\n        /* \"contracts/UntrustedEscrow.sol\":527:568  mapping(uint256 => Escrow) public escrows */\n    tag_18:\n      mstore(0x20, 0x03)\n      dup1\n      0x00\n      mstore\n      keccak256(0x00, 0x40)\n      0x00\n      swap2\n      pop\n      swap1\n      pop\n      dup1\n      0x00\n      add\n      0x00\n      swap1\n      sload\n      swap1\n      0x0100\n      exp\n      swap1\n      div\n      0xffffffffffffffffffffffffffffffffffffffff\n      and\n      swap1\n      dup1\n      0x01\n      add\n      0x00\n      swap1\n      sload\n      swap1\n      0x0100\n      exp\n      swap1\n      div\n      0xffffffffffffffffffffffffffffffffffffffff\n      and\n      swap1\n      dup1\n      0x02\n      add\n      sload\n      swap1\n      dup1\n      0x03\n      add\n      sload\n      swap1\n      dup1\n      0x04\n      add\n      0x00\n      swap1\n      sload\n      swap1\n      0x0100\n      exp\n      swap1\n      div\n      0xff\n      and\n      swap1\n      pop\n      dup6\n      jump\t// out\n        /* \"contracts/UntrustedEscrow.sol\":1561:2312  function withdraw(uint256 _escrowId) external {... */\n    tag_23:\n        /* \"contracts/UntrustedEscrow.sol\":1618:1639  Escrow storage escrow */\n      0x00\n        /* \"contracts/UntrustedEscrow.sol\":1642:1649  escrows */\n      0x03\n        /* \"contracts/UntrustedEscrow.sol\":1642:1660  escrows[_escrowId] */\n      0x00\n        /* \"contracts/UntrustedEscrow.sol\":1650:1659  _escrowId */\n      dup4\n        /* \"contracts/UntrustedEscrow.sol\":1642:1660  escrows[_escrowId] */\n      dup2\n      mstore\n      0x20\n      add\n      swap1\n      dup2\n      mstore\n      0x20\n      add\n      0x00\n      keccak256\n        /* \"contracts/UntrustedEscrow.sol\":1618:1660  Escrow storage escrow = escrows[_escrowId] */\n      swap1\n      pop\n        /* \"contracts/UntrustedEscrow.sol\":1727:1733  escrow */\n      dup1\n        /* \"contracts/UntrustedEscrow.sol\":1727:1742  escrow.isActive */\n      0x04\n      add\n      0x00\n      swap1\n      sload\n      swap1\n      0x0100\n      exp\n      swap1\n      div\n      0xff\n      and\n        /* \"contracts/UntrustedEscrow.sol\":1719:1767  require(escrow.isActive, \"Escrow is not active\") */\n      tag_55\n      jumpi\n      mload(0x40)\n      0x08c379a000000000000000000000000000000000000000000000000000000000\n      dup2\n      mstore\n      0x04\n      add\n      tag_56\n      swap1\n      tag_57\n      jump\t// in\n    tag_56:\n      mload(0x40)\n      dup1\n      swap2\n      sub\n      swap1\n      revert\n    tag_55:\n        /* \"contracts/UntrustedEscrow.sol\":1800:1806  escrow */\n      dup1\n        /* \"contracts/UntrustedEscrow.sol\":1800:1813  escrow.seller */\n      0x01\n      add\n      0x00\n      swap1\n      sload\n      swap1\n      0x0100\n      exp\n      swap1\n      div\n      0xffffffffffffffffffffffffffffffffffffffff\n      and\n        /* \"contracts/UntrustedEscrow.sol\":1786:1813  msg.sender == escrow.seller */\n      0xffffffffffffffffffffffffffffffffffffffff\n      and\n        /* \"contracts/UntrustedEscrow.sol\":1786:1796  msg.sender */\n      caller\n        /* \"contracts/UntrustedEscrow.sol\":1786:1813  msg.sender == escrow.seller */\n      0xffffffffffffffffffffffffffffffffffffffff\n      and\n      eq\n        /* \"contracts/UntrustedEscrow.sol\":1778:1852  require(msg.sender == escrow.seller, \"Only the seller can withdraw funds\") */\n      tag_58\n      jumpi\n      mload(0x40)\n      0x08c379a000000000000000000000000000000000000000000000000000000000\n      dup2\n      mstore\n      0x04\n      add\n      tag_59\n      swap1\n      tag_60\n      jump\t// in\n    tag_59:\n      mload(0x40)\n      dup1\n      swap2\n      sub\n      swap1\n      revert\n    tag_58:\n        /* \"contracts/UntrustedEscrow.sol\":1911:1917  3 days */\n      0x03f480\n        /* \"contracts/UntrustedEscrow.sol\":1890:1896  escrow */\n      dup2\n        /* \"contracts/UntrustedEscrow.sol\":1890:1908  escrow.releaseTime */\n      0x02\n      add\n      sload\n        /* \"contracts/UntrustedEscrow.sol\":1890:1917  escrow.releaseTime + 3 days */\n      tag_61\n      swap2\n      swap1\n      tag_62\n      jump\t// in\n    tag_61:\n        /* \"contracts/UntrustedEscrow.sol\":1871:1886  block.timestamp */\n      timestamp\n        /* \"contracts/UntrustedEscrow.sol\":1871:1917  block.timestamp >= escrow.releaseTime + 3 days */\n      lt\n      iszero\n        /* \"contracts/UntrustedEscrow.sol\":1863:1971  require(block.timestamp >= escrow.releaseTime + 3 days, \"Funds cannot be withdrawn before the release time\") */\n      tag_63\n      jumpi\n      mload(0x40)\n      0x08c379a000000000000000000000000000000000000000000000000000000000\n      dup2\n      mstore\n      0x04\n      add\n      tag_64\n      swap1\n      tag_65\n      jump\t// in\n    tag_64:\n      mload(0x40)\n      dup1\n      swap2\n      sub\n      swap1\n      revert\n    tag_63:\n        /* \"contracts/UntrustedEscrow.sol\":1984:1999  uint256 balance */\n      0x00\n        /* \"contracts/UntrustedEscrow.sol\":2002:2007  token */\n      0x02\n      0x00\n      swap1\n      sload\n      swap1\n      0x0100\n      exp\n      swap1\n      div\n      0xffffffffffffffffffffffffffffffffffffffff\n      and\n        /* \"contracts/UntrustedEscrow.sol\":2002:2017  token.balanceOf */\n      0xffffffffffffffffffffffffffffffffffffffff\n      and\n      0x70a08231\n        /* \"contracts/UntrustedEscrow.sol\":2026:2030  this */\n      address\n        /* \"contracts/UntrustedEscrow.sol\":2002:2032  token.balanceOf(address(this)) */\n      mload(0x40)\n      dup3\n      0xffffffff\n      and\n      0xe0\n      shl\n      dup2\n      mstore\n      0x04\n      add\n      tag_66\n      swap2\n      swap1\n      tag_35\n      jump\t// in\n    tag_66:\n      0x20\n      mload(0x40)\n      dup1\n      dup4\n      sub\n      dup2\n      dup7\n      gas\n      staticcall\n      iszero\n      dup1\n      iszero\n      tag_68\n      jumpi\n      returndatasize\n      0x00\n      dup1\n      returndatacopy\n      revert(0x00, returndatasize)\n    tag_68:\n      pop\n      pop\n      pop\n      pop\n      mload(0x40)\n      returndatasize\n      not(0x1f)\n      0x1f\n      dup3\n      add\n      and\n      dup3\n      add\n      dup1\n      0x40\n      mstore\n      pop\n      dup2\n      add\n      swap1\n      tag_69\n      swap2\n      swap1\n      tag_70\n      jump\t// in\n    tag_69:\n        /* \"contracts/UntrustedEscrow.sol\":1984:2032  uint256 balance = token.balanceOf(address(this)) */\n      swap1\n      pop\n        /* \"contracts/UntrustedEscrow.sol\":2062:2068  escrow */\n      dup2\n        /* \"contracts/UntrustedEscrow.sol\":2062:2075  escrow.amount */\n      0x03\n      add\n      sload\n        /* \"contracts/UntrustedEscrow.sol\":2051:2058  balance */\n      dup2\n        /* \"contracts/UntrustedEscrow.sol\":2051:2075  balance >= escrow.amount */\n      lt\n      iszero\n        /* \"contracts/UntrustedEscrow.sol\":2043:2116  require(balance >= escrow.amount, \"Insufficient balance in the contract\") */\n      tag_71\n      jumpi\n      mload(0x40)\n      0x08c379a000000000000000000000000000000000000000000000000000000000\n      dup2\n      mstore\n      0x04\n      add\n      tag_72\n      swap1\n      tag_73\n      jump\t// in\n    tag_72:\n      mload(0x40)\n      dup1\n      swap2\n      sub\n      swap1\n      revert\n    tag_71:\n        /* \"contracts/UntrustedEscrow.sol\":2147:2152  false */\n      0x00\n        /* \"contracts/UntrustedEscrow.sol\":2129:2135  escrow */\n      dup3\n        /* \"contracts/UntrustedEscrow.sol\":2129:2144  escrow.isActive */\n      0x04\n      add\n      0x00\n        /* \"contracts/UntrustedEscrow.sol\":2129:2152  escrow.isActive = false */\n      0x0100\n      exp\n      dup2\n      sload\n      dup2\n      0xff\n      mul\n      not\n      and\n      swap1\n      dup4\n      iszero\n      iszero\n      mul\n      or\n      swap1\n      sstore\n      pop\n        /* \"contracts/UntrustedEscrow.sol\":2171:2176  token */\n      0x02\n      0x00\n      swap1\n      sload\n      swap1\n      0x0100\n      exp\n      swap1\n      div\n      0xffffffffffffffffffffffffffffffffffffffff\n      and\n        /* \"contracts/UntrustedEscrow.sol\":2171:2185  token.transfer */\n      0xffffffffffffffffffffffffffffffffffffffff\n      and\n      0xa9059cbb\n        /* \"contracts/UntrustedEscrow.sol\":2186:2196  msg.sender */\n      caller\n        /* \"contracts/UntrustedEscrow.sol\":2198:2204  escrow */\n      dup5\n        /* \"contracts/UntrustedEscrow.sol\":2198:2211  escrow.amount */\n      0x03\n      add\n      sload\n        /* \"contracts/UntrustedEscrow.sol\":2171:2212  token.transfer(msg.sender, escrow.amount) */\n      mload(0x40)\n      dup4\n      0xffffffff\n      and\n      0xe0\n      shl\n      dup2\n      mstore\n      0x04\n      add\n      tag_74\n      swap3\n      swap2\n      swap1\n      tag_75\n      jump\t// in\n    tag_74:\n      0x20\n      mload(0x40)\n      dup1\n      dup4\n      sub\n      dup2\n      0x00\n      dup8\n      gas\n      call\n      iszero\n      dup1\n      iszero\n      tag_77\n      jumpi\n      returndatasize\n      0x00\n      dup1\n      returndatacopy\n      revert(0x00, returndatasize)\n    tag_77:\n      pop\n      pop\n      pop\n      pop\n      mload(0x40)\n      returndatasize\n      not(0x1f)\n      0x1f\n      dup3\n      add\n      and\n      dup3\n      add\n      dup1\n      0x40\n      mstore\n      pop\n      dup2\n      add\n      swap1\n      tag_78\n      swap2\n      swap1\n      tag_79\n      jump\t// in\n    tag_78:\n        /* \"contracts/UntrustedEscrow.sol\":2163:2238  require(token.transfer(msg.sender, escrow.amount), \"Token transfer failed\") */\n      tag_80\n      jumpi\n      mload(0x40)\n      0x08c379a000000000000000000000000000000000000000000000000000000000\n      dup2\n      mstore\n      0x04\n      add\n      tag_81\n      swap1\n      tag_82\n      jump\t// in\n    tag_81:\n      mload(0x40)\n      dup1\n      swap2\n      sub\n      swap1\n      revert\n    tag_80:\n        /* \"contracts/UntrustedEscrow.sol\":2278:2288  msg.sender */\n      caller\n        /* \"contracts/UntrustedEscrow.sol\":2256:2304  Withdrawal(_escrowId, msg.sender, escrow.amount) */\n      0xffffffffffffffffffffffffffffffffffffffff\n      and\n        /* \"contracts/UntrustedEscrow.sol\":2267:2276  _escrowId */\n      dup4\n        /* \"contracts/UntrustedEscrow.sol\":2256:2304  Withdrawal(_escrowId, msg.sender, escrow.amount) */\n      0x37e8063b72a944a76de602f32b82fd8c2a1c6f99564c727ffaf913c7762cd420\n        /* \"contracts/UntrustedEscrow.sol\":2290:2296  escrow */\n      dup5\n        /* \"contracts/UntrustedEscrow.sol\":2290:2303  escrow.amount */\n      0x03\n      add\n      sload\n        /* \"contracts/UntrustedEscrow.sol\":2256:2304  Withdrawal(_escrowId, msg.sender, escrow.amount) */\n      mload(0x40)\n      tag_83\n      swap2\n      swap1\n      tag_27\n      jump\t// in\n    tag_83:\n      mload(0x40)\n      dup1\n      swap2\n      sub\n      swap1\n      log3\n        /* \"contracts/UntrustedEscrow.sol\":1607:2312  {... */\n      pop\n      pop\n        /* \"contracts/UntrustedEscrow.sol\":1561:2312  function withdraw(uint256 _escrowId) external {... */\n      pop\n      jump\t// out\n        /* \"contracts/UntrustedEscrow.sol\":575:601  uint256 public escrowCount */\n    tag_25:\n      sload(0x04)\n      dup2\n      jump\t// out\n        /* \"@openzeppelin/contracts/access/Ownable.sol\":1824:1925  function renounceOwnership() public virtual onlyOwner {... */\n    tag_29:\n        /* \"@openzeppelin/contracts/access/Ownable.sol\":1094:1107  _checkOwner() */\n      tag_85\n        /* \"@openzeppelin/contracts/access/Ownable.sol\":1094:1105  _checkOwner */\n      tag_86\n        /* \"@openzeppelin/contracts/access/Ownable.sol\":1094:1107  _checkOwner() */\n      jump\t// in\n    tag_85:\n        /* \"@openzeppelin/contracts/access/Ownable.sol\":1888:1918  _transferOwnership(address(0)) */\n      tag_88\n        /* \"@openzeppelin/contracts/access/Ownable.sol\":1915:1916  0 */\n      0x00\n        /* \"@openzeppelin/contracts/access/Ownable.sol\":1888:1906  _transferOwnership */\n      tag_89\n        /* \"@openzeppelin/contracts/access/Ownable.sol\":1888:1918  _transferOwnership(address(0)) */\n      jump\t// in\n    tag_88:\n        /* \"@openzeppelin/contracts/access/Ownable.sol\":1824:1925  function renounceOwnership() public virtual onlyOwner {... */\n      jump\t// out\n        /* \"@openzeppelin/contracts/access/Ownable2Step.sol\":1734:1946  function acceptOwnership() public virtual {... */\n    tag_31:\n        /* \"@openzeppelin/contracts/access/Ownable2Step.sol\":1786:1800  address sender */\n      0x00\n        /* \"@openzeppelin/contracts/access/Ownable2Step.sol\":1803:1815  _msgSender() */\n      tag_91\n        /* \"@openzeppelin/contracts/access/Ownable2Step.sol\":1803:1813  _msgSender */\n      tag_92\n        /* \"@openzeppelin/contracts/access/Ownable2Step.sol\":1803:1815  _msgSender() */\n      jump\t// in\n    tag_91:\n        /* \"@openzeppelin/contracts/access/Ownable2Step.sol\":1786:1815  address sender = _msgSender() */\n      swap1\n      pop\n        /* \"@openzeppelin/contracts/access/Ownable2Step.sol\":1851:1857  sender */\n      dup1\n        /* \"@openzeppelin/contracts/access/Ownable2Step.sol\":1833:1857  pendingOwner() == sender */\n      0xffffffffffffffffffffffffffffffffffffffff\n      and\n        /* \"@openzeppelin/contracts/access/Ownable2Step.sol\":1833:1847  pendingOwner() */\n      tag_93\n        /* \"@openzeppelin/contracts/access/Ownable2Step.sol\":1833:1845  pendingOwner */\n      tag_44\n        /* \"@openzeppelin/contracts/access/Ownable2Step.sol\":1833:1847  pendingOwner() */\n      jump\t// in\n    tag_93:\n        /* \"@openzeppelin/contracts/access/Ownable2Step.sol\":1833:1857  pendingOwner() == sender */\n      0xffffffffffffffffffffffffffffffffffffffff\n      and\n      eq\n        /* \"@openzeppelin/contracts/access/Ownable2Step.sol\":1825:1903  require(pendingOwner() == sender, \"Ownable2Step: caller is not the new owner\") */\n      tag_94\n      jumpi\n      mload(0x40)\n      0x08c379a000000000000000000000000000000000000000000000000000000000\n      dup2\n      mstore\n      0x04\n      add\n      tag_95\n      swap1\n      tag_96\n      jump\t// in\n    tag_95:\n      mload(0x40)\n      dup1\n      swap2\n      sub\n      swap1\n      revert\n    tag_94:\n        /* \"@openzeppelin/contracts/access/Ownable2Step.sol\":1913:1939  _transferOwnership(sender) */\n      tag_97\n        /* \"@openzeppelin/contracts/access/Ownable2Step.sol\":1932:1938  sender */\n      dup2\n        /* \"@openzeppelin/contracts/access/Ownable2Step.sol\":1913:1931  _transferOwnership */\n      tag_89\n        /* \"@openzeppelin/contracts/access/Ownable2Step.sol\":1913:1939  _transferOwnership(sender) */\n      jump\t// in\n    tag_97:\n        /* \"@openzeppelin/contracts/access/Ownable2Step.sol\":1776:1946  {... */\n      pop\n        /* \"@openzeppelin/contracts/access/Ownable2Step.sol\":1734:1946  function acceptOwnership() public virtual {... */\n      jump\t// out\n        /* \"@openzeppelin/contracts/access/Ownable.sol\":1201:1286  function owner() public view virtual returns (address) {... */\n    tag_33:\n        /* \"@openzeppelin/contracts/access/Ownable.sol\":1247:1254  address */\n      0x00\n        /* \"@openzeppelin/contracts/access/Ownable.sol\":1273:1279  _owner */\n      dup1\n      0x00\n      swap1\n      sload\n      swap1\n      0x0100\n      exp\n      swap1\n      div\n      0xffffffffffffffffffffffffffffffffffffffff\n      and\n        /* \"@openzeppelin/contracts/access/Ownable.sol\":1266:1279  return _owner */\n      swap1\n      pop\n        /* \"@openzeppelin/contracts/access/Ownable.sol\":1201:1286  function owner() public view virtual returns (address) {... */\n      swap1\n      jump\t// out\n        /* \"contracts/UntrustedEscrow.sol\":2407:3034  function refundToBuyer(uint256 _escrowId) external onlyOwner {... */\n    tag_38:\n        /* \"@openzeppelin/contracts/access/Ownable.sol\":1094:1107  _checkOwner() */\n      tag_100\n        /* \"@openzeppelin/contracts/access/Ownable.sol\":1094:1105  _checkOwner */\n      tag_86\n        /* \"@openzeppelin/contracts/access/Ownable.sol\":1094:1107  _checkOwner() */\n      jump\t// in\n    tag_100:\n        /* \"contracts/UntrustedEscrow.sol\":2479:2500  Escrow storage escrow */\n      0x00\n        /* \"contracts/UntrustedEscrow.sol\":2503:2510  escrows */\n      0x03\n        /* \"contracts/UntrustedEscrow.sol\":2503:2521  escrows[_escrowId] */\n      0x00\n        /* \"contracts/UntrustedEscrow.sol\":2511:2520  _escrowId */\n      dup4\n        /* \"contracts/UntrustedEscrow.sol\":2503:2521  escrows[_escrowId] */\n      dup2\n      mstore\n      0x20\n      add\n      swap1\n      dup2\n      mstore\n      0x20\n      add\n      0x00\n      keccak256\n        /* \"contracts/UntrustedEscrow.sol\":2479:2521  Escrow storage escrow = escrows[_escrowId] */\n      swap1\n      pop\n        /* \"contracts/UntrustedEscrow.sol\":2540:2546  escrow */\n      dup1\n        /* \"contracts/UntrustedEscrow.sol\":2540:2555  escrow.isActive */\n      0x04\n      add\n      0x00\n      swap1\n      sload\n      swap1\n      0x0100\n      exp\n      swap1\n      div\n      0xff\n      and\n        /* \"contracts/UntrustedEscrow.sol\":2532:2580  require(escrow.isActive, \"Escrow is not active\") */\n      tag_102\n      jumpi\n      mload(0x40)\n      0x08c379a000000000000000000000000000000000000000000000000000000000\n      dup2\n      mstore\n      0x04\n      add\n      tag_103\n      swap1\n      tag_57\n      jump\t// in\n    tag_103:\n      mload(0x40)\n      dup1\n      swap2\n      sub\n      swap1\n      revert\n    tag_102:\n        /* \"contracts/UntrustedEscrow.sol\":2618:2624  escrow */\n      dup1\n        /* \"contracts/UntrustedEscrow.sol\":2618:2636  escrow.releaseTime */\n      0x02\n      add\n      sload\n        /* \"contracts/UntrustedEscrow.sol\":2599:2614  block.timestamp */\n      timestamp\n        /* \"contracts/UntrustedEscrow.sol\":2599:2636  block.timestamp >= escrow.releaseTime */\n      lt\n      iszero\n        /* \"contracts/UntrustedEscrow.sol\":2591:2689  require(block.timestamp >= escrow.releaseTime, \"Funds cannot be refunded before the release time\") */\n      tag_104\n      jumpi\n      mload(0x40)\n      0x08c379a000000000000000000000000000000000000000000000000000000000\n      dup2\n      mstore\n      0x04\n      add\n      tag_105\n      swap1\n      tag_106\n      jump\t// in\n    tag_105:\n      mload(0x40)\n      dup1\n      swap2\n      sub\n      swap1\n      revert\n    tag_104:\n        /* \"contracts/UntrustedEscrow.sol\":2702:2717  uint256 balance */\n      0x00\n        /* \"contracts/UntrustedEscrow.sol\":2720:2725  token */\n      0x02\n      0x00\n      swap1\n      sload\n      swap1\n      0x0100\n      exp\n      swap1\n      div\n      0xffffffffffffffffffffffffffffffffffffffff\n      and\n        /* \"contracts/UntrustedEscrow.sol\":2720:2735  token.balanceOf */\n      0xffffffffffffffffffffffffffffffffffffffff\n      and\n      0x70a08231\n        /* \"contracts/UntrustedEscrow.sol\":2744:2748  this */\n      address\n        /* \"contracts/UntrustedEscrow.sol\":2720:2750  token.balanceOf(address(this)) */\n      mload(0x40)\n      dup3\n      0xffffffff\n      and\n      0xe0\n      shl\n      dup2\n      mstore\n      0x04\n      add\n      tag_107\n      swap2\n      swap1\n      tag_35\n      jump\t// in\n    tag_107:\n      0x20\n      mload(0x40)\n      dup1\n      dup4\n      sub\n      dup2\n      dup7\n      gas\n      staticcall\n      iszero\n      dup1\n      iszero\n      tag_109\n      jumpi\n      returndatasize\n      0x00\n      dup1\n      returndatacopy\n      revert(0x00, returndatasize)\n    tag_109:\n      pop\n      pop\n      pop\n      pop\n      mload(0x40)\n      returndatasize\n      not(0x1f)\n      0x1f\n      dup3\n      add\n      and\n      dup3\n      add\n      dup1\n      0x40\n      mstore\n      pop\n      dup2\n      add\n      swap1\n      tag_110\n      swap2\n      swap1\n      tag_70\n      jump\t// in\n    tag_110:\n        /* \"contracts/UntrustedEscrow.sol\":2702:2750  uint256 balance = token.balanceOf(address(this)) */\n      swap1\n      pop\n        /* \"contracts/UntrustedEscrow.sol\":2780:2786  escrow */\n      dup2\n        /* \"contracts/UntrustedEscrow.sol\":2780:2793  escrow.amount */\n      0x03\n      add\n      sload\n        /* \"contracts/UntrustedEscrow.sol\":2769:2776  balance */\n      dup2\n        /* \"contracts/UntrustedEscrow.sol\":2769:2793  balance >= escrow.amount */\n      lt\n      iszero\n        /* \"contracts/UntrustedEscrow.sol\":2761:2834  require(balance >= escrow.amount, \"Insufficient balance in the contract\") */\n      tag_111\n      jumpi\n      mload(0x40)\n      0x08c379a000000000000000000000000000000000000000000000000000000000\n      dup2\n      mstore\n      0x04\n      add\n      tag_112\n      swap1\n      tag_73\n      jump\t// in\n    tag_112:\n      mload(0x40)\n      dup1\n      swap2\n      sub\n      swap1\n      revert\n    tag_111:\n        /* \"contracts/UntrustedEscrow.sol\":2865:2870  false */\n      0x00\n        /* \"contracts/UntrustedEscrow.sol\":2847:2853  escrow */\n      dup3\n        /* \"contracts/UntrustedEscrow.sol\":2847:2862  escrow.isActive */\n      0x04\n      add\n      0x00\n        /* \"contracts/UntrustedEscrow.sol\":2847:2870  escrow.isActive = false */\n      0x0100\n      exp\n      dup2\n      sload\n      dup2\n      0xff\n      mul\n      not\n      and\n      swap1\n      dup4\n      iszero\n      iszero\n      mul\n      or\n      swap1\n      sstore\n      pop\n        /* \"contracts/UntrustedEscrow.sol\":2889:2894  token */\n      0x02\n      0x00\n      swap1\n      sload\n      swap1\n      0x0100\n      exp\n      swap1\n      div\n      0xffffffffffffffffffffffffffffffffffffffff\n      and\n        /* \"contracts/UntrustedEscrow.sol\":2889:2903  token.transfer */\n      0xffffffffffffffffffffffffffffffffffffffff\n      and\n      0xa9059cbb\n        /* \"contracts/UntrustedEscrow.sol\":2904:2910  escrow */\n      dup4\n        /* \"contracts/UntrustedEscrow.sol\":2904:2916  escrow.buyer */\n      0x00\n      add\n      0x00\n      swap1\n      sload\n      swap1\n      0x0100\n      exp\n      swap1\n      div\n      0xffffffffffffffffffffffffffffffffffffffff\n      and\n        /* \"contracts/UntrustedEscrow.sol\":2918:2924  escrow */\n      dup5\n        /* \"contracts/UntrustedEscrow.sol\":2918:2931  escrow.amount */\n      0x03\n      add\n      sload\n        /* \"contracts/UntrustedEscrow.sol\":2889:2932  token.transfer(escrow.buyer, escrow.amount) */\n      mload(0x40)\n      dup4\n      0xffffffff\n      and\n      0xe0\n      shl\n      dup2\n      mstore\n      0x04\n      add\n      tag_113\n      swap3\n      swap2\n      swap1\n      tag_75\n      jump\t// in\n    tag_113:\n      0x20\n      mload(0x40)\n      dup1\n      dup4\n      sub\n      dup2\n      0x00\n      dup8\n      gas\n      call\n      iszero\n      dup1\n      iszero\n      tag_115\n      jumpi\n      returndatasize\n      0x00\n      dup1\n      returndatacopy\n      revert(0x00, returndatasize)\n    tag_115:\n      pop\n      pop\n      pop\n      pop\n      mload(0x40)\n      returndatasize\n      not(0x1f)\n      0x1f\n      dup3\n      add\n      and\n      dup3\n      add\n      dup1\n      0x40\n      mstore\n      pop\n      dup2\n      add\n      swap1\n      tag_116\n      swap2\n      swap1\n      tag_79\n      jump\t// in\n    tag_116:\n        /* \"contracts/UntrustedEscrow.sol\":2881:2958  require(token.transfer(escrow.buyer, escrow.amount), \"Token transfer failed\") */\n      tag_117\n      jumpi\n      mload(0x40)\n      0x08c379a000000000000000000000000000000000000000000000000000000000\n      dup2\n      mstore\n      0x04\n      add\n      tag_118\n      swap1\n      tag_82\n      jump\t// in\n    tag_118:\n      mload(0x40)\n      dup1\n      swap2\n      sub\n      swap1\n      revert\n    tag_117:\n        /* \"contracts/UntrustedEscrow.sol\":2998:3004  escrow */\n      dup2\n        /* \"contracts/UntrustedEscrow.sol\":2998:3010  escrow.buyer */\n      0x00\n      add\n      0x00\n      swap1\n      sload\n      swap1\n      0x0100\n      exp\n      swap1\n      div\n      0xffffffffffffffffffffffffffffffffffffffff\n      and\n        /* \"contracts/UntrustedEscrow.sol\":2976:3026  Withdrawal(_escrowId, escrow.buyer, escrow.amount) */\n      0xffffffffffffffffffffffffffffffffffffffff\n      and\n        /* \"contracts/UntrustedEscrow.sol\":2987:2996  _escrowId */\n      dup4\n        /* \"contracts/UntrustedEscrow.sol\":2976:3026  Withdrawal(_escrowId, escrow.buyer, escrow.amount) */\n      0x37e8063b72a944a76de602f32b82fd8c2a1c6f99564c727ffaf913c7762cd420\n        /* \"contracts/UntrustedEscrow.sol\":3012:3018  escrow */\n      dup5\n        /* \"contracts/UntrustedEscrow.sol\":3012:3025  escrow.amount */\n      0x03\n      add\n      sload\n        /* \"contracts/UntrustedEscrow.sol\":2976:3026  Withdrawal(_escrowId, escrow.buyer, escrow.amount) */\n      mload(0x40)\n      tag_119\n      swap2\n      swap1\n      tag_27\n      jump\t// in\n    tag_119:\n      mload(0x40)\n      dup1\n      swap2\n      sub\n      swap1\n      log3\n        /* \"contracts/UntrustedEscrow.sol\":2468:3034  {... */\n      pop\n      pop\n        /* \"contracts/UntrustedEscrow.sol\":2407:3034  function refundToBuyer(uint256 _escrowId) external onlyOwner {... */\n      pop\n      jump\t// out\n        /* \"contracts/UntrustedEscrow.sol\":893:1553  function createEscrow(address _seller, uint256 _releaseTime, uint256 _amount) external {... */\n    tag_42:\n        /* \"contracts/UntrustedEscrow.sol\":1014:1029  block.timestamp */\n      timestamp\n        /* \"contracts/UntrustedEscrow.sol\":999:1011  _releaseTime */\n      dup3\n        /* \"contracts/UntrustedEscrow.sol\":999:1029  _releaseTime > block.timestamp */\n      gt\n        /* \"contracts/UntrustedEscrow.sol\":991:1068  require(_releaseTime > block.timestamp, \"Release time must be in the future\") */\n      tag_121\n      jumpi\n      mload(0x40)\n      0x08c379a000000000000000000000000000000000000000000000000000000000\n      dup2\n      mstore\n      0x04\n      add\n      tag_122\n      swap1\n      tag_123\n      jump\t// in\n    tag_122:\n      mload(0x40)\n      dup1\n      swap2\n      sub\n      swap1\n      revert\n    tag_121:\n        /* \"contracts/UntrustedEscrow.sol\":1097:1098  0 */\n      0x00\n        /* \"contracts/UntrustedEscrow.sol\":1087:1094  _amount */\n      dup2\n        /* \"contracts/UntrustedEscrow.sol\":1087:1098  _amount > 0 */\n      gt\n        /* \"contracts/UntrustedEscrow.sol\":1079:1132  require(_amount > 0, \"Amount must be greater than 0\") */\n      tag_124\n      jumpi\n      mload(0x40)\n      0x08c379a000000000000000000000000000000000000000000000000000000000\n      dup2\n      mstore\n      0x04\n      add\n      tag_125\n      swap1\n      tag_126\n      jump\t// in\n    tag_125:\n      mload(0x40)\n      dup1\n      swap2\n      sub\n      swap1\n      revert\n    tag_124:\n        /* \"contracts/UntrustedEscrow.sol\":1151:1156  token */\n      0x02\n      0x00\n      swap1\n      sload\n      swap1\n      0x0100\n      exp\n      swap1\n      div\n      0xffffffffffffffffffffffffffffffffffffffff\n      and\n        /* \"contracts/UntrustedEscrow.sol\":1151:1169  token.transferFrom */\n      0xffffffffffffffffffffffffffffffffffffffff\n      and\n      0x23b872dd\n        /* \"contracts/UntrustedEscrow.sol\":1170:1180  msg.sender */\n      caller\n        /* \"contracts/UntrustedEscrow.sol\":1190:1194  this */\n      address\n        /* \"contracts/UntrustedEscrow.sol\":1197:1204  _amount */\n      dup5\n        /* \"contracts/UntrustedEscrow.sol\":1151:1205  token.transferFrom(msg.sender, address(this), _amount) */\n      mload(0x40)\n      dup5\n      0xffffffff\n      and\n      0xe0\n      shl\n      dup2\n      mstore\n      0x04\n      add\n      tag_127\n      swap4\n      swap3\n      swap2\n      swap1\n      tag_128\n      jump\t// in\n    tag_127:\n      0x20\n      mload(0x40)\n      dup1\n      dup4\n      sub\n      dup2\n      0x00\n      dup8\n      gas\n      call\n      iszero\n      dup1\n      iszero\n      tag_130\n      jumpi\n      returndatasize\n      0x00\n      dup1\n      returndatacopy\n      revert(0x00, returndatasize)\n    tag_130:\n      pop\n      pop\n      pop\n      pop\n      mload(0x40)\n      returndatasize\n      not(0x1f)\n      0x1f\n      dup3\n      add\n      and\n      dup3\n      add\n      dup1\n      0x40\n      mstore\n      pop\n      dup2\n      add\n      swap1\n      tag_131\n      swap2\n      swap1\n      tag_79\n      jump\t// in\n    tag_131:\n        /* \"contracts/UntrustedEscrow.sol\":1143:1231  require(token.transferFrom(msg.sender, address(this), _amount), \"Token transfer failed\") */\n      tag_132\n      jumpi\n      mload(0x40)\n      0x08c379a000000000000000000000000000000000000000000000000000000000\n      dup2\n      mstore\n      0x04\n      add\n      tag_133\n      swap1\n      tag_82\n      jump\t// in\n    tag_133:\n      mload(0x40)\n      dup1\n      swap2\n      sub\n      swap1\n      revert\n    tag_132:\n        /* \"contracts/UntrustedEscrow.sol\":1267:1447  Escrow({... */\n      mload(0x40)\n      dup1\n      0xa0\n      add\n      0x40\n      mstore\n      dup1\n        /* \"contracts/UntrustedEscrow.sol\":1296:1306  msg.sender */\n      caller\n        /* \"contracts/UntrustedEscrow.sol\":1267:1447  Escrow({... */\n      0xffffffffffffffffffffffffffffffffffffffff\n      and\n      dup2\n      mstore\n      0x20\n      add\n        /* \"contracts/UntrustedEscrow.sol\":1329:1336  _seller */\n      dup5\n        /* \"contracts/UntrustedEscrow.sol\":1267:1447  Escrow({... */\n      0xffffffffffffffffffffffffffffffffffffffff\n      and\n      dup2\n      mstore\n      0x20\n      add\n        /* \"contracts/UntrustedEscrow.sol\":1364:1376  _releaseTime */\n      dup4\n        /* \"contracts/UntrustedEscrow.sol\":1267:1447  Escrow({... */\n      dup2\n      mstore\n      0x20\n      add\n        /* \"contracts/UntrustedEscrow.sol\":1399:1406  _amount */\n      dup3\n        /* \"contracts/UntrustedEscrow.sol\":1267:1447  Escrow({... */\n      dup2\n      mstore\n      0x20\n      add\n        /* \"contracts/UntrustedEscrow.sol\":1431:1435  true */\n      0x01\n        /* \"contracts/UntrustedEscrow.sol\":1267:1447  Escrow({... */\n      iszero\n      iszero\n      dup2\n      mstore\n      pop\n        /* \"contracts/UntrustedEscrow.sol\":1244:1251  escrows */\n      0x03\n        /* \"contracts/UntrustedEscrow.sol\":1244:1264  escrows[escrowCount] */\n      0x00\n        /* \"contracts/UntrustedEscrow.sol\":1252:1263  escrowCount */\n      sload(0x04)\n        /* \"contracts/UntrustedEscrow.sol\":1244:1264  escrows[escrowCount] */\n      dup2\n      mstore\n      0x20\n      add\n      swap1\n      dup2\n      mstore\n      0x20\n      add\n      0x00\n      keccak256\n        /* \"contracts/UntrustedEscrow.sol\":1244:1447  escrows[escrowCount] = Escrow({... */\n      0x00\n      dup3\n      add\n      mload\n      dup2\n      0x00\n      add\n      exp(0x0100, 0x00)\n      dup2\n      sload\n      dup2\n      0xffffffffffffffffffffffffffffffffffffffff\n      mul\n      not\n      and\n      swap1\n      dup4\n      0xffffffffffffffffffffffffffffffffffffffff\n      and\n      mul\n      or\n      swap1\n      sstore\n      pop\n      0x20\n      dup3\n      add\n      mload\n      dup2\n      0x01\n      add\n      exp(0x0100, 0x00)\n      dup2\n      sload\n      dup2\n      0xffffffffffffffffffffffffffffffffffffffff\n      mul\n      not\n      and\n      swap1\n      dup4\n      0xffffffffffffffffffffffffffffffffffffffff\n      and\n      mul\n      or\n      swap1\n      sstore\n      pop\n      0x40\n      dup3\n      add\n      mload\n      dup2\n      0x02\n      add\n      sstore\n      0x60\n      dup3\n      add\n      mload\n      dup2\n      0x03\n      add\n      sstore\n      0x80\n      dup3\n      add\n      mload\n      dup2\n      0x04\n      add\n      exp(0x0100, 0x00)\n      dup2\n      sload\n      dup2\n      0xff\n      mul\n      not\n      and\n      swap1\n      dup4\n      iszero\n      iszero\n      mul\n      or\n      swap1\n      sstore\n      pop\n      swap1\n      pop\n      pop\n        /* \"contracts/UntrustedEscrow.sol\":1504:1511  _seller */\n      dup3\n        /* \"contracts/UntrustedEscrow.sol\":1465:1521  EscrowCreated(escrowCount, msg.sender, _seller, _amount) */\n      0xffffffffffffffffffffffffffffffffffffffff\n      and\n        /* \"contracts/UntrustedEscrow.sol\":1492:1502  msg.sender */\n      caller\n        /* \"contracts/UntrustedEscrow.sol\":1465:1521  EscrowCreated(escrowCount, msg.sender, _seller, _amount) */\n      0xffffffffffffffffffffffffffffffffffffffff\n      and\n        /* \"contracts/UntrustedEscrow.sol\":1479:1490  escrowCount */\n      sload(0x04)\n        /* \"contracts/UntrustedEscrow.sol\":1465:1521  EscrowCreated(escrowCount, msg.sender, _seller, _amount) */\n      0x9405ad0a6208539879349284d71265479b1623846f70303da1f9890d6e8c10a7\n        /* \"contracts/UntrustedEscrow.sol\":1513:1520  _amount */\n      dup5\n        /* \"contracts/UntrustedEscrow.sol\":1465:1521  EscrowCreated(escrowCount, msg.sender, _seller, _amount) */\n      mload(0x40)\n      tag_134\n      swap2\n      swap1\n      tag_27\n      jump\t// in\n    tag_134:\n      mload(0x40)\n      dup1\n      swap2\n      sub\n      swap1\n      log4\n        /* \"contracts/UntrustedEscrow.sol\":1532:1543  escrowCount */\n      0x04\n      0x00\n        /* \"contracts/UntrustedEscrow.sol\":1532:1545  escrowCount++ */\n      dup2\n      sload\n      dup1\n      swap3\n      swap2\n      swap1\n      tag_135\n      swap1\n      tag_136\n      jump\t// in\n    tag_135:\n      swap2\n      swap1\n      pop\n      sstore\n      pop\n        /* \"contracts/UntrustedEscrow.sol\":893:1553  function createEscrow(address _seller, uint256 _releaseTime, uint256 _amount) external {... */\n      pop\n      pop\n      pop\n      jump\t// out\n        /* \"@openzeppelin/contracts/access/Ownable2Step.sol\":847:946  function pendingOwner() public view virtual returns (address) {... */\n    tag_44:\n        /* \"@openzeppelin/contracts/access/Ownable2Step.sol\":900:907  address */\n      0x00\n        /* \"@openzeppelin/contracts/access/Ownable2Step.sol\":926:939  _pendingOwner */\n      0x01\n      0x00\n      swap1\n      sload\n      swap1\n      0x0100\n      exp\n      swap1\n      div\n      0xffffffffffffffffffffffffffffffffffffffff\n      and\n        /* \"@openzeppelin/contracts/access/Ownable2Step.sol\":919:939  return _pendingOwner */\n      swap1\n      pop\n        /* \"@openzeppelin/contracts/access/Ownable2Step.sol\":847:946  function pendingOwner() public view virtual returns (address) {... */\n      swap1\n      jump\t// out\n        /* \"@openzeppelin/contracts/access/Ownable2Step.sol\":1139:1317  function transferOwnership(address newOwner) public virtual override onlyOwner {... */\n    tag_49:\n        /* \"@openzeppelin/contracts/access/Ownable.sol\":1094:1107  _checkOwner() */\n      tag_139\n        /* \"@openzeppelin/contracts/access/Ownable.sol\":1094:1105  _checkOwner */\n      tag_86\n        /* \"@openzeppelin/contracts/access/Ownable.sol\":1094:1107  _checkOwner() */\n      jump\t// in\n    tag_139:\n        /* \"@openzeppelin/contracts/access/Ownable2Step.sol\":1244:1252  newOwner */\n      dup1\n        /* \"@openzeppelin/contracts/access/Ownable2Step.sol\":1228:1241  _pendingOwner */\n      0x01\n      0x00\n        /* \"@openzeppelin/contracts/access/Ownable2Step.sol\":1228:1252  _pendingOwner = newOwner */\n      0x0100\n      exp\n      dup2\n      sload\n      dup2\n      0xffffffffffffffffffffffffffffffffffffffff\n      mul\n      not\n      and\n      swap1\n      dup4\n      0xffffffffffffffffffffffffffffffffffffffff\n      and\n      mul\n      or\n      swap1\n      sstore\n      pop\n        /* \"@openzeppelin/contracts/access/Ownable2Step.sol\":1301:1309  newOwner */\n      dup1\n        /* \"@openzeppelin/contracts/access/Ownable2Step.sol\":1267:1310  OwnershipTransferStarted(owner(), newOwner) */\n      0xffffffffffffffffffffffffffffffffffffffff\n      and\n        /* \"@openzeppelin/contracts/access/Ownable2Step.sol\":1292:1299  owner() */\n      tag_141\n        /* \"@openzeppelin/contracts/access/Ownable2Step.sol\":1292:1297  owner */\n      tag_33\n        /* \"@openzeppelin/contracts/access/Ownable2Step.sol\":1292:1299  owner() */\n      jump\t// in\n    tag_141:\n        /* \"@openzeppelin/contracts/access/Ownable2Step.sol\":1267:1310  OwnershipTransferStarted(owner(), newOwner) */\n      0xffffffffffffffffffffffffffffffffffffffff\n      and\n      0x38d16b8cac22d99fc7c124b9cd0de2d3fa1faef420bfe791d8c362d765e22700\n      mload(0x40)\n      mload(0x40)\n      dup1\n      swap2\n      sub\n      swap1\n      log3\n        /* \"@openzeppelin/contracts/access/Ownable2Step.sol\":1139:1317  function transferOwnership(address newOwner) public virtual override onlyOwner {... */\n      pop\n      jump\t// out\n        /* \"contracts/UntrustedEscrow.sol\":482:501  IERC20 public token */\n    tag_51:\n      0x02\n      0x00\n      swap1\n      sload\n      swap1\n      0x0100\n      exp\n      swap1\n      div\n      0xffffffffffffffffffffffffffffffffffffffff\n      and\n      dup2\n      jump\t// out\n        /* \"@openzeppelin/contracts/access/Ownable.sol\":1359:1489  function _checkOwner() internal view virtual {... */\n    tag_86:\n        /* \"@openzeppelin/contracts/access/Ownable.sol\":1433:1445  _msgSender() */\n      tag_143\n        /* \"@openzeppelin/contracts/access/Ownable.sol\":1433:1443  _msgSender */\n      tag_92\n        /* \"@openzeppelin/contracts/access/Ownable.sol\":1433:1445  _msgSender() */\n      jump\t// in\n    tag_143:\n        /* \"@openzeppelin/contracts/access/Ownable.sol\":1422:1445  owner() == _msgSender() */\n      0xffffffffffffffffffffffffffffffffffffffff\n      and\n        /* \"@openzeppelin/contracts/access/Ownable.sol\":1422:1429  owner() */\n      tag_144\n        /* \"@openzeppelin/contracts/access/Ownable.sol\":1422:1427  owner */\n      tag_33\n        /* \"@openzeppelin/contracts/access/Ownable.sol\":1422:1429  owner() */\n      jump\t// in\n    tag_144:\n        /* \"@openzeppelin/contracts/access/Ownable.sol\":1422:1445  owner() == _msgSender() */\n      0xffffffffffffffffffffffffffffffffffffffff\n      and\n      eq\n        /* \"@openzeppelin/contracts/access/Ownable.sol\":1414:1482  require(owner() == _msgSender(), \"Ownable: caller is not the owner\") */\n      tag_145\n      jumpi\n      mload(0x40)\n      0x08c379a000000000000000000000000000000000000000000000000000000000\n      dup2\n      mstore\n      0x04\n      add\n      tag_146\n      swap1\n      tag_147\n      jump\t// in\n    tag_146:\n      mload(0x40)\n      dup1\n      swap2\n      sub\n      swap1\n      revert\n    tag_145:\n        /* \"@openzeppelin/contracts/access/Ownable.sol\":1359:1489  function _checkOwner() internal view virtual {... */\n      jump\t// out\n        /* \"@openzeppelin/contracts/access/Ownable2Step.sol\":1501:1654  function _transferOwnership(address newOwner) internal virtual override {... */\n    tag_89:\n        /* \"@openzeppelin/contracts/access/Ownable2Step.sol\":1590:1603  _pendingOwner */\n      0x01\n      0x00\n        /* \"@openzeppelin/contracts/access/Ownable2Step.sol\":1583:1603  delete _pendingOwner */\n      0x0100\n      exp\n      dup2\n      sload\n      swap1\n      0xffffffffffffffffffffffffffffffffffffffff\n      mul\n      not\n      and\n      swap1\n      sstore\n        /* \"@openzeppelin/contracts/access/Ownable2Step.sol\":1613:1647  super._transferOwnership(newOwner) */\n      tag_149\n        /* \"@openzeppelin/contracts/access/Ownable2Step.sol\":1638:1646  newOwner */\n      dup2\n        /* \"@openzeppelin/contracts/access/Ownable2Step.sol\":1613:1637  super._transferOwnership */\n      tag_150\n        /* \"@openzeppelin/contracts/access/Ownable2Step.sol\":1613:1647  super._transferOwnership(newOwner) */\n      jump\t// in\n    tag_149:\n        /* \"@openzeppelin/contracts/access/Ownable2Step.sol\":1501:1654  function _transferOwnership(address newOwner) internal virtual override {... */\n      pop\n      jump\t// out\n        /* \"@openzeppelin/contracts/utils/Context.sol\":640:736  function _msgSender() internal view virtual returns (address) {... */\n    tag_92:\n        /* \"@openzeppelin/contracts/utils/Context.sol\":693:700  address */\n      0x00\n        /* \"@openzeppelin/contracts/utils/Context.sol\":719:729  msg.sender */\n      caller\n        /* \"@openzeppelin/contracts/utils/Context.sol\":712:729  return msg.sender */\n      swap1\n      pop\n        /* \"@openzeppelin/contracts/utils/Context.sol\":640:736  function _msgSender() internal view virtual returns (address) {... */\n      swap1\n      jump\t// out\n        /* \"@openzeppelin/contracts/access/Ownable.sol\":2426:2613  function _transferOwnership(address newOwner) internal virtual {... */\n    tag_150:\n        /* \"@openzeppelin/contracts/access/Ownable.sol\":2499:2515  address oldOwner */\n      0x00\n        /* \"@openzeppelin/contracts/access/Ownable.sol\":2518:2524  _owner */\n      dup1\n      0x00\n      swap1\n      sload\n      swap1\n      0x0100\n      exp\n      swap1\n      div\n      0xffffffffffffffffffffffffffffffffffffffff\n      and\n        /* \"@openzeppelin/contracts/access/Ownable.sol\":2499:2524  address oldOwner = _owner */\n      swap1\n      pop\n        /* \"@openzeppelin/contracts/access/Ownable.sol\":2543:2551  newOwner */\n      dup2\n        /* \"@openzeppelin/contracts/access/Ownable.sol\":2534:2540  _owner */\n      0x00\n      dup1\n        /* \"@openzeppelin/contracts/access/Ownable.sol\":2534:2551  _owner = newOwner */\n      0x0100\n      exp\n      dup2\n      sload\n      dup2\n      0xffffffffffffffffffffffffffffffffffffffff\n      mul\n      not\n      and\n      swap1\n      dup4\n      0xffffffffffffffffffffffffffffffffffffffff\n      and\n      mul\n      or\n      swap1\n      sstore\n      pop\n        /* \"@openzeppelin/contracts/access/Ownable.sol\":2597:2605  newOwner */\n      dup2\n        /* \"@openzeppelin/contracts/access/Ownable.sol\":2566:2606  OwnershipTransferred(oldOwner, newOwner) */\n      0xffffffffffffffffffffffffffffffffffffffff\n      and\n        /* \"@openzeppelin/contracts/access/Ownable.sol\":2587:2595  oldOwner */\n      dup2\n        /* \"@openzeppelin/contracts/access/Ownable.sol\":2566:2606  OwnershipTransferred(oldOwner, newOwner) */\n      0xffffffffffffffffffffffffffffffffffffffff\n      and\n      0x8be0079c531659141344cd1fd0a4f28419497f9722a3daafe3b4186f6b6457e0\n      mload(0x40)\n      mload(0x40)\n      dup1\n      swap2\n      sub\n      swap1\n      log3\n        /* \"@openzeppelin/contracts/access/Ownable.sol\":2489:2613  {... */\n      pop\n        /* \"@openzeppelin/contracts/access/Ownable.sol\":2426:2613  function _transferOwnership(address newOwner) internal virtual {... */\n      pop\n      jump\t// out\n        /* \"#utility.yul\":88:205   */\n    tag_154:\n        /* \"#utility.yul\":197:198   */\n      0x00\n        /* \"#utility.yul\":194:195   */\n      dup1\n        /* \"#utility.yul\":187:199   */\n      revert\n        /* \"#utility.yul\":334:411   */\n    tag_156:\n        /* \"#utility.yul\":371:378   */\n      0x00\n        /* \"#utility.yul\":400:405   */\n      dup2\n        /* \"#utility.yul\":389:405   */\n      swap1\n      pop\n        /* \"#utility.yul\":334:411   */\n      swap2\n      swap1\n      pop\n      jump\t// out\n        /* \"#utility.yul\":417:539   */\n    tag_157:\n        /* \"#utility.yul\":490:514   */\n      tag_203\n        /* \"#utility.yul\":508:513   */\n      dup2\n        /* \"#utility.yul\":490:514   */\n      tag_156\n      jump\t// in\n    tag_203:\n        /* \"#utility.yul\":483:488   */\n      dup2\n        /* \"#utility.yul\":480:515   */\n      eq\n        /* \"#utility.yul\":470:533   */\n      tag_204\n      jumpi\n        /* \"#utility.yul\":529:530   */\n      0x00\n        /* \"#utility.yul\":526:527   */\n      dup1\n        /* \"#utility.yul\":519:531   */\n      revert\n        /* \"#utility.yul\":470:533   */\n    tag_204:\n        /* \"#utility.yul\":417:539   */\n      pop\n      jump\t// out\n        /* \"#utility.yul\":545:684   */\n    tag_158:\n        /* \"#utility.yul\":591:596   */\n      0x00\n        /* \"#utility.yul\":629:635   */\n      dup2\n        /* \"#utility.yul\":616:636   */\n      calldataload\n        /* \"#utility.yul\":607:636   */\n      swap1\n      pop\n        /* \"#utility.yul\":645:678   */\n      tag_206\n        /* \"#utility.yul\":672:677   */\n      dup2\n        /* \"#utility.yul\":645:678   */\n      tag_157\n      jump\t// in\n    tag_206:\n        /* \"#utility.yul\":545:684   */\n      swap3\n      swap2\n      pop\n      pop\n      jump\t// out\n        /* \"#utility.yul\":690:1019   */\n    tag_17:\n        /* \"#utility.yul\":749:755   */\n      0x00\n        /* \"#utility.yul\":798:800   */\n      0x20\n        /* \"#utility.yul\":786:795   */\n      dup3\n        /* \"#utility.yul\":777:784   */\n      dup5\n        /* \"#utility.yul\":773:796   */\n      sub\n        /* \"#utility.yul\":769:801   */\n      slt\n        /* \"#utility.yul\":766:885   */\n      iszero\n      tag_208\n      jumpi\n        /* \"#utility.yul\":804:883   */\n      tag_209\n      tag_154\n      jump\t// in\n    tag_209:\n        /* \"#utility.yul\":766:885   */\n    tag_208:\n        /* \"#utility.yul\":924:925   */\n      0x00\n        /* \"#utility.yul\":949:1002   */\n      tag_210\n        /* \"#utility.yul\":994:1001   */\n      dup5\n        /* \"#utility.yul\":985:991   */\n      dup3\n        /* \"#utility.yul\":974:983   */\n      dup6\n        /* \"#utility.yul\":970:992   */\n      add\n        /* \"#utility.yul\":949:1002   */\n      tag_158\n      jump\t// in\n    tag_210:\n        /* \"#utility.yul\":939:1002   */\n      swap2\n      pop\n        /* \"#utility.yul\":895:1012   */\n      pop\n        /* \"#utility.yul\":690:1019   */\n      swap3\n      swap2\n      pop\n      pop\n      jump\t// out\n        /* \"#utility.yul\":1025:1151   */\n    tag_159:\n        /* \"#utility.yul\":1062:1069   */\n      0x00\n        /* \"#utility.yul\":1102:1144   */\n      0xffffffffffffffffffffffffffffffffffffffff\n        /* \"#utility.yul\":1095:1100   */\n      dup3\n        /* \"#utility.yul\":1091:1145   */\n      and\n        /* \"#utility.yul\":1080:1145   */\n      swap1\n      pop\n        /* \"#utility.yul\":1025:1151   */\n      swap2\n      swap1\n      pop\n      jump\t// out\n        /* \"#utility.yul\":1157:1253   */\n    tag_160:\n        /* \"#utility.yul\":1194:1201   */\n      0x00\n        /* \"#utility.yul\":1223:1247   */\n      tag_213\n        /* \"#utility.yul\":1241:1246   */\n      dup3\n        /* \"#utility.yul\":1223:1247   */\n      tag_159\n      jump\t// in\n    tag_213:\n        /* \"#utility.yul\":1212:1247   */\n      swap1\n      pop\n        /* \"#utility.yul\":1157:1253   */\n      swap2\n      swap1\n      pop\n      jump\t// out\n        /* \"#utility.yul\":1259:1377   */\n    tag_161:\n        /* \"#utility.yul\":1346:1370   */\n      tag_215\n        /* \"#utility.yul\":1364:1369   */\n      dup2\n        /* \"#utility.yul\":1346:1370   */\n      tag_160\n      jump\t// in\n    tag_215:\n        /* \"#utility.yul\":1341:1344   */\n      dup3\n        /* \"#utility.yul\":1334:1371   */\n      mstore\n        /* \"#utility.yul\":1259:1377   */\n      pop\n      pop\n      jump\t// out\n        /* \"#utility.yul\":1383:1501   */\n    tag_162:\n        /* \"#utility.yul\":1470:1494   */\n      tag_217\n        /* \"#utility.yul\":1488:1493   */\n      dup2\n        /* \"#utility.yul\":1470:1494   */\n      tag_156\n      jump\t// in\n    tag_217:\n        /* \"#utility.yul\":1465:1468   */\n      dup3\n        /* \"#utility.yul\":1458:1495   */\n      mstore\n        /* \"#utility.yul\":1383:1501   */\n      pop\n      pop\n      jump\t// out\n        /* \"#utility.yul\":1507:1597   */\n    tag_163:\n        /* \"#utility.yul\":1541:1548   */\n      0x00\n        /* \"#utility.yul\":1584:1589   */\n      dup2\n        /* \"#utility.yul\":1577:1590   */\n      iszero\n        /* \"#utility.yul\":1570:1591   */\n      iszero\n        /* \"#utility.yul\":1559:1591   */\n      swap1\n      pop\n        /* \"#utility.yul\":1507:1597   */\n      swap2\n      swap1\n      pop\n      jump\t// out\n        /* \"#utility.yul\":1603:1712   */\n    tag_164:\n        /* \"#utility.yul\":1684:1705   */\n      tag_220\n        /* \"#utility.yul\":1699:1704   */\n      dup2\n        /* \"#utility.yul\":1684:1705   */\n      tag_163\n      jump\t// in\n    tag_220:\n        /* \"#utility.yul\":1679:1682   */\n      dup3\n        /* \"#utility.yul\":1672:1706   */\n      mstore\n        /* \"#utility.yul\":1603:1712   */\n      pop\n      pop\n      jump\t// out\n        /* \"#utility.yul\":1718:2370   */\n    tag_20:\n        /* \"#utility.yul\":1917:1921   */\n      0x00\n        /* \"#utility.yul\":1955:1958   */\n      0xa0\n        /* \"#utility.yul\":1944:1953   */\n      dup3\n        /* \"#utility.yul\":1940:1959   */\n      add\n        /* \"#utility.yul\":1932:1959   */\n      swap1\n      pop\n        /* \"#utility.yul\":1969:2040   */\n      tag_222\n        /* \"#utility.yul\":2037:2038   */\n      0x00\n        /* \"#utility.yul\":2026:2035   */\n      dup4\n        /* \"#utility.yul\":2022:2039   */\n      add\n        /* \"#utility.yul\":2013:2019   */\n      dup9\n        /* \"#utility.yul\":1969:2040   */\n      tag_161\n      jump\t// in\n    tag_222:\n        /* \"#utility.yul\":2050:2122   */\n      tag_223\n        /* \"#utility.yul\":2118:2120   */\n      0x20\n        /* \"#utility.yul\":2107:2116   */\n      dup4\n        /* \"#utility.yul\":2103:2121   */\n      add\n        /* \"#utility.yul\":2094:2100   */\n      dup8\n        /* \"#utility.yul\":2050:2122   */\n      tag_161\n      jump\t// in\n    tag_223:\n        /* \"#utility.yul\":2132:2204   */\n      tag_224\n        /* \"#utility.yul\":2200:2202   */\n      0x40\n        /* \"#utility.yul\":2189:2198   */\n      dup4\n        /* \"#utility.yul\":2185:2203   */\n      add\n        /* \"#utility.yul\":2176:2182   */\n      dup7\n        /* \"#utility.yul\":2132:2204   */\n      tag_162\n      jump\t// in\n    tag_224:\n        /* \"#utility.yul\":2214:2286   */\n      tag_225\n        /* \"#utility.yul\":2282:2284   */\n      0x60\n        /* \"#utility.yul\":2271:2280   */\n      dup4\n        /* \"#utility.yul\":2267:2285   */\n      add\n        /* \"#utility.yul\":2258:2264   */\n      dup6\n        /* \"#utility.yul\":2214:2286   */\n      tag_162\n      jump\t// in\n    tag_225:\n        /* \"#utility.yul\":2296:2363   */\n      tag_226\n        /* \"#utility.yul\":2358:2361   */\n      0x80\n        /* \"#utility.yul\":2347:2356   */\n      dup4\n        /* \"#utility.yul\":2343:2362   */\n      add\n        /* \"#utility.yul\":2334:2340   */\n      dup5\n        /* \"#utility.yul\":2296:2363   */\n      tag_164\n      jump\t// in\n    tag_226:\n        /* \"#utility.yul\":1718:2370   */\n      swap7\n      swap6\n      pop\n      pop\n      pop\n      pop\n      pop\n      pop\n      jump\t// out\n        /* \"#utility.yul\":2376:2598   */\n    tag_27:\n        /* \"#utility.yul\":2469:2473   */\n      0x00\n        /* \"#utility.yul\":2507:2509   */\n      0x20\n        /* \"#utility.yul\":2496:2505   */\n      dup3\n        /* \"#utility.yul\":2492:2510   */\n      add\n        /* \"#utility.yul\":2484:2510   */\n      swap1\n      pop\n        /* \"#utility.yul\":2520:2591   */\n      tag_228\n        /* \"#utility.yul\":2588:2589   */\n      0x00\n        /* \"#utility.yul\":2577:2586   */\n      dup4\n        /* \"#utility.yul\":2573:2590   */\n      add\n        /* \"#utility.yul\":2564:2570   */\n      dup5\n        /* \"#utility.yul\":2520:2591   */\n      tag_162\n      jump\t// in\n    tag_228:\n        /* \"#utility.yul\":2376:2598   */\n      swap3\n      swap2\n      pop\n      pop\n      jump\t// out\n        /* \"#utility.yul\":2604:2826   */\n    tag_35:\n        /* \"#utility.yul\":2697:2701   */\n      0x00\n        /* \"#utility.yul\":2735:2737   */\n      0x20\n        /* \"#utility.yul\":2724:2733   */\n      dup3\n        /* \"#utility.yul\":2720:2738   */\n      add\n        /* \"#utility.yul\":2712:2738   */\n      swap1\n      pop\n        /* \"#utility.yul\":2748:2819   */\n      tag_230\n        /* \"#utility.yul\":2816:2817   */\n      0x00\n        /* \"#utility.yul\":2805:2814   */\n      dup4\n        /* \"#utility.yul\":2801:2818   */\n      add\n        /* \"#utility.yul\":2792:2798   */\n      dup5\n        /* \"#utility.yul\":2748:2819   */\n      tag_161\n      jump\t// in\n    tag_230:\n        /* \"#utility.yul\":2604:2826   */\n      swap3\n      swap2\n      pop\n      pop\n      jump\t// out\n        /* \"#utility.yul\":2832:2954   */\n    tag_165:\n        /* \"#utility.yul\":2905:2929   */\n      tag_232\n        /* \"#utility.yul\":2923:2928   */\n      dup2\n        /* \"#utility.yul\":2905:2929   */\n      tag_160\n      jump\t// in\n    tag_232:\n        /* \"#utility.yul\":2898:2903   */\n      dup2\n        /* \"#utility.yul\":2895:2930   */\n      eq\n        /* \"#utility.yul\":2885:2948   */\n      tag_233\n      jumpi\n        /* \"#utility.yul\":2944:2945   */\n      0x00\n        /* \"#utility.yul\":2941:2942   */\n      dup1\n        /* \"#utility.yul\":2934:2946   */\n      revert\n        /* \"#utility.yul\":2885:2948   */\n    tag_233:\n        /* \"#utility.yul\":2832:2954   */\n      pop\n      jump\t// out\n        /* \"#utility.yul\":2960:3099   */\n    tag_166:\n        /* \"#utility.yul\":3006:3011   */\n      0x00\n        /* \"#utility.yul\":3044:3050   */\n      dup2\n        /* \"#utility.yul\":3031:3051   */\n      calldataload\n        /* \"#utility.yul\":3022:3051   */\n      swap1\n      pop\n        /* \"#utility.yul\":3060:3093   */\n      tag_235\n        /* \"#utility.yul\":3087:3092   */\n      dup2\n        /* \"#utility.yul\":3060:3093   */\n      tag_165\n      jump\t// in\n    tag_235:\n        /* \"#utility.yul\":2960:3099   */\n      swap3\n      swap2\n      pop\n      pop\n      jump\t// out\n        /* \"#utility.yul\":3105:3724   */\n    tag_41:\n        /* \"#utility.yul\":3182:3188   */\n      0x00\n        /* \"#utility.yul\":3190:3196   */\n      dup1\n        /* \"#utility.yul\":3198:3204   */\n      0x00\n        /* \"#utility.yul\":3247:3249   */\n      0x60\n        /* \"#utility.yul\":3235:3244   */\n      dup5\n        /* \"#utility.yul\":3226:3233   */\n      dup7\n        /* \"#utility.yul\":3222:3245   */\n      sub\n        /* \"#utility.yul\":3218:3250   */\n      slt\n        /* \"#utility.yul\":3215:3334   */\n      iszero\n      tag_237\n      jumpi\n        /* \"#utility.yul\":3253:3332   */\n      tag_238\n      tag_154\n      jump\t// in\n    tag_238:\n        /* \"#utility.yul\":3215:3334   */\n    tag_237:\n        /* \"#utility.yul\":3373:3374   */\n      0x00\n        /* \"#utility.yul\":3398:3451   */\n      tag_239\n        /* \"#utility.yul\":3443:3450   */\n      dup7\n        /* \"#utility.yul\":3434:3440   */\n      dup3\n        /* \"#utility.yul\":3423:3432   */\n      dup8\n        /* \"#utility.yul\":3419:3441   */\n      add\n        /* \"#utility.yul\":3398:3451   */\n      tag_166\n      jump\t// in\n    tag_239:\n        /* \"#utility.yul\":3388:3451   */\n      swap4\n      pop\n        /* \"#utility.yul\":3344:3461   */\n      pop\n        /* \"#utility.yul\":3500:3502   */\n      0x20\n        /* \"#utility.yul\":3526:3579   */\n      tag_240\n        /* \"#utility.yul\":3571:3578   */\n      dup7\n        /* \"#utility.yul\":3562:3568   */\n      dup3\n        /* \"#utility.yul\":3551:3560   */\n      dup8\n        /* \"#utility.yul\":3547:3569   */\n      add\n        /* \"#utility.yul\":3526:3579   */\n      tag_158\n      jump\t// in\n    tag_240:\n        /* \"#utility.yul\":3516:3579   */\n      swap3\n      pop\n        /* \"#utility.yul\":3471:3589   */\n      pop\n        /* \"#utility.yul\":3628:3630   */\n      0x40\n        /* \"#utility.yul\":3654:3707   */\n      tag_241\n        /* \"#utility.yul\":3699:3706   */\n      dup7\n        /* \"#utility.yul\":3690:3696   */\n      dup3\n        /* \"#utility.yul\":3679:3688   */\n      dup8\n        /* \"#utility.yul\":3675:3697   */\n      add\n        /* \"#utility.yul\":3654:3707   */\n      tag_158\n      jump\t// in\n    tag_241:\n        /* \"#utility.yul\":3644:3707   */\n      swap2\n      pop\n        /* \"#utility.yul\":3599:3717   */\n      pop\n        /* \"#utility.yul\":3105:3724   */\n      swap3\n      pop\n      swap3\n      pop\n      swap3\n      jump\t// out\n        /* \"#utility.yul\":3730:4059   */\n    tag_48:\n        /* \"#utility.yul\":3789:3795   */\n      0x00\n        /* \"#utility.yul\":3838:3840   */\n      0x20\n        /* \"#utility.yul\":3826:3835   */\n      dup3\n        /* \"#utility.yul\":3817:3824   */\n      dup5\n        /* \"#utility.yul\":3813:3836   */\n      sub\n        /* \"#utility.yul\":3809:3841   */\n      slt\n        /* \"#utility.yul\":3806:3925   */\n      iszero\n      tag_243\n      jumpi\n        /* \"#utility.yul\":3844:3923   */\n      tag_244\n      tag_154\n      jump\t// in\n    tag_244:\n        /* \"#utility.yul\":3806:3925   */\n    tag_243:\n        /* \"#utility.yul\":3964:3965   */\n      0x00\n        /* \"#utility.yul\":3989:4042   */\n      tag_245\n        /* \"#utility.yul\":4034:4041   */\n      dup5\n        /* \"#utility.yul\":4025:4031   */\n      dup3\n        /* \"#utility.yul\":4014:4023   */\n      dup6\n        /* \"#utility.yul\":4010:4032   */\n      add\n        /* \"#utility.yul\":3989:4042   */\n      tag_166\n      jump\t// in\n    tag_245:\n        /* \"#utility.yul\":3979:4042   */\n      swap2\n      pop\n        /* \"#utility.yul\":3935:4052   */\n      pop\n        /* \"#utility.yul\":3730:4059   */\n      swap3\n      swap2\n      pop\n      pop\n      jump\t// out\n        /* \"#utility.yul\":4065:4125   */\n    tag_167:\n        /* \"#utility.yul\":4093:4096   */\n      0x00\n        /* \"#utility.yul\":4114:4119   */\n      dup2\n        /* \"#utility.yul\":4107:4119   */\n      swap1\n      pop\n        /* \"#utility.yul\":4065:4125   */\n      swap2\n      swap1\n      pop\n      jump\t// out\n        /* \"#utility.yul\":4131:4273   */\n    tag_168:\n        /* \"#utility.yul\":4181:4190   */\n      0x00\n        /* \"#utility.yul\":4214:4267   */\n      tag_248\n        /* \"#utility.yul\":4232:4266   */\n      tag_249\n        /* \"#utility.yul\":4241:4265   */\n      tag_250\n        /* \"#utility.yul\":4259:4264   */\n      dup5\n        /* \"#utility.yul\":4241:4265   */\n      tag_159\n      jump\t// in\n    tag_250:\n        /* \"#utility.yul\":4232:4266   */\n      tag_167\n      jump\t// in\n    tag_249:\n        /* \"#utility.yul\":4214:4267   */\n      tag_159\n      jump\t// in\n    tag_248:\n        /* \"#utility.yul\":4201:4267   */\n      swap1\n      pop\n        /* \"#utility.yul\":4131:4273   */\n      swap2\n      swap1\n      pop\n      jump\t// out\n        /* \"#utility.yul\":4279:4405   */\n    tag_169:\n        /* \"#utility.yul\":4329:4338   */\n      0x00\n        /* \"#utility.yul\":4362:4399   */\n      tag_252\n        /* \"#utility.yul\":4393:4398   */\n      dup3\n        /* \"#utility.yul\":4362:4399   */\n      tag_168\n      jump\t// in\n    tag_252:\n        /* \"#utility.yul\":4349:4399   */\n      swap1\n      pop\n        /* \"#utility.yul\":4279:4405   */\n      swap2\n      swap1\n      pop\n      jump\t// out\n        /* \"#utility.yul\":4411:4551   */\n    tag_170:\n        /* \"#utility.yul\":4475:4484   */\n      0x00\n        /* \"#utility.yul\":4508:4545   */\n      tag_254\n        /* \"#utility.yul\":4539:4544   */\n      dup3\n        /* \"#utility.yul\":4508:4545   */\n      tag_169\n      jump\t// in\n    tag_254:\n        /* \"#utility.yul\":4495:4545   */\n      swap1\n      pop\n        /* \"#utility.yul\":4411:4551   */\n      swap2\n      swap1\n      pop\n      jump\t// out\n        /* \"#utility.yul\":4557:4716   */\n    tag_171:\n        /* \"#utility.yul\":4658:4709   */\n      tag_256\n        /* \"#utility.yul\":4703:4708   */\n      dup2\n        /* \"#utility.yul\":4658:4709   */\n      tag_170\n      jump\t// in\n    tag_256:\n        /* \"#utility.yul\":4653:4656   */\n      dup3\n        /* \"#utility.yul\":4646:4710   */\n      mstore\n        /* \"#utility.yul\":4557:4716   */\n      pop\n      pop\n      jump\t// out\n        /* \"#utility.yul\":4722:4972   */\n    tag_53:\n        /* \"#utility.yul\":4829:4833   */\n      0x00\n        /* \"#utility.yul\":4867:4869   */\n      0x20\n        /* \"#utility.yul\":4856:4865   */\n      dup3\n        /* \"#utility.yul\":4852:4870   */\n      add\n        /* \"#utility.yul\":4844:4870   */\n      swap1\n      pop\n        /* \"#utility.yul\":4880:4965   */\n      tag_258\n        /* \"#utility.yul\":4962:4963   */\n      0x00\n        /* \"#utility.yul\":4951:4960   */\n      dup4\n        /* \"#utility.yul\":4947:4964   */\n      add\n        /* \"#utility.yul\":4938:4944   */\n      dup5\n        /* \"#utility.yul\":4880:4965   */\n      tag_171\n      jump\t// in\n    tag_258:\n        /* \"#utility.yul\":4722:4972   */\n      swap3\n      swap2\n      pop\n      pop\n      jump\t// out\n        /* \"#utility.yul\":4978:5147   */\n    tag_172:\n        /* \"#utility.yul\":5062:5073   */\n      0x00\n        /* \"#utility.yul\":5096:5102   */\n      dup3\n        /* \"#utility.yul\":5091:5094   */\n      dup3\n        /* \"#utility.yul\":5084:5103   */\n      mstore\n        /* \"#utility.yul\":5136:5140   */\n      0x20\n        /* \"#utility.yul\":5131:5134   */\n      dup3\n        /* \"#utility.yul\":5127:5141   */\n      add\n        /* \"#utility.yul\":5112:5141   */\n      swap1\n      pop\n        /* \"#utility.yul\":4978:5147   */\n      swap3\n      swap2\n      pop\n      pop\n      jump\t// out\n        /* \"#utility.yul\":5153:5323   */\n    tag_173:\n        /* \"#utility.yul\":5293:5315   */\n      0x457363726f77206973206e6f7420616374697665000000000000000000000000\n        /* \"#utility.yul\":5289:5290   */\n      0x00\n        /* \"#utility.yul\":5281:5287   */\n      dup3\n        /* \"#utility.yul\":5277:5291   */\n      add\n        /* \"#utility.yul\":5270:5316   */\n      mstore\n        /* \"#utility.yul\":5153:5323   */\n      pop\n      jump\t// out\n        /* \"#utility.yul\":5329:5695   */\n    tag_174:\n        /* \"#utility.yul\":5471:5474   */\n      0x00\n        /* \"#utility.yul\":5492:5559   */\n      tag_262\n        /* \"#utility.yul\":5556:5558   */\n      0x14\n        /* \"#utility.yul\":5551:5554   */\n      dup4\n        /* \"#utility.yul\":5492:5559   */\n      tag_172\n      jump\t// in\n    tag_262:\n        /* \"#utility.yul\":5485:5559   */\n      swap2\n      pop\n        /* \"#utility.yul\":5568:5661   */\n      tag_263\n        /* \"#utility.yul\":5657:5660   */\n      dup3\n        /* \"#utility.yul\":5568:5661   */\n      tag_173\n      jump\t// in\n    tag_263:\n        /* \"#utility.yul\":5686:5688   */\n      0x20\n        /* \"#utility.yul\":5681:5684   */\n      dup3\n        /* \"#utility.yul\":5677:5689   */\n      add\n        /* \"#utility.yul\":5670:5689   */\n      swap1\n      pop\n        /* \"#utility.yul\":5329:5695   */\n      swap2\n      swap1\n      pop\n      jump\t// out\n        /* \"#utility.yul\":5701:6120   */\n    tag_57:\n        /* \"#utility.yul\":5867:5871   */\n      0x00\n        /* \"#utility.yul\":5905:5907   */\n      0x20\n        /* \"#utility.yul\":5894:5903   */\n      dup3\n        /* \"#utility.yul\":5890:5908   */\n      add\n        /* \"#utility.yul\":5882:5908   */\n      swap1\n      pop\n        /* \"#utility.yul\":5954:5963   */\n      dup2\n        /* \"#utility.yul\":5948:5952   */\n      dup2\n        /* \"#utility.yul\":5944:5964   */\n      sub\n        /* \"#utility.yul\":5940:5941   */\n      0x00\n        /* \"#utility.yul\":5929:5938   */\n      dup4\n        /* \"#utility.yul\":5925:5942   */\n      add\n        /* \"#utility.yul\":5918:5965   */\n      mstore\n        /* \"#utility.yul\":5982:6113   */\n      tag_265\n        /* \"#utility.yul\":6108:6112   */\n      dup2\n        /* \"#utility.yul\":5982:6113   */\n      tag_174\n      jump\t// in\n    tag_265:\n        /* \"#utility.yul\":5974:6113   */\n      swap1\n      pop\n        /* \"#utility.yul\":5701:6120   */\n      swap2\n      swap1\n      pop\n      jump\t// out\n        /* \"#utility.yul\":6126:6347   */\n    tag_175:\n        /* \"#utility.yul\":6266:6300   */\n      0x4f6e6c79207468652073656c6c65722063616e2077697468647261772066756e\n        /* \"#utility.yul\":6262:6263   */\n      0x00\n        /* \"#utility.yul\":6254:6260   */\n      dup3\n        /* \"#utility.yul\":6250:6264   */\n      add\n        /* \"#utility.yul\":6243:6301   */\n      mstore\n        /* \"#utility.yul\":6335:6339   */\n      0x6473000000000000000000000000000000000000000000000000000000000000\n        /* \"#utility.yul\":6330:6332   */\n      0x20\n        /* \"#utility.yul\":6322:6328   */\n      dup3\n        /* \"#utility.yul\":6318:6333   */\n      add\n        /* \"#utility.yul\":6311:6340   */\n      mstore\n        /* \"#utility.yul\":6126:6347   */\n      pop\n      jump\t// out\n        /* \"#utility.yul\":6353:6719   */\n    tag_176:\n        /* \"#utility.yul\":6495:6498   */\n      0x00\n        /* \"#utility.yul\":6516:6583   */\n      tag_268\n        /* \"#utility.yul\":6580:6582   */\n      0x22\n        /* \"#utility.yul\":6575:6578   */\n      dup4\n        /* \"#utility.yul\":6516:6583   */\n      tag_172\n      jump\t// in\n    tag_268:\n        /* \"#utility.yul\":6509:6583   */\n      swap2\n      pop\n        /* \"#utility.yul\":6592:6685   */\n      tag_269\n        /* \"#utility.yul\":6681:6684   */\n      dup3\n        /* \"#utility.yul\":6592:6685   */\n      tag_175\n      jump\t// in\n    tag_269:\n        /* \"#utility.yul\":6710:6712   */\n      0x40\n        /* \"#utility.yul\":6705:6708   */\n      dup3\n        /* \"#utility.yul\":6701:6713   */\n      add\n        /* \"#utility.yul\":6694:6713   */\n      swap1\n      pop\n        /* \"#utility.yul\":6353:6719   */\n      swap2\n      swap1\n      pop\n      jump\t// out\n        /* \"#utility.yul\":6725:7144   */\n    tag_60:\n        /* \"#utility.yul\":6891:6895   */\n      0x00\n        /* \"#utility.yul\":6929:6931   */\n      0x20\n        /* \"#utility.yul\":6918:6927   */\n      dup3\n        /* \"#utility.yul\":6914:6932   */\n      add\n        /* \"#utility.yul\":6906:6932   */\n      swap1\n      pop\n        /* \"#utility.yul\":6978:6987   */\n      dup2\n        /* \"#utility.yul\":6972:6976   */\n      dup2\n        /* \"#utility.yul\":6968:6988   */\n      sub\n        /* \"#utility.yul\":6964:6965   */\n      0x00\n        /* \"#utility.yul\":6953:6962   */\n      dup4\n        /* \"#utility.yul\":6949:6966   */\n      add\n        /* \"#utility.yul\":6942:6989   */\n      mstore\n        /* \"#utility.yul\":7006:7137   */\n      tag_271\n        /* \"#utility.yul\":7132:7136   */\n      dup2\n        /* \"#utility.yul\":7006:7137   */\n      tag_176\n      jump\t// in\n    tag_271:\n        /* \"#utility.yul\":6998:7137   */\n      swap1\n      pop\n        /* \"#utility.yul\":6725:7144   */\n      swap2\n      swap1\n      pop\n      jump\t// out\n        /* \"#utility.yul\":7150:7330   */\n    tag_177:\n        /* \"#utility.yul\":7198:7275   */\n      0x4e487b7100000000000000000000000000000000000000000000000000000000\n        /* \"#utility.yul\":7195:7196   */\n      0x00\n        /* \"#utility.yul\":7188:7276   */\n      mstore\n        /* \"#utility.yul\":7295:7299   */\n      0x11\n        /* \"#utility.yul\":7292:7293   */\n      0x04\n        /* \"#utility.yul\":7285:7300   */\n      mstore\n        /* \"#utility.yul\":7319:7323   */\n      0x24\n        /* \"#utility.yul\":7316:7317   */\n      0x00\n        /* \"#utility.yul\":7309:7324   */\n      revert\n        /* \"#utility.yul\":7336:7527   */\n    tag_62:\n        /* \"#utility.yul\":7376:7379   */\n      0x00\n        /* \"#utility.yul\":7395:7415   */\n      tag_274\n        /* \"#utility.yul\":7413:7414   */\n      dup3\n        /* \"#utility.yul\":7395:7415   */\n      tag_156\n      jump\t// in\n    tag_274:\n        /* \"#utility.yul\":7390:7415   */\n      swap2\n      pop\n        /* \"#utility.yul\":7429:7449   */\n      tag_275\n        /* \"#utility.yul\":7447:7448   */\n      dup4\n        /* \"#utility.yul\":7429:7449   */\n      tag_156\n      jump\t// in\n    tag_275:\n        /* \"#utility.yul\":7424:7449   */\n      swap3\n      pop\n        /* \"#utility.yul\":7472:7473   */\n      dup3\n        /* \"#utility.yul\":7469:7470   */\n      dup3\n        /* \"#utility.yul\":7465:7474   */\n      add\n        /* \"#utility.yul\":7458:7474   */\n      swap1\n      pop\n        /* \"#utility.yul\":7493:7496   */\n      dup1\n        /* \"#utility.yul\":7490:7491   */\n      dup3\n        /* \"#utility.yul\":7487:7497   */\n      gt\n        /* \"#utility.yul\":7484:7520   */\n      iszero\n      tag_276\n      jumpi\n        /* \"#utility.yul\":7500:7518   */\n      tag_277\n      tag_177\n      jump\t// in\n    tag_277:\n        /* \"#utility.yul\":7484:7520   */\n    tag_276:\n        /* \"#utility.yul\":7336:7527   */\n      swap3\n      swap2\n      pop\n      pop\n      jump\t// out\n        /* \"#utility.yul\":7533:7769   */\n    tag_178:\n        /* \"#utility.yul\":7673:7707   */\n      0x46756e64732063616e6e6f742062652077697468647261776e206265666f7265\n        /* \"#utility.yul\":7669:7670   */\n      0x00\n        /* \"#utility.yul\":7661:7667   */\n      dup3\n        /* \"#utility.yul\":7657:7671   */\n      add\n        /* \"#utility.yul\":7650:7708   */\n      mstore\n        /* \"#utility.yul\":7742:7761   */\n      0x207468652072656c656173652074696d65000000000000000000000000000000\n        /* \"#utility.yul\":7737:7739   */\n      0x20\n        /* \"#utility.yul\":7729:7735   */\n      dup3\n        /* \"#utility.yul\":7725:7740   */\n      add\n        /* \"#utility.yul\":7718:7762   */\n      mstore\n        /* \"#utility.yul\":7533:7769   */\n      pop\n      jump\t// out\n        /* \"#utility.yul\":7775:8141   */\n    tag_179:\n        /* \"#utility.yul\":7917:7920   */\n      0x00\n        /* \"#utility.yul\":7938:8005   */\n      tag_280\n        /* \"#utility.yul\":8002:8004   */\n      0x31\n        /* \"#utility.yul\":7997:8000   */\n      dup4\n        /* \"#utility.yul\":7938:8005   */\n      tag_172\n      jump\t// in\n    tag_280:\n        /* \"#utility.yul\":7931:8005   */\n      swap2\n      pop\n        /* \"#utility.yul\":8014:8107   */\n      tag_281\n        /* \"#utility.yul\":8103:8106   */\n      dup3\n        /* \"#utility.yul\":8014:8107   */\n      tag_178\n      jump\t// in\n    tag_281:\n        /* \"#utility.yul\":8132:8134   */\n      0x40\n        /* \"#utility.yul\":8127:8130   */\n      dup3\n        /* \"#utility.yul\":8123:8135   */\n      add\n        /* \"#utility.yul\":8116:8135   */\n      swap1\n      pop\n        /* \"#utility.yul\":7775:8141   */\n      swap2\n      swap1\n      pop\n      jump\t// out\n        /* \"#utility.yul\":8147:8566   */\n    tag_65:\n        /* \"#utility.yul\":8313:8317   */\n      0x00\n        /* \"#utility.yul\":8351:8353   */\n      0x20\n        /* \"#utility.yul\":8340:8349   */\n      dup3\n        /* \"#utility.yul\":8336:8354   */\n      add\n        /* \"#utility.yul\":8328:8354   */\n      swap1\n      pop\n        /* \"#utility.yul\":8400:8409   */\n      dup2\n        /* \"#utility.yul\":8394:8398   */\n      dup2\n        /* \"#utility.yul\":8390:8410   */\n      sub\n        /* \"#utility.yul\":8386:8387   */\n      0x00\n        /* \"#utility.yul\":8375:8384   */\n      dup4\n        /* \"#utility.yul\":8371:8388   */\n      add\n        /* \"#utility.yul\":8364:8411   */\n      mstore\n        /* \"#utility.yul\":8428:8559   */\n      tag_283\n        /* \"#utility.yul\":8554:8558   */\n      dup2\n        /* \"#utility.yul\":8428:8559   */\n      tag_179\n      jump\t// in\n    tag_283:\n        /* \"#utility.yul\":8420:8559   */\n      swap1\n      pop\n        /* \"#utility.yul\":8147:8566   */\n      swap2\n      swap1\n      pop\n      jump\t// out\n        /* \"#utility.yul\":8572:8715   */\n    tag_180:\n        /* \"#utility.yul\":8629:8634   */\n      0x00\n        /* \"#utility.yul\":8660:8666   */\n      dup2\n        /* \"#utility.yul\":8654:8667   */\n      mload\n        /* \"#utility.yul\":8645:8667   */\n      swap1\n      pop\n        /* \"#utility.yul\":8676:8709   */\n      tag_285\n        /* \"#utility.yul\":8703:8708   */\n      dup2\n        /* \"#utility.yul\":8676:8709   */\n      tag_157\n      jump\t// in\n    tag_285:\n        /* \"#utility.yul\":8572:8715   */\n      swap3\n      swap2\n      pop\n      pop\n      jump\t// out\n        /* \"#utility.yul\":8721:9072   */\n    tag_70:\n        /* \"#utility.yul\":8791:8797   */\n      0x00\n        /* \"#utility.yul\":8840:8842   */\n      0x20\n        /* \"#utility.yul\":8828:8837   */\n      dup3\n        /* \"#utility.yul\":8819:8826   */\n      dup5\n        /* \"#utility.yul\":8815:8838   */\n      sub\n        /* \"#utility.yul\":8811:8843   */\n      slt\n        /* \"#utility.yul\":8808:8927   */\n      iszero\n      tag_287\n      jumpi\n        /* \"#utility.yul\":8846:8925   */\n      tag_288\n      tag_154\n      jump\t// in\n    tag_288:\n        /* \"#utility.yul\":8808:8927   */\n    tag_287:\n        /* \"#utility.yul\":8966:8967   */\n      0x00\n        /* \"#utility.yul\":8991:9055   */\n      tag_289\n        /* \"#utility.yul\":9047:9054   */\n      dup5\n        /* \"#utility.yul\":9038:9044   */\n      dup3\n        /* \"#utility.yul\":9027:9036   */\n      dup6\n        /* \"#utility.yul\":9023:9045   */\n      add\n        /* \"#utility.yul\":8991:9055   */\n      tag_180\n      jump\t// in\n    tag_289:\n        /* \"#utility.yul\":8981:9055   */\n      swap2\n      pop\n        /* \"#utility.yul\":8937:9065   */\n      pop\n        /* \"#utility.yul\":8721:9072   */\n      swap3\n      swap2\n      pop\n      pop\n      jump\t// out\n        /* \"#utility.yul\":9078:9301   */\n    tag_181:\n        /* \"#utility.yul\":9218:9252   */\n      0x496e73756666696369656e742062616c616e636520696e2074686520636f6e74\n        /* \"#utility.yul\":9214:9215   */\n      0x00\n        /* \"#utility.yul\":9206:9212   */\n      dup3\n        /* \"#utility.yul\":9202:9216   */\n      add\n        /* \"#utility.yul\":9195:9253   */\n      mstore\n        /* \"#utility.yul\":9287:9293   */\n      0x7261637400000000000000000000000000000000000000000000000000000000\n        /* \"#utility.yul\":9282:9284   */\n      0x20\n        /* \"#utility.yul\":9274:9280   */\n      dup3\n        /* \"#utility.yul\":9270:9285   */\n      add\n        /* \"#utility.yul\":9263:9294   */\n      mstore\n        /* \"#utility.yul\":9078:9301   */\n      pop\n      jump\t// out\n        /* \"#utility.yul\":9307:9673   */\n    tag_182:\n        /* \"#utility.yul\":9449:9452   */\n      0x00\n        /* \"#utility.yul\":9470:9537   */\n      tag_292\n        /* \"#utility.yul\":9534:9536   */\n      0x24\n        /* \"#utility.yul\":9529:9532   */\n      dup4\n        /* \"#utility.yul\":9470:9537   */\n      tag_172\n      jump\t// in\n    tag_292:\n        /* \"#utility.yul\":9463:9537   */\n      swap2\n      pop\n        /* \"#utility.yul\":9546:9639   */\n      tag_293\n        /* \"#utility.yul\":9635:9638   */\n      dup3\n        /* \"#utility.yul\":9546:9639   */\n      tag_181\n      jump\t// in\n    tag_293:\n        /* \"#utility.yul\":9664:9666   */\n      0x40\n        /* \"#utility.yul\":9659:9662   */\n      dup3\n        /* \"#utility.yul\":9655:9667   */\n      add\n        /* \"#utility.yul\":9648:9667   */\n      swap1\n      pop\n        /* \"#utility.yul\":9307:9673   */\n      swap2\n      swap1\n      pop\n      jump\t// out\n        /* \"#utility.yul\":9679:10098   */\n    tag_73:\n        /* \"#utility.yul\":9845:9849   */\n      0x00\n        /* \"#utility.yul\":9883:9885   */\n      0x20\n        /* \"#utility.yul\":9872:9881   */\n      dup3\n        /* \"#utility.yul\":9868:9886   */\n      add\n        /* \"#utility.yul\":9860:9886   */\n      swap1\n      pop\n        /* \"#utility.yul\":9932:9941   */\n      dup2\n        /* \"#utility.yul\":9926:9930   */\n      dup2\n        /* \"#utility.yul\":9922:9942   */\n      sub\n        /* \"#utility.yul\":9918:9919   */\n      0x00\n        /* \"#utility.yul\":9907:9916   */\n      dup4\n        /* \"#utility.yul\":9903:9920   */\n      add\n        /* \"#utility.yul\":9896:9943   */\n      mstore\n        /* \"#utility.yul\":9960:10091   */\n      tag_295\n        /* \"#utility.yul\":10086:10090   */\n      dup2\n        /* \"#utility.yul\":9960:10091   */\n      tag_182\n      jump\t// in\n    tag_295:\n        /* \"#utility.yul\":9952:10091   */\n      swap1\n      pop\n        /* \"#utility.yul\":9679:10098   */\n      swap2\n      swap1\n      pop\n      jump\t// out\n        /* \"#utility.yul\":10104:10436   */\n    tag_75:\n        /* \"#utility.yul\":10225:10229   */\n      0x00\n        /* \"#utility.yul\":10263:10265   */\n      0x40\n        /* \"#utility.yul\":10252:10261   */\n      dup3\n        /* \"#utility.yul\":10248:10266   */\n      add\n        /* \"#utility.yul\":10240:10266   */\n      swap1\n      pop\n        /* \"#utility.yul\":10276:10347   */\n      tag_297\n        /* \"#utility.yul\":10344:10345   */\n      0x00\n        /* \"#utility.yul\":10333:10342   */\n      dup4\n        /* \"#utility.yul\":10329:10346   */\n      add\n        /* \"#utility.yul\":10320:10326   */\n      dup6\n        /* \"#utility.yul\":10276:10347   */\n      tag_161\n      jump\t// in\n    tag_297:\n        /* \"#utility.yul\":10357:10429   */\n      tag_298\n        /* \"#utility.yul\":10425:10427   */\n      0x20\n        /* \"#utility.yul\":10414:10423   */\n      dup4\n        /* \"#utility.yul\":10410:10428   */\n      add\n        /* \"#utility.yul\":10401:10407   */\n      dup5\n        /* \"#utility.yul\":10357:10429   */\n      tag_162\n      jump\t// in\n    tag_298:\n        /* \"#utility.yul\":10104:10436   */\n      swap4\n      swap3\n      pop\n      pop\n      pop\n      jump\t// out\n        /* \"#utility.yul\":10442:10558   */\n    tag_183:\n        /* \"#utility.yul\":10512:10533   */\n      tag_300\n        /* \"#utility.yul\":10527:10532   */\n      dup2\n        /* \"#utility.yul\":10512:10533   */\n      tag_163\n      jump\t// in\n    tag_300:\n        /* \"#utility.yul\":10505:10510   */\n      dup2\n        /* \"#utility.yul\":10502:10534   */\n      eq\n        /* \"#utility.yul\":10492:10552   */\n      tag_301\n      jumpi\n        /* \"#utility.yul\":10548:10549   */\n      0x00\n        /* \"#utility.yul\":10545:10546   */\n      dup1\n        /* \"#utility.yul\":10538:10550   */\n      revert\n        /* \"#utility.yul\":10492:10552   */\n    tag_301:\n        /* \"#utility.yul\":10442:10558   */\n      pop\n      jump\t// out\n        /* \"#utility.yul\":10564:10701   */\n    tag_184:\n        /* \"#utility.yul\":10618:10623   */\n      0x00\n        /* \"#utility.yul\":10649:10655   */\n      dup2\n        /* \"#utility.yul\":10643:10656   */\n      mload\n        /* \"#utility.yul\":10634:10656   */\n      swap1\n      pop\n        /* \"#utility.yul\":10665:10695   */\n      tag_303\n        /* \"#utility.yul\":10689:10694   */\n      dup2\n        /* \"#utility.yul\":10665:10695   */\n      tag_183\n      jump\t// in\n    tag_303:\n        /* \"#utility.yul\":10564:10701   */\n      swap3\n      swap2\n      pop\n      pop\n      jump\t// out\n        /* \"#utility.yul\":10707:11052   */\n    tag_79:\n        /* \"#utility.yul\":10774:10780   */\n      0x00\n        /* \"#utility.yul\":10823:10825   */\n      0x20\n        /* \"#utility.yul\":10811:10820   */\n      dup3\n        /* \"#utility.yul\":10802:10809   */\n      dup5\n        /* \"#utility.yul\":10798:10821   */\n      sub\n        /* \"#utility.yul\":10794:10826   */\n      slt\n        /* \"#utility.yul\":10791:10910   */\n      iszero\n      tag_305\n      jumpi\n        /* \"#utility.yul\":10829:10908   */\n      tag_306\n      tag_154\n      jump\t// in\n    tag_306:\n        /* \"#utility.yul\":10791:10910   */\n    tag_305:\n        /* \"#utility.yul\":10949:10950   */\n      0x00\n        /* \"#utility.yul\":10974:11035   */\n      tag_307\n        /* \"#utility.yul\":11027:11034   */\n      dup5\n        /* \"#utility.yul\":11018:11024   */\n      dup3\n        /* \"#utility.yul\":11007:11016   */\n      dup6\n        /* \"#utility.yul\":11003:11025   */\n      add\n        /* \"#utility.yul\":10974:11035   */\n      tag_184\n      jump\t// in\n    tag_307:\n        /* \"#utility.yul\":10964:11035   */\n      swap2\n      pop\n        /* \"#utility.yul\":10920:11045   */\n      pop\n        /* \"#utility.yul\":10707:11052   */\n      swap3\n      swap2\n      pop\n      pop\n      jump\t// out\n        /* \"#utility.yul\":11058:11229   */\n    tag_185:\n        /* \"#utility.yul\":11198:11221   */\n      0x546f6b656e207472616e73666572206661696c65640000000000000000000000\n        /* \"#utility.yul\":11194:11195   */\n      0x00\n        /* \"#utility.yul\":11186:11192   */\n      dup3\n        /* \"#utility.yul\":11182:11196   */\n      add\n        /* \"#utility.yul\":11175:11222   */\n      mstore\n        /* \"#utility.yul\":11058:11229   */\n      pop\n      jump\t// out\n        /* \"#utility.yul\":11235:11601   */\n    tag_186:\n        /* \"#utility.yul\":11377:11380   */\n      0x00\n        /* \"#utility.yul\":11398:11465   */\n      tag_310\n        /* \"#utility.yul\":11462:11464   */\n      0x15\n        /* \"#utility.yul\":11457:11460   */\n      dup4\n        /* \"#utility.yul\":11398:11465   */\n      tag_172\n      jump\t// in\n    tag_310:\n        /* \"#utility.yul\":11391:11465   */\n      swap2\n      pop\n        /* \"#utility.yul\":11474:11567   */\n      tag_311\n        /* \"#utility.yul\":11563:11566   */\n      dup3\n        /* \"#utility.yul\":11474:11567   */\n      tag_185\n      jump\t// in\n    tag_311:\n        /* \"#utility.yul\":11592:11594   */\n      0x20\n        /* \"#utility.yul\":11587:11590   */\n      dup3\n        /* \"#utility.yul\":11583:11595   */\n      add\n        /* \"#utility.yul\":11576:11595   */\n      swap1\n      pop\n        /* \"#utility.yul\":11235:11601   */\n      swap2\n      swap1\n      pop\n      jump\t// out\n        /* \"#utility.yul\":11607:12026   */\n    tag_82:\n        /* \"#utility.yul\":11773:11777   */\n      0x00\n        /* \"#utility.yul\":11811:11813   */\n      0x20\n        /* \"#utility.yul\":11800:11809   */\n      dup3\n        /* \"#utility.yul\":11796:11814   */\n      add\n        /* \"#utility.yul\":11788:11814   */\n      swap1\n      pop\n        /* \"#utility.yul\":11860:11869   */\n      dup2\n        /* \"#utility.yul\":11854:11858   */\n      dup2\n        /* \"#utility.yul\":11850:11870   */\n      sub\n        /* \"#utility.yul\":11846:11847   */\n      0x00\n        /* \"#utility.yul\":11835:11844   */\n      dup4\n        /* \"#utility.yul\":11831:11848   */\n      add\n        /* \"#utility.yul\":11824:11871   */\n      mstore\n        /* \"#utility.yul\":11888:12019   */\n      tag_313\n        /* \"#utility.yul\":12014:12018   */\n      dup2\n        /* \"#utility.yul\":11888:12019   */\n      tag_186\n      jump\t// in\n    tag_313:\n        /* \"#utility.yul\":11880:12019   */\n      swap1\n      pop\n        /* \"#utility.yul\":11607:12026   */\n      swap2\n      swap1\n      pop\n      jump\t// out\n        /* \"#utility.yul\":12032:12260   */\n    tag_187:\n        /* \"#utility.yul\":12172:12206   */\n      0x4f776e61626c6532537465703a2063616c6c6572206973206e6f742074686520\n        /* \"#utility.yul\":12168:12169   */\n      0x00\n        /* \"#utility.yul\":12160:12166   */\n      dup3\n        /* \"#utility.yul\":12156:12170   */\n      add\n        /* \"#utility.yul\":12149:12207   */\n      mstore\n        /* \"#utility.yul\":12241:12252   */\n      0x6e6577206f776e65720000000000000000000000000000000000000000000000\n        /* \"#utility.yul\":12236:12238   */\n      0x20\n        /* \"#utility.yul\":12228:12234   */\n      dup3\n        /* \"#utility.yul\":12224:12239   */\n      add\n        /* \"#utility.yul\":12217:12253   */\n      mstore\n        /* \"#utility.yul\":12032:12260   */\n      pop\n      jump\t// out\n        /* \"#utility.yul\":12266:12632   */\n    tag_188:\n        /* \"#utility.yul\":12408:12411   */\n      0x00\n        /* \"#utility.yul\":12429:12496   */\n      tag_316\n        /* \"#utility.yul\":12493:12495   */\n      0x29\n        /* \"#utility.yul\":12488:12491   */\n      dup4\n        /* \"#utility.yul\":12429:12496   */\n      tag_172\n      jump\t// in\n    tag_316:\n        /* \"#utility.yul\":12422:12496   */\n      swap2\n      pop\n        /* \"#utility.yul\":12505:12598   */\n      tag_317\n        /* \"#utility.yul\":12594:12597   */\n      dup3\n        /* \"#utility.yul\":12505:12598   */\n      tag_187\n      jump\t// in\n    tag_317:\n        /* \"#utility.yul\":12623:12625   */\n      0x40\n        /* \"#utility.yul\":12618:12621   */\n      dup3\n        /* \"#utility.yul\":12614:12626   */\n      add\n        /* \"#utility.yul\":12607:12626   */\n      swap1\n      pop\n        /* \"#utility.yul\":12266:12632   */\n      swap2\n      swap1\n      pop\n      jump\t// out\n        /* \"#utility.yul\":12638:13057   */\n    tag_96:\n        /* \"#utility.yul\":12804:12808   */\n      0x00\n        /* \"#utility.yul\":12842:12844   */\n      0x20\n        /* \"#utility.yul\":12831:12840   */\n      dup3\n        /* \"#utility.yul\":12827:12845   */\n      add\n        /* \"#utility.yul\":12819:12845   */\n      swap1\n      pop\n        /* \"#utility.yul\":12891:12900   */\n      dup2\n        /* \"#utility.yul\":12885:12889   */\n      dup2\n        /* \"#utility.yul\":12881:12901   */\n      sub\n        /* \"#utility.yul\":12877:12878   */\n      0x00\n        /* \"#utility.yul\":12866:12875   */\n      dup4\n        /* \"#utility.yul\":12862:12879   */\n      add\n        /* \"#utility.yul\":12855:12902   */\n      mstore\n        /* \"#utility.yul\":12919:13050   */\n      tag_319\n        /* \"#utility.yul\":13045:13049   */\n      dup2\n        /* \"#utility.yul\":12919:13050   */\n      tag_188\n      jump\t// in\n    tag_319:\n        /* \"#utility.yul\":12911:13050   */\n      swap1\n      pop\n        /* \"#utility.yul\":12638:13057   */\n      swap2\n      swap1\n      pop\n      jump\t// out\n        /* \"#utility.yul\":13063:13298   */\n    tag_189:\n        /* \"#utility.yul\":13203:13237   */\n      0x46756e64732063616e6e6f7420626520726566756e646564206265666f726520\n        /* \"#utility.yul\":13199:13200   */\n      0x00\n        /* \"#utility.yul\":13191:13197   */\n      dup3\n        /* \"#utility.yul\":13187:13201   */\n      add\n        /* \"#utility.yul\":13180:13238   */\n      mstore\n        /* \"#utility.yul\":13272:13290   */\n      0x7468652072656c656173652074696d6500000000000000000000000000000000\n        /* \"#utility.yul\":13267:13269   */\n      0x20\n        /* \"#utility.yul\":13259:13265   */\n      dup3\n        /* \"#utility.yul\":13255:13270   */\n      add\n        /* \"#utility.yul\":13248:13291   */\n      mstore\n        /* \"#utility.yul\":13063:13298   */\n      pop\n      jump\t// out\n        /* \"#utility.yul\":13304:13670   */\n    tag_190:\n        /* \"#utility.yul\":13446:13449   */\n      0x00\n        /* \"#utility.yul\":13467:13534   */\n      tag_322\n        /* \"#utility.yul\":13531:13533   */\n      0x30\n        /* \"#utility.yul\":13526:13529   */\n      dup4\n        /* \"#utility.yul\":13467:13534   */\n      tag_172\n      jump\t// in\n    tag_322:\n        /* \"#utility.yul\":13460:13534   */\n      swap2\n      pop\n        /* \"#utility.yul\":13543:13636   */\n      tag_323\n        /* \"#utility.yul\":13632:13635   */\n      dup3\n        /* \"#utility.yul\":13543:13636   */\n      tag_189\n      jump\t// in\n    tag_323:\n        /* \"#utility.yul\":13661:13663   */\n      0x40\n        /* \"#utility.yul\":13656:13659   */\n      dup3\n        /* \"#utility.yul\":13652:13664   */\n      add\n        /* \"#utility.yul\":13645:13664   */\n      swap1\n      pop\n        /* \"#utility.yul\":13304:13670   */\n      swap2\n      swap1\n      pop\n      jump\t// out\n        /* \"#utility.yul\":13676:14095   */\n    tag_106:\n        /* \"#utility.yul\":13842:13846   */\n      0x00\n        /* \"#utility.yul\":13880:13882   */\n      0x20\n        /* \"#utility.yul\":13869:13878   */\n      dup3\n        /* \"#utility.yul\":13865:13883   */\n      add\n        /* \"#utility.yul\":13857:13883   */\n      swap1\n      pop\n        /* \"#utility.yul\":13929:13938   */\n      dup2\n        /* \"#utility.yul\":13923:13927   */\n      dup2\n        /* \"#utility.yul\":13919:13939   */\n      sub\n        /* \"#utility.yul\":13915:13916   */\n      0x00\n        /* \"#utility.yul\":13904:13913   */\n      dup4\n        /* \"#utility.yul\":13900:13917   */\n      add\n        /* \"#utility.yul\":13893:13940   */\n      mstore\n        /* \"#utility.yul\":13957:14088   */\n      tag_325\n        /* \"#utility.yul\":14083:14087   */\n      dup2\n        /* \"#utility.yul\":13957:14088   */\n      tag_190\n      jump\t// in\n    tag_325:\n        /* \"#utility.yul\":13949:14088   */\n      swap1\n      pop\n        /* \"#utility.yul\":13676:14095   */\n      swap2\n      swap1\n      pop\n      jump\t// out\n        /* \"#utility.yul\":14101:14322   */\n    tag_191:\n        /* \"#utility.yul\":14241:14275   */\n      0x52656c656173652074696d65206d75737420626520696e207468652066757475\n        /* \"#utility.yul\":14237:14238   */\n      0x00\n        /* \"#utility.yul\":14229:14235   */\n      dup3\n        /* \"#utility.yul\":14225:14239   */\n      add\n        /* \"#utility.yul\":14218:14276   */\n      mstore\n        /* \"#utility.yul\":14310:14314   */\n      0x7265000000000000000000000000000000000000000000000000000000000000\n        /* \"#utility.yul\":14305:14307   */\n      0x20\n        /* \"#utility.yul\":14297:14303   */\n      dup3\n        /* \"#utility.yul\":14293:14308   */\n      add\n        /* \"#utility.yul\":14286:14315   */\n      mstore\n        /* \"#utility.yul\":14101:14322   */\n      pop\n      jump\t// out\n        /* \"#utility.yul\":14328:14694   */\n    tag_192:\n        /* \"#utility.yul\":14470:14473   */\n      0x00\n        /* \"#utility.yul\":14491:14558   */\n      tag_328\n        /* \"#utility.yul\":14555:14557   */\n      0x22\n        /* \"#utility.yul\":14550:14553   */\n      dup4\n        /* \"#utility.yul\":14491:14558   */\n      tag_172\n      jump\t// in\n    tag_328:\n        /* \"#utility.yul\":14484:14558   */\n      swap2\n      pop\n        /* \"#utility.yul\":14567:14660   */\n      tag_329\n        /* \"#utility.yul\":14656:14659   */\n      dup3\n        /* \"#utility.yul\":14567:14660   */\n      tag_191\n      jump\t// in\n    tag_329:\n        /* \"#utility.yul\":14685:14687   */\n      0x40\n        /* \"#utility.yul\":14680:14683   */\n      dup3\n        /* \"#utility.yul\":14676:14688   */\n      add\n        /* \"#utility.yul\":14669:14688   */\n      swap1\n      pop\n        /* \"#utility.yul\":14328:14694   */\n      swap2\n      swap1\n      pop\n      jump\t// out\n        /* \"#utility.yul\":14700:15119   */\n    tag_123:\n        /* \"#utility.yul\":14866:14870   */\n      0x00\n        /* \"#utility.yul\":14904:14906   */\n      0x20\n        /* \"#utility.yul\":14893:14902   */\n      dup3\n        /* \"#utility.yul\":14889:14907   */\n      add\n        /* \"#utility.yul\":14881:14907   */\n      swap1\n      pop\n        /* \"#utility.yul\":14953:14962   */\n      dup2\n        /* \"#utility.yul\":14947:14951   */\n      dup2\n        /* \"#utility.yul\":14943:14963   */\n      sub\n        /* \"#utility.yul\":14939:14940   */\n      0x00\n        /* \"#utility.yul\":14928:14937   */\n      dup4\n        /* \"#utility.yul\":14924:14941   */\n      add\n        /* \"#utility.yul\":14917:14964   */\n      mstore\n        /* \"#utility.yul\":14981:15112   */\n      tag_331\n        /* \"#utility.yul\":15107:15111   */\n      dup2\n        /* \"#utility.yul\":14981:15112   */\n      tag_192\n      jump\t// in\n    tag_331:\n        /* \"#utility.yul\":14973:15112   */\n      swap1\n      pop\n        /* \"#utility.yul\":14700:15119   */\n      swap2\n      swap1\n      pop\n      jump\t// out\n        /* \"#utility.yul\":15125:15304   */\n    tag_193:\n        /* \"#utility.yul\":15265:15296   */\n      0x416d6f756e74206d7573742062652067726561746572207468616e2030000000\n        /* \"#utility.yul\":15261:15262   */\n      0x00\n        /* \"#utility.yul\":15253:15259   */\n      dup3\n        /* \"#utility.yul\":15249:15263   */\n      add\n        /* \"#utility.yul\":15242:15297   */\n      mstore\n        /* \"#utility.yul\":15125:15304   */\n      pop\n      jump\t// out\n        /* \"#utility.yul\":15310:15676   */\n    tag_194:\n        /* \"#utility.yul\":15452:15455   */\n      0x00\n        /* \"#utility.yul\":15473:15540   */\n      tag_334\n        /* \"#utility.yul\":15537:15539   */\n      0x1d\n        /* \"#utility.yul\":15532:15535   */\n      dup4\n        /* \"#utility.yul\":15473:15540   */\n      tag_172\n      jump\t// in\n    tag_334:\n        /* \"#utility.yul\":15466:15540   */\n      swap2\n      pop\n        /* \"#utility.yul\":15549:15642   */\n      tag_335\n        /* \"#utility.yul\":15638:15641   */\n      dup3\n        /* \"#utility.yul\":15549:15642   */\n      tag_193\n      jump\t// in\n    tag_335:\n        /* \"#utility.yul\":15667:15669   */\n      0x20\n        /* \"#utility.yul\":15662:15665   */\n      dup3\n        /* \"#utility.yul\":15658:15670   */\n      add\n        /* \"#utility.yul\":15651:15670   */\n      swap1\n      pop\n        /* \"#utility.yul\":15310:15676   */\n      swap2\n      swap1\n      pop\n      jump\t// out\n        /* \"#utility.yul\":15682:16101   */\n    tag_126:\n        /* \"#utility.yul\":15848:15852   */\n      0x00\n        /* \"#utility.yul\":15886:15888   */\n      0x20\n        /* \"#utility.yul\":15875:15884   */\n      dup3\n        /* \"#utility.yul\":15871:15889   */\n      add\n        /* \"#utility.yul\":15863:15889   */\n      swap1\n      pop\n        /* \"#utility.yul\":15935:15944   */\n      dup2\n        /* \"#utility.yul\":15929:15933   */\n      dup2\n        /* \"#utility.yul\":15925:15945   */\n      sub\n        /* \"#utility.yul\":15921:15922   */\n      0x00\n        /* \"#utility.yul\":15910:15919   */\n      dup4\n        /* \"#utility.yul\":15906:15923   */\n      add\n        /* \"#utility.yul\":15899:15946   */\n      mstore\n        /* \"#utility.yul\":15963:16094   */\n      tag_337\n        /* \"#utility.yul\":16089:16093   */\n      dup2\n        /* \"#utility.yul\":15963:16094   */\n      tag_194\n      jump\t// in\n    tag_337:\n        /* \"#utility.yul\":15955:16094   */\n      swap1\n      pop\n        /* \"#utility.yul\":15682:16101   */\n      swap2\n      swap1\n      pop\n      jump\t// out\n        /* \"#utility.yul\":16107:16549   */\n    tag_128:\n        /* \"#utility.yul\":16256:16260   */\n      0x00\n        /* \"#utility.yul\":16294:16296   */\n      0x60\n        /* \"#utility.yul\":16283:16292   */\n      dup3\n        /* \"#utility.yul\":16279:16297   */\n      add\n        /* \"#utility.yul\":16271:16297   */\n      swap1\n      pop\n        /* \"#utility.yul\":16307:16378   */\n      tag_339\n        /* \"#utility.yul\":16375:16376   */\n      0x00\n        /* \"#utility.yul\":16364:16373   */\n      dup4\n        /* \"#utility.yul\":16360:16377   */\n      add\n        /* \"#utility.yul\":16351:16357   */\n      dup7\n        /* \"#utility.yul\":16307:16378   */\n      tag_161\n      jump\t// in\n    tag_339:\n        /* \"#utility.yul\":16388:16460   */\n      tag_340\n        /* \"#utility.yul\":16456:16458   */\n      0x20\n        /* \"#utility.yul\":16445:16454   */\n      dup4\n        /* \"#utility.yul\":16441:16459   */\n      add\n        /* \"#utility.yul\":16432:16438   */\n      dup6\n        /* \"#utility.yul\":16388:16460   */\n      tag_161\n      jump\t// in\n    tag_340:\n        /* \"#utility.yul\":16470:16542   */\n      tag_341\n        /* \"#utility.yul\":16538:16540   */\n      0x40\n        /* \"#utility.yul\":16527:16536   */\n      dup4\n        /* \"#utility.yul\":16523:16541   */\n      add\n        /* \"#utility.yul\":16514:16520   */\n      dup5\n        /* \"#utility.yul\":16470:16542   */\n      tag_162\n      jump\t// in\n    tag_341:\n        /* \"#utility.yul\":16107:16549   */\n      swap5\n      swap4\n      pop\n      pop\n      pop\n      pop\n      jump\t// out\n        /* \"#utility.yul\":16555:16788   */\n    tag_136:\n        /* \"#utility.yul\":16594:16597   */\n      0x00\n        /* \"#utility.yul\":16617:16641   */\n      tag_343\n        /* \"#utility.yul\":16635:16640   */\n      dup3\n        /* \"#utility.yul\":16617:16641   */\n      tag_156\n      jump\t// in\n    tag_343:\n        /* \"#utility.yul\":16608:16641   */\n      swap2\n      pop\n        /* \"#utility.yul\":16663:16729   */\n      0xffffffffffffffffffffffffffffffffffffffffffffffffffffffffffffffff\n        /* \"#utility.yul\":16656:16661   */\n      dup3\n        /* \"#utility.yul\":16653:16730   */\n      sub\n        /* \"#utility.yul\":16650:16753   */\n      tag_344\n      jumpi\n        /* \"#utility.yul\":16733:16751   */\n      tag_345\n      tag_177\n      jump\t// in\n    tag_345:\n        /* \"#utility.yul\":16650:16753   */\n    tag_344:\n        /* \"#utility.yul\":16780:16781   */\n      0x01\n        /* \"#utility.yul\":16773:16778   */\n      dup3\n        /* \"#utility.yul\":16769:16782   */\n      add\n        /* \"#utility.yul\":16762:16782   */\n      swap1\n      pop\n        /* \"#utility.yul\":16555:16788   */\n      swap2\n      swap1\n      pop\n      jump\t// out\n        /* \"#utility.yul\":16794:16976   */\n    tag_195:\n        /* \"#utility.yul\":16934:16968   */\n      0x4f776e61626c653a2063616c6c6572206973206e6f7420746865206f776e6572\n        /* \"#utility.yul\":16930:16931   */\n      0x00\n        /* \"#utility.yul\":16922:16928   */\n      dup3\n        /* \"#utility.yul\":16918:16932   */\n      add\n        /* \"#utility.yul\":16911:16969   */\n      mstore\n        /* \"#utility.yul\":16794:16976   */\n      pop\n      jump\t// out\n        /* \"#utility.yul\":16982:17348   */\n    tag_196:\n        /* \"#utility.yul\":17124:17127   */\n      0x00\n        /* \"#utility.yul\":17145:17212   */\n      tag_348\n        /* \"#utility.yul\":17209:17211   */\n      0x20\n        /* \"#utility.yul\":17204:17207   */\n      dup4\n        /* \"#utility.yul\":17145:17212   */\n      tag_172\n      jump\t// in\n    tag_348:\n        /* \"#utility.yul\":17138:17212   */\n      swap2\n      pop\n        /* \"#utility.yul\":17221:17314   */\n      tag_349\n        /* \"#utility.yul\":17310:17313   */\n      dup3\n        /* \"#utility.yul\":17221:17314   */\n      tag_195\n      jump\t// in\n    tag_349:\n        /* \"#utility.yul\":17339:17341   */\n      0x20\n        /* \"#utility.yul\":17334:17337   */\n      dup3\n        /* \"#utility.yul\":17330:17342   */\n      add\n        /* \"#utility.yul\":17323:17342   */\n      swap1\n      pop\n        /* \"#utility.yul\":16982:17348   */\n      swap2\n      swap1\n      pop\n      jump\t// out\n        /* \"#utility.yul\":17354:17773   */\n    tag_147:\n        /* \"#utility.yul\":17520:17524   */\n      0x00\n        /* \"#utility.yul\":17558:17560   */\n      0x20\n        /* \"#utility.yul\":17547:17556   */\n      dup3\n        /* \"#utility.yul\":17543:17561   */\n      add\n        /* \"#utility.yul\":17535:17561   */\n      swap1\n      pop\n        /* \"#utility.yul\":17607:17616   */\n      dup2\n        /* \"#utility.yul\":17601:17605   */\n      dup2\n        /* \"#utility.yul\":17597:17617   */\n      sub\n        /* \"#utility.yul\":17593:17594   */\n      0x00\n        /* \"#utility.yul\":17582:17591   */\n      dup4\n        /* \"#utility.yul\":17578:17595   */\n      add\n        /* \"#utility.yul\":17571:17618   */\n      mstore\n        /* \"#utility.yul\":17635:17766   */\n      tag_351\n        /* \"#utility.yul\":17761:17765   */\n      dup2\n        /* \"#utility.yul\":17635:17766   */\n      tag_196\n      jump\t// in\n    tag_351:\n        /* \"#utility.yul\":17627:17766   */\n      swap1\n      pop\n        /* \"#utility.yul\":17354:17773   */\n      swap2\n      swap1\n      pop\n      jump\t// out\n\n    auxdata: 0xa264697066735822122048343c8c630f67dc4203781ffd87250661c2c4a8871db6d27b484b8929bdcc2864736f6c63430008150033\n}\n",
				"bytecode": {
					"linkReferences": {},
					"object": "608060405234801562000010575f80fd5b5060405162001ac238038062001ac2833981810160405281019062000036919062000202565b620000566200004a6200009d60201b60201c565b620000a460201b60201c565b8060025f6101000a81548173ffffffffffffffffffffffffffffffffffffffff021916908373ffffffffffffffffffffffffffffffffffffffff1602179055505062000232565b5f33905090565b60015f6101000a81549073ffffffffffffffffffffffffffffffffffffffff0219169055620000d981620000dc60201b60201c565b50565b5f805f9054906101000a900473ffffffffffffffffffffffffffffffffffffffff169050815f806101000a81548173ffffffffffffffffffffffffffffffffffffffff021916908373ffffffffffffffffffffffffffffffffffffffff1602179055508173ffffffffffffffffffffffffffffffffffffffff168173ffffffffffffffffffffffffffffffffffffffff167f8be0079c531659141344cd1fd0a4f28419497f9722a3daafe3b4186f6b6457e060405160405180910390a35050565b5f80fd5b5f73ffffffffffffffffffffffffffffffffffffffff82169050919050565b5f620001cc82620001a1565b9050919050565b620001de81620001c0565b8114620001e9575f80fd5b50565b5f81519050620001fc81620001d3565b92915050565b5f602082840312156200021a57620002196200019d565b5b5f6200022984828501620001ec565b91505092915050565b61188280620002405f395ff3fe608060405234801561000f575f80fd5b50600436106100a7575f3560e01c80638da5cb5b1161006f5780638da5cb5b1461012d578063b4050fc81461014b578063e2ecb31114610167578063e30c397814610183578063f2fde38b146101a1578063fc0c546a146101bd576100a7565b8063012f52ee146100ab5780632e1a7d4d146100df578063675ac67a146100fb578063715018a61461011957806379ba509714610123575b5f80fd5b6100c560048036038101906100c09190610f82565b6101db565b6040516100d6959493929190611015565b60405180910390f35b6100f960048036038101906100f49190610f82565b610257565b005b6101036105d6565b6040516101109190611066565b60405180910390f35b6101216105dc565b005b61012b6105ef565b005b61013561067b565b604051610142919061107f565b60405180910390f35b61016560048036038101906101609190610f82565b6106a2565b005b610181600480360381019061017c91906110c2565b6109ce565b005b61018b610cdc565b604051610198919061107f565b60405180910390f35b6101bb60048036038101906101b69190611112565b610d04565b005b6101c5610db0565b6040516101d29190611198565b60405180910390f35b6003602052805f5260405f205f91509050805f015f9054906101000a900473ffffffffffffffffffffffffffffffffffffffff1690806001015f9054906101000a900473ffffffffffffffffffffffffffffffffffffffff1690806002015490806003015490806004015f9054906101000a900460ff16905085565b5f60035f8381526020019081526020015f209050806004015f9054906101000a900460ff166102bb576040517f08c379a00000000000000000000000000000000000000000000000000000000081526004016102b29061120b565b60405180910390fd5b806001015f9054906101000a900473ffffffffffffffffffffffffffffffffffffffff1673ffffffffffffffffffffffffffffffffffffffff163373ffffffffffffffffffffffffffffffffffffffff161461034c576040517f08c379a000000000000000000000000000000000000000000000000000000000815260040161034390611299565b60405180910390fd5b6203f480816002015461035f91906112e4565b4210156103a1576040517f08c379a000000000000000000000000000000000000000000000000000000000815260040161039890611387565b60405180910390fd5b5f60025f9054906101000a900473ffffffffffffffffffffffffffffffffffffffff1673ffffffffffffffffffffffffffffffffffffffff166370a08231306040518263ffffffff1660e01b81526004016103fc919061107f565b602060405180830381865afa158015610417573d5f803e3d5ffd5b505050506040513d601f19601f8201168201806040525081019061043b91906113b9565b90508160030154811015610484576040517f08c379a000000000000000000000000000000000000000000000000000000000815260040161047b90611454565b60405180910390fd5b5f826004015f6101000a81548160ff02191690831515021790555060025f9054906101000a900473ffffffffffffffffffffffffffffffffffffffff1673ffffffffffffffffffffffffffffffffffffffff1663a9059cbb3384600301546040518363ffffffff1660e01b81526004016104ff929190611472565b6020604051808303815f875af115801561051b573d5f803e3d5ffd5b505050506040513d601f19601f8201168201806040525081019061053f91906114c3565b61057e576040517f08c379a000000000000000000000000000000000000000000000000000000000815260040161057590611538565b60405180910390fd5b3373ffffffffffffffffffffffffffffffffffffffff16837f37e8063b72a944a76de602f32b82fd8c2a1c6f99564c727ffaf913c7762cd42084600301546040516105c99190611066565b60405180910390a3505050565b60045481565b6105e4610dd5565b6105ed5f610e53565b565b5f6105f8610e83565b90508073ffffffffffffffffffffffffffffffffffffffff16610619610cdc565b73ffffffffffffffffffffffffffffffffffffffff161461066f576040517f08c379a0000000000000000000000000000000000000000000000000000000008152600401610666906115c6565b60405180910390fd5b61067881610e53565b50565b5f805f9054906101000a900473ffffffffffffffffffffffffffffffffffffffff16905090565b6106aa610dd5565b5f60035f8381526020019081526020015f209050806004015f9054906101000a900460ff1661070e576040517f08c379a00000000000000000000000000000000000000000000000000000000081526004016107059061120b565b60405180910390fd5b8060020154421015610755576040517f08c379a000000000000000000000000000000000000000000000000000000000815260040161074c90611654565b60405180910390fd5b5f60025f9054906101000a900473ffffffffffffffffffffffffffffffffffffffff1673ffffffffffffffffffffffffffffffffffffffff166370a08231306040518263ffffffff1660e01b81526004016107b0919061107f565b602060405180830381865afa1580156107cb573d5f803e3d5ffd5b505050506040513d601f19601f820116820180604052508101906107ef91906113b9565b90508160030154811015610838576040517f08c379a000000000000000000000000000000000000000000000000000000000815260040161082f90611454565b60405180910390fd5b5f826004015f6101000a81548160ff02191690831515021790555060025f9054906101000a900473ffffffffffffffffffffffffffffffffffffffff1673ffffffffffffffffffffffffffffffffffffffff1663a9059cbb835f015f9054906101000a900473ffffffffffffffffffffffffffffffffffffffff1684600301546040518363ffffffff1660e01b81526004016108d5929190611472565b6020604051808303815f875af11580156108f1573d5f803e3d5ffd5b505050506040513d601f19601f8201168201806040525081019061091591906114c3565b610954576040517f08c379a000000000000000000000000000000000000000000000000000000000815260040161094b90611538565b60405180910390fd5b815f015f9054906101000a900473ffffffffffffffffffffffffffffffffffffffff1673ffffffffffffffffffffffffffffffffffffffff16837f37e8063b72a944a76de602f32b82fd8c2a1c6f99564c727ffaf913c7762cd42084600301546040516109c19190611066565b60405180910390a3505050565b428211610a10576040517f08c379a0000000000000000000000000000000000000000000000000000000008152600401610a07906116e2565b60405180910390fd5b5f8111610a52576040517f08c379a0000000000000000000000000000000000000000000000000000000008152600401610a499061174a565b60405180910390fd5b60025f9054906101000a900473ffffffffffffffffffffffffffffffffffffffff1673ffffffffffffffffffffffffffffffffffffffff166323b872dd3330846040518463ffffffff1660e01b8152600401610ab093929190611768565b6020604051808303815f875af1158015610acc573d5f803e3d5ffd5b505050506040513d601f19601f82011682018060405250810190610af091906114c3565b610b2f576040517f08c379a0000000000000000000000000000000000000000000000000000000008152600401610b2690611538565b60405180910390fd5b6040518060a001604052803373ffffffffffffffffffffffffffffffffffffffff1681526020018473ffffffffffffffffffffffffffffffffffffffff1681526020018381526020018281526020016001151581525060035f60045481526020019081526020015f205f820151815f015f6101000a81548173ffffffffffffffffffffffffffffffffffffffff021916908373ffffffffffffffffffffffffffffffffffffffff1602179055506020820151816001015f6101000a81548173ffffffffffffffffffffffffffffffffffffffff021916908373ffffffffffffffffffffffffffffffffffffffff16021790555060408201518160020155606082015181600301556080820151816004015f6101000a81548160ff0219169083151502179055509050508273ffffffffffffffffffffffffffffffffffffffff163373ffffffffffffffffffffffffffffffffffffffff166004547f9405ad0a6208539879349284d71265479b1623846f70303da1f9890d6e8c10a784604051610cb89190611066565b60405180910390a460045f815480929190610cd29061179d565b9190505550505050565b5f60015f9054906101000a900473ffffffffffffffffffffffffffffffffffffffff16905090565b610d0c610dd5565b8060015f6101000a81548173ffffffffffffffffffffffffffffffffffffffff021916908373ffffffffffffffffffffffffffffffffffffffff1602179055508073ffffffffffffffffffffffffffffffffffffffff16610d6b61067b565b73ffffffffffffffffffffffffffffffffffffffff167f38d16b8cac22d99fc7c124b9cd0de2d3fa1faef420bfe791d8c362d765e2270060405160405180910390a350565b60025f9054906101000a900473ffffffffffffffffffffffffffffffffffffffff1681565b610ddd610e83565b73ffffffffffffffffffffffffffffffffffffffff16610dfb61067b565b73ffffffffffffffffffffffffffffffffffffffff1614610e51576040517f08c379a0000000000000000000000000000000000000000000000000000000008152600401610e489061182e565b60405180910390fd5b565b60015f6101000a81549073ffffffffffffffffffffffffffffffffffffffff0219169055610e8081610e8a565b50565b5f33905090565b5f805f9054906101000a900473ffffffffffffffffffffffffffffffffffffffff169050815f806101000a81548173ffffffffffffffffffffffffffffffffffffffff021916908373ffffffffffffffffffffffffffffffffffffffff1602179055508173ffffffffffffffffffffffffffffffffffffffff168173ffffffffffffffffffffffffffffffffffffffff167f8be0079c531659141344cd1fd0a4f28419497f9722a3daafe3b4186f6b6457e060405160405180910390a35050565b5f80fd5b5f819050919050565b610f6181610f4f565b8114610f6b575f80fd5b50565b5f81359050610f7c81610f58565b92915050565b5f60208284031215610f9757610f96610f4b565b5b5f610fa484828501610f6e565b91505092915050565b5f73ffffffffffffffffffffffffffffffffffffffff82169050919050565b5f610fd682610fad565b9050919050565b610fe681610fcc565b82525050565b610ff581610f4f565b82525050565b5f8115159050919050565b61100f81610ffb565b82525050565b5f60a0820190506110285f830188610fdd565b6110356020830187610fdd565b6110426040830186610fec565b61104f6060830185610fec565b61105c6080830184611006565b9695505050505050565b5f6020820190506110795f830184610fec565b92915050565b5f6020820190506110925f830184610fdd565b92915050565b6110a181610fcc565b81146110ab575f80fd5b50565b5f813590506110bc81611098565b92915050565b5f805f606084860312156110d9576110d8610f4b565b5b5f6110e6868287016110ae565b93505060206110f786828701610f6e565b925050604061110886828701610f6e565b9150509250925092565b5f6020828403121561112757611126610f4b565b5b5f611134848285016110ae565b91505092915050565b5f819050919050565b5f61116061115b61115684610fad565b61113d565b610fad565b9050919050565b5f61117182611146565b9050919050565b5f61118282611167565b9050919050565b61119281611178565b82525050565b5f6020820190506111ab5f830184611189565b92915050565b5f82825260208201905092915050565b7f457363726f77206973206e6f74206163746976650000000000000000000000005f82015250565b5f6111f56014836111b1565b9150611200826111c1565b602082019050919050565b5f6020820190508181035f830152611222816111e9565b9050919050565b7f4f6e6c79207468652073656c6c65722063616e2077697468647261772066756e5f8201527f6473000000000000000000000000000000000000000000000000000000000000602082015250565b5f6112836022836111b1565b915061128e82611229565b604082019050919050565b5f6020820190508181035f8301526112b081611277565b9050919050565b7f4e487b71000000000000000000000000000000000000000000000000000000005f52601160045260245ffd5b5f6112ee82610f4f565b91506112f983610f4f565b9250828201905080821115611311576113106112b7565b5b92915050565b7f46756e64732063616e6e6f742062652077697468647261776e206265666f72655f8201527f207468652072656c656173652074696d65000000000000000000000000000000602082015250565b5f6113716031836111b1565b915061137c82611317565b604082019050919050565b5f6020820190508181035f83015261139e81611365565b9050919050565b5f815190506113b381610f58565b92915050565b5f602082840312156113ce576113cd610f4b565b5b5f6113db848285016113a5565b91505092915050565b7f496e73756666696369656e742062616c616e636520696e2074686520636f6e745f8201527f7261637400000000000000000000000000000000000000000000000000000000602082015250565b5f61143e6024836111b1565b9150611449826113e4565b604082019050919050565b5f6020820190508181035f83015261146b81611432565b9050919050565b5f6040820190506114855f830185610fdd565b6114926020830184610fec565b9392505050565b6114a281610ffb565b81146114ac575f80fd5b50565b5f815190506114bd81611499565b92915050565b5f602082840312156114d8576114d7610f4b565b5b5f6114e5848285016114af565b91505092915050565b7f546f6b656e207472616e73666572206661696c656400000000000000000000005f82015250565b5f6115226015836111b1565b915061152d826114ee565b602082019050919050565b5f6020820190508181035f83015261154f81611516565b9050919050565b7f4f776e61626c6532537465703a2063616c6c6572206973206e6f7420746865205f8201527f6e6577206f776e65720000000000000000000000000000000000000000000000602082015250565b5f6115b06029836111b1565b91506115bb82611556565b604082019050919050565b5f6020820190508181035f8301526115dd816115a4565b9050919050565b7f46756e64732063616e6e6f7420626520726566756e646564206265666f7265205f8201527f7468652072656c656173652074696d6500000000000000000000000000000000602082015250565b5f61163e6030836111b1565b9150611649826115e4565b604082019050919050565b5f6020820190508181035f83015261166b81611632565b9050919050565b7f52656c656173652074696d65206d75737420626520696e2074686520667574755f8201527f7265000000000000000000000000000000000000000000000000000000000000602082015250565b5f6116cc6022836111b1565b91506116d782611672565b604082019050919050565b5f6020820190508181035f8301526116f9816116c0565b9050919050565b7f416d6f756e74206d7573742062652067726561746572207468616e20300000005f82015250565b5f611734601d836111b1565b915061173f82611700565b602082019050919050565b5f6020820190508181035f83015261176181611728565b9050919050565b5f60608201905061177b5f830186610fdd565b6117886020830185610fdd565b6117956040830184610fec565b949350505050565b5f6117a782610f4f565b91507fffffffffffffffffffffffffffffffffffffffffffffffffffffffffffffffff82036117d9576117d86112b7565b5b600182019050919050565b7f4f776e61626c653a2063616c6c6572206973206e6f7420746865206f776e65725f82015250565b5f6118186020836111b1565b9150611823826117e4565b602082019050919050565b5f6020820190508181035f8301526118458161180c565b905091905056fea264697066735822122048343c8c630f67dc4203781ffd87250661c2c4a8871db6d27b484b8929bdcc2864736f6c63430008150033",
					"opcodes": "PUSH1 0x80 PUSH1 0x40 MSTORE CALLVALUE DUP1 ISZERO PUSH3 0x10 JUMPI PUSH0 DUP1 REVERT JUMPDEST POP PUSH1 0x40 MLOAD PUSH3 0x1AC2 CODESIZE SUB DUP1 PUSH3 0x1AC2 DUP4 CODECOPY DUP2 DUP2 ADD PUSH1 0x40 MSTORE DUP2 ADD SWAP1 PUSH3 0x36 SWAP2 SWAP1 PUSH3 0x202 JUMP JUMPDEST PUSH3 0x56 PUSH3 0x4A PUSH3 0x9D PUSH1 0x20 SHL PUSH1 0x20 SHR JUMP JUMPDEST PUSH3 0xA4 PUSH1 0x20 SHL PUSH1 0x20 SHR JUMP JUMPDEST DUP1 PUSH1 0x2 PUSH0 PUSH2 0x100 EXP DUP2 SLOAD DUP2 PUSH20 0xFFFFFFFFFFFFFFFFFFFFFFFFFFFFFFFFFFFFFFFF MUL NOT AND SWAP1 DUP4 PUSH20 0xFFFFFFFFFFFFFFFFFFFFFFFFFFFFFFFFFFFFFFFF AND MUL OR SWAP1 SSTORE POP POP PUSH3 0x232 JUMP JUMPDEST PUSH0 CALLER SWAP1 POP SWAP1 JUMP JUMPDEST PUSH1 0x1 PUSH0 PUSH2 0x100 EXP DUP2 SLOAD SWAP1 PUSH20 0xFFFFFFFFFFFFFFFFFFFFFFFFFFFFFFFFFFFFFFFF MUL NOT AND SWAP1 SSTORE PUSH3 0xD9 DUP2 PUSH3 0xDC PUSH1 0x20 SHL PUSH1 0x20 SHR JUMP JUMPDEST POP JUMP JUMPDEST PUSH0 DUP1 PUSH0 SWAP1 SLOAD SWAP1 PUSH2 0x100 EXP SWAP1 DIV PUSH20 0xFFFFFFFFFFFFFFFFFFFFFFFFFFFFFFFFFFFFFFFF AND SWAP1 POP DUP2 PUSH0 DUP1 PUSH2 0x100 EXP DUP2 SLOAD DUP2 PUSH20 0xFFFFFFFFFFFFFFFFFFFFFFFFFFFFFFFFFFFFFFFF MUL NOT AND SWAP1 DUP4 PUSH20 0xFFFFFFFFFFFFFFFFFFFFFFFFFFFFFFFFFFFFFFFF AND MUL OR SWAP1 SSTORE POP DUP2 PUSH20 0xFFFFFFFFFFFFFFFFFFFFFFFFFFFFFFFFFFFFFFFF AND DUP2 PUSH20 0xFFFFFFFFFFFFFFFFFFFFFFFFFFFFFFFFFFFFFFFF AND PUSH32 0x8BE0079C531659141344CD1FD0A4F28419497F9722A3DAAFE3B4186F6B6457E0 PUSH1 0x40 MLOAD PUSH1 0x40 MLOAD DUP1 SWAP2 SUB SWAP1 LOG3 POP POP JUMP JUMPDEST PUSH0 DUP1 REVERT JUMPDEST PUSH0 PUSH20 0xFFFFFFFFFFFFFFFFFFFFFFFFFFFFFFFFFFFFFFFF DUP3 AND SWAP1 POP SWAP2 SWAP1 POP JUMP JUMPDEST PUSH0 PUSH3 0x1CC DUP3 PUSH3 0x1A1 JUMP JUMPDEST SWAP1 POP SWAP2 SWAP1 POP JUMP JUMPDEST PUSH3 0x1DE DUP2 PUSH3 0x1C0 JUMP JUMPDEST DUP2 EQ PUSH3 0x1E9 JUMPI PUSH0 DUP1 REVERT JUMPDEST POP JUMP JUMPDEST PUSH0 DUP2 MLOAD SWAP1 POP PUSH3 0x1FC DUP2 PUSH3 0x1D3 JUMP JUMPDEST SWAP3 SWAP2 POP POP JUMP JUMPDEST PUSH0 PUSH1 0x20 DUP3 DUP5 SUB SLT ISZERO PUSH3 0x21A JUMPI PUSH3 0x219 PUSH3 0x19D JUMP JUMPDEST JUMPDEST PUSH0 PUSH3 0x229 DUP5 DUP3 DUP6 ADD PUSH3 0x1EC JUMP JUMPDEST SWAP2 POP POP SWAP3 SWAP2 POP POP JUMP JUMPDEST PUSH2 0x1882 DUP1 PUSH3 0x240 PUSH0 CODECOPY PUSH0 RETURN INVALID PUSH1 0x80 PUSH1 0x40 MSTORE CALLVALUE DUP1 ISZERO PUSH2 0xF JUMPI PUSH0 DUP1 REVERT JUMPDEST POP PUSH1 0x4 CALLDATASIZE LT PUSH2 0xA7 JUMPI PUSH0 CALLDATALOAD PUSH1 0xE0 SHR DUP1 PUSH4 0x8DA5CB5B GT PUSH2 0x6F JUMPI DUP1 PUSH4 0x8DA5CB5B EQ PUSH2 0x12D JUMPI DUP1 PUSH4 0xB4050FC8 EQ PUSH2 0x14B JUMPI DUP1 PUSH4 0xE2ECB311 EQ PUSH2 0x167 JUMPI DUP1 PUSH4 0xE30C3978 EQ PUSH2 0x183 JUMPI DUP1 PUSH4 0xF2FDE38B EQ PUSH2 0x1A1 JUMPI DUP1 PUSH4 0xFC0C546A EQ PUSH2 0x1BD JUMPI PUSH2 0xA7 JUMP JUMPDEST DUP1 PUSH4 0x12F52EE EQ PUSH2 0xAB JUMPI DUP1 PUSH4 0x2E1A7D4D EQ PUSH2 0xDF JUMPI DUP1 PUSH4 0x675AC67A EQ PUSH2 0xFB JUMPI DUP1 PUSH4 0x715018A6 EQ PUSH2 0x119 JUMPI DUP1 PUSH4 0x79BA5097 EQ PUSH2 0x123 JUMPI JUMPDEST PUSH0 DUP1 REVERT JUMPDEST PUSH2 0xC5 PUSH1 0x4 DUP1 CALLDATASIZE SUB DUP2 ADD SWAP1 PUSH2 0xC0 SWAP2 SWAP1 PUSH2 0xF82 JUMP JUMPDEST PUSH2 0x1DB JUMP JUMPDEST PUSH1 0x40 MLOAD PUSH2 0xD6 SWAP6 SWAP5 SWAP4 SWAP3 SWAP2 SWAP1 PUSH2 0x1015 JUMP JUMPDEST PUSH1 0x40 MLOAD DUP1 SWAP2 SUB SWAP1 RETURN JUMPDEST PUSH2 0xF9 PUSH1 0x4 DUP1 CALLDATASIZE SUB DUP2 ADD SWAP1 PUSH2 0xF4 SWAP2 SWAP1 PUSH2 0xF82 JUMP JUMPDEST PUSH2 0x257 JUMP JUMPDEST STOP JUMPDEST PUSH2 0x103 PUSH2 0x5D6 JUMP JUMPDEST PUSH1 0x40 MLOAD PUSH2 0x110 SWAP2 SWAP1 PUSH2 0x1066 JUMP JUMPDEST PUSH1 0x40 MLOAD DUP1 SWAP2 SUB SWAP1 RETURN JUMPDEST PUSH2 0x121 PUSH2 0x5DC JUMP JUMPDEST STOP JUMPDEST PUSH2 0x12B PUSH2 0x5EF JUMP JUMPDEST STOP JUMPDEST PUSH2 0x135 PUSH2 0x67B JUMP JUMPDEST PUSH1 0x40 MLOAD PUSH2 0x142 SWAP2 SWAP1 PUSH2 0x107F JUMP JUMPDEST PUSH1 0x40 MLOAD DUP1 SWAP2 SUB SWAP1 RETURN JUMPDEST PUSH2 0x165 PUSH1 0x4 DUP1 CALLDATASIZE SUB DUP2 ADD SWAP1 PUSH2 0x160 SWAP2 SWAP1 PUSH2 0xF82 JUMP JUMPDEST PUSH2 0x6A2 JUMP JUMPDEST STOP JUMPDEST PUSH2 0x181 PUSH1 0x4 DUP1 CALLDATASIZE SUB DUP2 ADD SWAP1 PUSH2 0x17C SWAP2 SWAP1 PUSH2 0x10C2 JUMP JUMPDEST PUSH2 0x9CE JUMP JUMPDEST STOP JUMPDEST PUSH2 0x18B PUSH2 0xCDC JUMP JUMPDEST PUSH1 0x40 MLOAD PUSH2 0x198 SWAP2 SWAP1 PUSH2 0x107F JUMP JUMPDEST PUSH1 0x40 MLOAD DUP1 SWAP2 SUB SWAP1 RETURN JUMPDEST PUSH2 0x1BB PUSH1 0x4 DUP1 CALLDATASIZE SUB DUP2 ADD SWAP1 PUSH2 0x1B6 SWAP2 SWAP1 PUSH2 0x1112 JUMP JUMPDEST PUSH2 0xD04 JUMP JUMPDEST STOP JUMPDEST PUSH2 0x1C5 PUSH2 0xDB0 JUMP JUMPDEST PUSH1 0x40 MLOAD PUSH2 0x1D2 SWAP2 SWAP1 PUSH2 0x1198 JUMP JUMPDEST PUSH1 0x40 MLOAD DUP1 SWAP2 SUB SWAP1 RETURN JUMPDEST PUSH1 0x3 PUSH1 0x20 MSTORE DUP1 PUSH0 MSTORE PUSH1 0x40 PUSH0 KECCAK256 PUSH0 SWAP2 POP SWAP1 POP DUP1 PUSH0 ADD PUSH0 SWAP1 SLOAD SWAP1 PUSH2 0x100 EXP SWAP1 DIV PUSH20 0xFFFFFFFFFFFFFFFFFFFFFFFFFFFFFFFFFFFFFFFF AND SWAP1 DUP1 PUSH1 0x1 ADD PUSH0 SWAP1 SLOAD SWAP1 PUSH2 0x100 EXP SWAP1 DIV PUSH20 0xFFFFFFFFFFFFFFFFFFFFFFFFFFFFFFFFFFFFFFFF AND SWAP1 DUP1 PUSH1 0x2 ADD SLOAD SWAP1 DUP1 PUSH1 0x3 ADD SLOAD SWAP1 DUP1 PUSH1 0x4 ADD PUSH0 SWAP1 SLOAD SWAP1 PUSH2 0x100 EXP SWAP1 DIV PUSH1 0xFF AND SWAP1 POP DUP6 JUMP JUMPDEST PUSH0 PUSH1 0x3 PUSH0 DUP4 DUP2 MSTORE PUSH1 0x20 ADD SWAP1 DUP2 MSTORE PUSH1 0x20 ADD PUSH0 KECCAK256 SWAP1 POP DUP1 PUSH1 0x4 ADD PUSH0 SWAP1 SLOAD SWAP1 PUSH2 0x100 EXP SWAP1 DIV PUSH1 0xFF AND PUSH2 0x2BB JUMPI PUSH1 0x40 MLOAD PUSH32 0x8C379A000000000000000000000000000000000000000000000000000000000 DUP2 MSTORE PUSH1 0x4 ADD PUSH2 0x2B2 SWAP1 PUSH2 0x120B JUMP JUMPDEST PUSH1 0x40 MLOAD DUP1 SWAP2 SUB SWAP1 REVERT JUMPDEST DUP1 PUSH1 0x1 ADD PUSH0 SWAP1 SLOAD SWAP1 PUSH2 0x100 EXP SWAP1 DIV PUSH20 0xFFFFFFFFFFFFFFFFFFFFFFFFFFFFFFFFFFFFFFFF AND PUSH20 0xFFFFFFFFFFFFFFFFFFFFFFFFFFFFFFFFFFFFFFFF AND CALLER PUSH20 0xFFFFFFFFFFFFFFFFFFFFFFFFFFFFFFFFFFFFFFFF AND EQ PUSH2 0x34C JUMPI PUSH1 0x40 MLOAD PUSH32 0x8C379A000000000000000000000000000000000000000000000000000000000 DUP2 MSTORE PUSH1 0x4 ADD PUSH2 0x343 SWAP1 PUSH2 0x1299 JUMP JUMPDEST PUSH1 0x40 MLOAD DUP1 SWAP2 SUB SWAP1 REVERT JUMPDEST PUSH3 0x3F480 DUP2 PUSH1 0x2 ADD SLOAD PUSH2 0x35F SWAP2 SWAP1 PUSH2 0x12E4 JUMP JUMPDEST TIMESTAMP LT ISZERO PUSH2 0x3A1 JUMPI PUSH1 0x40 MLOAD PUSH32 0x8C379A000000000000000000000000000000000000000000000000000000000 DUP2 MSTORE PUSH1 0x4 ADD PUSH2 0x398 SWAP1 PUSH2 0x1387 JUMP JUMPDEST PUSH1 0x40 MLOAD DUP1 SWAP2 SUB SWAP1 REVERT JUMPDEST PUSH0 PUSH1 0x2 PUSH0 SWAP1 SLOAD SWAP1 PUSH2 0x100 EXP SWAP1 DIV PUSH20 0xFFFFFFFFFFFFFFFFFFFFFFFFFFFFFFFFFFFFFFFF AND PUSH20 0xFFFFFFFFFFFFFFFFFFFFFFFFFFFFFFFFFFFFFFFF AND PUSH4 0x70A08231 ADDRESS PUSH1 0x40 MLOAD DUP3 PUSH4 0xFFFFFFFF AND PUSH1 0xE0 SHL DUP2 MSTORE PUSH1 0x4 ADD PUSH2 0x3FC SWAP2 SWAP1 PUSH2 0x107F JUMP JUMPDEST PUSH1 0x20 PUSH1 0x40 MLOAD DUP1 DUP4 SUB DUP2 DUP7 GAS STATICCALL ISZERO DUP1 ISZERO PUSH2 0x417 JUMPI RETURNDATASIZE PUSH0 DUP1 RETURNDATACOPY RETURNDATASIZE PUSH0 REVERT JUMPDEST POP POP POP POP PUSH1 0x40 MLOAD RETURNDATASIZE PUSH1 0x1F NOT PUSH1 0x1F DUP3 ADD AND DUP3 ADD DUP1 PUSH1 0x40 MSTORE POP DUP2 ADD SWAP1 PUSH2 0x43B SWAP2 SWAP1 PUSH2 0x13B9 JUMP JUMPDEST SWAP1 POP DUP2 PUSH1 0x3 ADD SLOAD DUP2 LT ISZERO PUSH2 0x484 JUMPI PUSH1 0x40 MLOAD PUSH32 0x8C379A000000000000000000000000000000000000000000000000000000000 DUP2 MSTORE PUSH1 0x4 ADD PUSH2 0x47B SWAP1 PUSH2 0x1454 JUMP JUMPDEST PUSH1 0x40 MLOAD DUP1 SWAP2 SUB SWAP1 REVERT JUMPDEST PUSH0 DUP3 PUSH1 0x4 ADD PUSH0 PUSH2 0x100 EXP DUP2 SLOAD DUP2 PUSH1 0xFF MUL NOT AND SWAP1 DUP4 ISZERO ISZERO MUL OR SWAP1 SSTORE POP PUSH1 0x2 PUSH0 SWAP1 SLOAD SWAP1 PUSH2 0x100 EXP SWAP1 DIV PUSH20 0xFFFFFFFFFFFFFFFFFFFFFFFFFFFFFFFFFFFFFFFF AND PUSH20 0xFFFFFFFFFFFFFFFFFFFFFFFFFFFFFFFFFFFFFFFF AND PUSH4 0xA9059CBB CALLER DUP5 PUSH1 0x3 ADD SLOAD PUSH1 0x40 MLOAD DUP4 PUSH4 0xFFFFFFFF AND PUSH1 0xE0 SHL DUP2 MSTORE PUSH1 0x4 ADD PUSH2 0x4FF SWAP3 SWAP2 SWAP1 PUSH2 0x1472 JUMP JUMPDEST PUSH1 0x20 PUSH1 0x40 MLOAD DUP1 DUP4 SUB DUP2 PUSH0 DUP8 GAS CALL ISZERO DUP1 ISZERO PUSH2 0x51B JUMPI RETURNDATASIZE PUSH0 DUP1 RETURNDATACOPY RETURNDATASIZE PUSH0 REVERT JUMPDEST POP POP POP POP PUSH1 0x40 MLOAD RETURNDATASIZE PUSH1 0x1F NOT PUSH1 0x1F DUP3 ADD AND DUP3 ADD DUP1 PUSH1 0x40 MSTORE POP DUP2 ADD SWAP1 PUSH2 0x53F SWAP2 SWAP1 PUSH2 0x14C3 JUMP JUMPDEST PUSH2 0x57E JUMPI PUSH1 0x40 MLOAD PUSH32 0x8C379A000000000000000000000000000000000000000000000000000000000 DUP2 MSTORE PUSH1 0x4 ADD PUSH2 0x575 SWAP1 PUSH2 0x1538 JUMP JUMPDEST PUSH1 0x40 MLOAD DUP1 SWAP2 SUB SWAP1 REVERT JUMPDEST CALLER PUSH20 0xFFFFFFFFFFFFFFFFFFFFFFFFFFFFFFFFFFFFFFFF AND DUP4 PUSH32 0x37E8063B72A944A76DE602F32B82FD8C2A1C6F99564C727FFAF913C7762CD420 DUP5 PUSH1 0x3 ADD SLOAD PUSH1 0x40 MLOAD PUSH2 0x5C9 SWAP2 SWAP1 PUSH2 0x1066 JUMP JUMPDEST PUSH1 0x40 MLOAD DUP1 SWAP2 SUB SWAP1 LOG3 POP POP POP JUMP JUMPDEST PUSH1 0x4 SLOAD DUP2 JUMP JUMPDEST PUSH2 0x5E4 PUSH2 0xDD5 JUMP JUMPDEST PUSH2 0x5ED PUSH0 PUSH2 0xE53 JUMP JUMPDEST JUMP JUMPDEST PUSH0 PUSH2 0x5F8 PUSH2 0xE83 JUMP JUMPDEST SWAP1 POP DUP1 PUSH20 0xFFFFFFFFFFFFFFFFFFFFFFFFFFFFFFFFFFFFFFFF AND PUSH2 0x619 PUSH2 0xCDC JUMP JUMPDEST PUSH20 0xFFFFFFFFFFFFFFFFFFFFFFFFFFFFFFFFFFFFFFFF AND EQ PUSH2 0x66F JUMPI PUSH1 0x40 MLOAD PUSH32 0x8C379A000000000000000000000000000000000000000000000000000000000 DUP2 MSTORE PUSH1 0x4 ADD PUSH2 0x666 SWAP1 PUSH2 0x15C6 JUMP JUMPDEST PUSH1 0x40 MLOAD DUP1 SWAP2 SUB SWAP1 REVERT JUMPDEST PUSH2 0x678 DUP2 PUSH2 0xE53 JUMP JUMPDEST POP JUMP JUMPDEST PUSH0 DUP1 PUSH0 SWAP1 SLOAD SWAP1 PUSH2 0x100 EXP SWAP1 DIV PUSH20 0xFFFFFFFFFFFFFFFFFFFFFFFFFFFFFFFFFFFFFFFF AND SWAP1 POP SWAP1 JUMP JUMPDEST PUSH2 0x6AA PUSH2 0xDD5 JUMP JUMPDEST PUSH0 PUSH1 0x3 PUSH0 DUP4 DUP2 MSTORE PUSH1 0x20 ADD SWAP1 DUP2 MSTORE PUSH1 0x20 ADD PUSH0 KECCAK256 SWAP1 POP DUP1 PUSH1 0x4 ADD PUSH0 SWAP1 SLOAD SWAP1 PUSH2 0x100 EXP SWAP1 DIV PUSH1 0xFF AND PUSH2 0x70E JUMPI PUSH1 0x40 MLOAD PUSH32 0x8C379A000000000000000000000000000000000000000000000000000000000 DUP2 MSTORE PUSH1 0x4 ADD PUSH2 0x705 SWAP1 PUSH2 0x120B JUMP JUMPDEST PUSH1 0x40 MLOAD DUP1 SWAP2 SUB SWAP1 REVERT JUMPDEST DUP1 PUSH1 0x2 ADD SLOAD TIMESTAMP LT ISZERO PUSH2 0x755 JUMPI PUSH1 0x40 MLOAD PUSH32 0x8C379A000000000000000000000000000000000000000000000000000000000 DUP2 MSTORE PUSH1 0x4 ADD PUSH2 0x74C SWAP1 PUSH2 0x1654 JUMP JUMPDEST PUSH1 0x40 MLOAD DUP1 SWAP2 SUB SWAP1 REVERT JUMPDEST PUSH0 PUSH1 0x2 PUSH0 SWAP1 SLOAD SWAP1 PUSH2 0x100 EXP SWAP1 DIV PUSH20 0xFFFFFFFFFFFFFFFFFFFFFFFFFFFFFFFFFFFFFFFF AND PUSH20 0xFFFFFFFFFFFFFFFFFFFFFFFFFFFFFFFFFFFFFFFF AND PUSH4 0x70A08231 ADDRESS PUSH1 0x40 MLOAD DUP3 PUSH4 0xFFFFFFFF AND PUSH1 0xE0 SHL DUP2 MSTORE PUSH1 0x4 ADD PUSH2 0x7B0 SWAP2 SWAP1 PUSH2 0x107F JUMP JUMPDEST PUSH1 0x20 PUSH1 0x40 MLOAD DUP1 DUP4 SUB DUP2 DUP7 GAS STATICCALL ISZERO DUP1 ISZERO PUSH2 0x7CB JUMPI RETURNDATASIZE PUSH0 DUP1 RETURNDATACOPY RETURNDATASIZE PUSH0 REVERT JUMPDEST POP POP POP POP PUSH1 0x40 MLOAD RETURNDATASIZE PUSH1 0x1F NOT PUSH1 0x1F DUP3 ADD AND DUP3 ADD DUP1 PUSH1 0x40 MSTORE POP DUP2 ADD SWAP1 PUSH2 0x7EF SWAP2 SWAP1 PUSH2 0x13B9 JUMP JUMPDEST SWAP1 POP DUP2 PUSH1 0x3 ADD SLOAD DUP2 LT ISZERO PUSH2 0x838 JUMPI PUSH1 0x40 MLOAD PUSH32 0x8C379A000000000000000000000000000000000000000000000000000000000 DUP2 MSTORE PUSH1 0x4 ADD PUSH2 0x82F SWAP1 PUSH2 0x1454 JUMP JUMPDEST PUSH1 0x40 MLOAD DUP1 SWAP2 SUB SWAP1 REVERT JUMPDEST PUSH0 DUP3 PUSH1 0x4 ADD PUSH0 PUSH2 0x100 EXP DUP2 SLOAD DUP2 PUSH1 0xFF MUL NOT AND SWAP1 DUP4 ISZERO ISZERO MUL OR SWAP1 SSTORE POP PUSH1 0x2 PUSH0 SWAP1 SLOAD SWAP1 PUSH2 0x100 EXP SWAP1 DIV PUSH20 0xFFFFFFFFFFFFFFFFFFFFFFFFFFFFFFFFFFFFFFFF AND PUSH20 0xFFFFFFFFFFFFFFFFFFFFFFFFFFFFFFFFFFFFFFFF AND PUSH4 0xA9059CBB DUP4 PUSH0 ADD PUSH0 SWAP1 SLOAD SWAP1 PUSH2 0x100 EXP SWAP1 DIV PUSH20 0xFFFFFFFFFFFFFFFFFFFFFFFFFFFFFFFFFFFFFFFF AND DUP5 PUSH1 0x3 ADD SLOAD PUSH1 0x40 MLOAD DUP4 PUSH4 0xFFFFFFFF AND PUSH1 0xE0 SHL DUP2 MSTORE PUSH1 0x4 ADD PUSH2 0x8D5 SWAP3 SWAP2 SWAP1 PUSH2 0x1472 JUMP JUMPDEST PUSH1 0x20 PUSH1 0x40 MLOAD DUP1 DUP4 SUB DUP2 PUSH0 DUP8 GAS CALL ISZERO DUP1 ISZERO PUSH2 0x8F1 JUMPI RETURNDATASIZE PUSH0 DUP1 RETURNDATACOPY RETURNDATASIZE PUSH0 REVERT JUMPDEST POP POP POP POP PUSH1 0x40 MLOAD RETURNDATASIZE PUSH1 0x1F NOT PUSH1 0x1F DUP3 ADD AND DUP3 ADD DUP1 PUSH1 0x40 MSTORE POP DUP2 ADD SWAP1 PUSH2 0x915 SWAP2 SWAP1 PUSH2 0x14C3 JUMP JUMPDEST PUSH2 0x954 JUMPI PUSH1 0x40 MLOAD PUSH32 0x8C379A000000000000000000000000000000000000000000000000000000000 DUP2 MSTORE PUSH1 0x4 ADD PUSH2 0x94B SWAP1 PUSH2 0x1538 JUMP JUMPDEST PUSH1 0x40 MLOAD DUP1 SWAP2 SUB SWAP1 REVERT JUMPDEST DUP2 PUSH0 ADD PUSH0 SWAP1 SLOAD SWAP1 PUSH2 0x100 EXP SWAP1 DIV PUSH20 0xFFFFFFFFFFFFFFFFFFFFFFFFFFFFFFFFFFFFFFFF AND PUSH20 0xFFFFFFFFFFFFFFFFFFFFFFFFFFFFFFFFFFFFFFFF AND DUP4 PUSH32 0x37E8063B72A944A76DE602F32B82FD8C2A1C6F99564C727FFAF913C7762CD420 DUP5 PUSH1 0x3 ADD SLOAD PUSH1 0x40 MLOAD PUSH2 0x9C1 SWAP2 SWAP1 PUSH2 0x1066 JUMP JUMPDEST PUSH1 0x40 MLOAD DUP1 SWAP2 SUB SWAP1 LOG3 POP POP POP JUMP JUMPDEST TIMESTAMP DUP3 GT PUSH2 0xA10 JUMPI PUSH1 0x40 MLOAD PUSH32 0x8C379A000000000000000000000000000000000000000000000000000000000 DUP2 MSTORE PUSH1 0x4 ADD PUSH2 0xA07 SWAP1 PUSH2 0x16E2 JUMP JUMPDEST PUSH1 0x40 MLOAD DUP1 SWAP2 SUB SWAP1 REVERT JUMPDEST PUSH0 DUP2 GT PUSH2 0xA52 JUMPI PUSH1 0x40 MLOAD PUSH32 0x8C379A000000000000000000000000000000000000000000000000000000000 DUP2 MSTORE PUSH1 0x4 ADD PUSH2 0xA49 SWAP1 PUSH2 0x174A JUMP JUMPDEST PUSH1 0x40 MLOAD DUP1 SWAP2 SUB SWAP1 REVERT JUMPDEST PUSH1 0x2 PUSH0 SWAP1 SLOAD SWAP1 PUSH2 0x100 EXP SWAP1 DIV PUSH20 0xFFFFFFFFFFFFFFFFFFFFFFFFFFFFFFFFFFFFFFFF AND PUSH20 0xFFFFFFFFFFFFFFFFFFFFFFFFFFFFFFFFFFFFFFFF AND PUSH4 0x23B872DD CALLER ADDRESS DUP5 PUSH1 0x40 MLOAD DUP5 PUSH4 0xFFFFFFFF AND PUSH1 0xE0 SHL DUP2 MSTORE PUSH1 0x4 ADD PUSH2 0xAB0 SWAP4 SWAP3 SWAP2 SWAP1 PUSH2 0x1768 JUMP JUMPDEST PUSH1 0x20 PUSH1 0x40 MLOAD DUP1 DUP4 SUB DUP2 PUSH0 DUP8 GAS CALL ISZERO DUP1 ISZERO PUSH2 0xACC JUMPI RETURNDATASIZE PUSH0 DUP1 RETURNDATACOPY RETURNDATASIZE PUSH0 REVERT JUMPDEST POP POP POP POP PUSH1 0x40 MLOAD RETURNDATASIZE PUSH1 0x1F NOT PUSH1 0x1F DUP3 ADD AND DUP3 ADD DUP1 PUSH1 0x40 MSTORE POP DUP2 ADD SWAP1 PUSH2 0xAF0 SWAP2 SWAP1 PUSH2 0x14C3 JUMP JUMPDEST PUSH2 0xB2F JUMPI PUSH1 0x40 MLOAD PUSH32 0x8C379A000000000000000000000000000000000000000000000000000000000 DUP2 MSTORE PUSH1 0x4 ADD PUSH2 0xB26 SWAP1 PUSH2 0x1538 JUMP JUMPDEST PUSH1 0x40 MLOAD DUP1 SWAP2 SUB SWAP1 REVERT JUMPDEST PUSH1 0x40 MLOAD DUP1 PUSH1 0xA0 ADD PUSH1 0x40 MSTORE DUP1 CALLER PUSH20 0xFFFFFFFFFFFFFFFFFFFFFFFFFFFFFFFFFFFFFFFF AND DUP2 MSTORE PUSH1 0x20 ADD DUP5 PUSH20 0xFFFFFFFFFFFFFFFFFFFFFFFFFFFFFFFFFFFFFFFF AND DUP2 MSTORE PUSH1 0x20 ADD DUP4 DUP2 MSTORE PUSH1 0x20 ADD DUP3 DUP2 MSTORE PUSH1 0x20 ADD PUSH1 0x1 ISZERO ISZERO DUP2 MSTORE POP PUSH1 0x3 PUSH0 PUSH1 0x4 SLOAD DUP2 MSTORE PUSH1 0x20 ADD SWAP1 DUP2 MSTORE PUSH1 0x20 ADD PUSH0 KECCAK256 PUSH0 DUP3 ADD MLOAD DUP2 PUSH0 ADD PUSH0 PUSH2 0x100 EXP DUP2 SLOAD DUP2 PUSH20 0xFFFFFFFFFFFFFFFFFFFFFFFFFFFFFFFFFFFFFFFF MUL NOT AND SWAP1 DUP4 PUSH20 0xFFFFFFFFFFFFFFFFFFFFFFFFFFFFFFFFFFFFFFFF AND MUL OR SWAP1 SSTORE POP PUSH1 0x20 DUP3 ADD MLOAD DUP2 PUSH1 0x1 ADD PUSH0 PUSH2 0x100 EXP DUP2 SLOAD DUP2 PUSH20 0xFFFFFFFFFFFFFFFFFFFFFFFFFFFFFFFFFFFFFFFF MUL NOT AND SWAP1 DUP4 PUSH20 0xFFFFFFFFFFFFFFFFFFFFFFFFFFFFFFFFFFFFFFFF AND MUL OR SWAP1 SSTORE POP PUSH1 0x40 DUP3 ADD MLOAD DUP2 PUSH1 0x2 ADD SSTORE PUSH1 0x60 DUP3 ADD MLOAD DUP2 PUSH1 0x3 ADD SSTORE PUSH1 0x80 DUP3 ADD MLOAD DUP2 PUSH1 0x4 ADD PUSH0 PUSH2 0x100 EXP DUP2 SLOAD DUP2 PUSH1 0xFF MUL NOT AND SWAP1 DUP4 ISZERO ISZERO MUL OR SWAP1 SSTORE POP SWAP1 POP POP DUP3 PUSH20 0xFFFFFFFFFFFFFFFFFFFFFFFFFFFFFFFFFFFFFFFF AND CALLER PUSH20 0xFFFFFFFFFFFFFFFFFFFFFFFFFFFFFFFFFFFFFFFF AND PUSH1 0x4 SLOAD PUSH32 0x9405AD0A6208539879349284D71265479B1623846F70303DA1F9890D6E8C10A7 DUP5 PUSH1 0x40 MLOAD PUSH2 0xCB8 SWAP2 SWAP1 PUSH2 0x1066 JUMP JUMPDEST PUSH1 0x40 MLOAD DUP1 SWAP2 SUB SWAP1 LOG4 PUSH1 0x4 PUSH0 DUP2 SLOAD DUP1 SWAP3 SWAP2 SWAP1 PUSH2 0xCD2 SWAP1 PUSH2 0x179D JUMP JUMPDEST SWAP2 SWAP1 POP SSTORE POP POP POP POP JUMP JUMPDEST PUSH0 PUSH1 0x1 PUSH0 SWAP1 SLOAD SWAP1 PUSH2 0x100 EXP SWAP1 DIV PUSH20 0xFFFFFFFFFFFFFFFFFFFFFFFFFFFFFFFFFFFFFFFF AND SWAP1 POP SWAP1 JUMP JUMPDEST PUSH2 0xD0C PUSH2 0xDD5 JUMP JUMPDEST DUP1 PUSH1 0x1 PUSH0 PUSH2 0x100 EXP DUP2 SLOAD DUP2 PUSH20 0xFFFFFFFFFFFFFFFFFFFFFFFFFFFFFFFFFFFFFFFF MUL NOT AND SWAP1 DUP4 PUSH20 0xFFFFFFFFFFFFFFFFFFFFFFFFFFFFFFFFFFFFFFFF AND MUL OR SWAP1 SSTORE POP DUP1 PUSH20 0xFFFFFFFFFFFFFFFFFFFFFFFFFFFFFFFFFFFFFFFF AND PUSH2 0xD6B PUSH2 0x67B JUMP JUMPDEST PUSH20 0xFFFFFFFFFFFFFFFFFFFFFFFFFFFFFFFFFFFFFFFF AND PUSH32 0x38D16B8CAC22D99FC7C124B9CD0DE2D3FA1FAEF420BFE791D8C362D765E22700 PUSH1 0x40 MLOAD PUSH1 0x40 MLOAD DUP1 SWAP2 SUB SWAP1 LOG3 POP JUMP JUMPDEST PUSH1 0x2 PUSH0 SWAP1 SLOAD SWAP1 PUSH2 0x100 EXP SWAP1 DIV PUSH20 0xFFFFFFFFFFFFFFFFFFFFFFFFFFFFFFFFFFFFFFFF AND DUP2 JUMP JUMPDEST PUSH2 0xDDD PUSH2 0xE83 JUMP JUMPDEST PUSH20 0xFFFFFFFFFFFFFFFFFFFFFFFFFFFFFFFFFFFFFFFF AND PUSH2 0xDFB PUSH2 0x67B JUMP JUMPDEST PUSH20 0xFFFFFFFFFFFFFFFFFFFFFFFFFFFFFFFFFFFFFFFF AND EQ PUSH2 0xE51 JUMPI PUSH1 0x40 MLOAD PUSH32 0x8C379A000000000000000000000000000000000000000000000000000000000 DUP2 MSTORE PUSH1 0x4 ADD PUSH2 0xE48 SWAP1 PUSH2 0x182E JUMP JUMPDEST PUSH1 0x40 MLOAD DUP1 SWAP2 SUB SWAP1 REVERT JUMPDEST JUMP JUMPDEST PUSH1 0x1 PUSH0 PUSH2 0x100 EXP DUP2 SLOAD SWAP1 PUSH20 0xFFFFFFFFFFFFFFFFFFFFFFFFFFFFFFFFFFFFFFFF MUL NOT AND SWAP1 SSTORE PUSH2 0xE80 DUP2 PUSH2 0xE8A JUMP JUMPDEST POP JUMP JUMPDEST PUSH0 CALLER SWAP1 POP SWAP1 JUMP JUMPDEST PUSH0 DUP1 PUSH0 SWAP1 SLOAD SWAP1 PUSH2 0x100 EXP SWAP1 DIV PUSH20 0xFFFFFFFFFFFFFFFFFFFFFFFFFFFFFFFFFFFFFFFF AND SWAP1 POP DUP2 PUSH0 DUP1 PUSH2 0x100 EXP DUP2 SLOAD DUP2 PUSH20 0xFFFFFFFFFFFFFFFFFFFFFFFFFFFFFFFFFFFFFFFF MUL NOT AND SWAP1 DUP4 PUSH20 0xFFFFFFFFFFFFFFFFFFFFFFFFFFFFFFFFFFFFFFFF AND MUL OR SWAP1 SSTORE POP DUP2 PUSH20 0xFFFFFFFFFFFFFFFFFFFFFFFFFFFFFFFFFFFFFFFF AND DUP2 PUSH20 0xFFFFFFFFFFFFFFFFFFFFFFFFFFFFFFFFFFFFFFFF AND PUSH32 0x8BE0079C531659141344CD1FD0A4F28419497F9722A3DAAFE3B4186F6B6457E0 PUSH1 0x40 MLOAD PUSH1 0x40 MLOAD DUP1 SWAP2 SUB SWAP1 LOG3 POP POP JUMP JUMPDEST PUSH0 DUP1 REVERT JUMPDEST PUSH0 DUP2 SWAP1 POP SWAP2 SWAP1 POP JUMP JUMPDEST PUSH2 0xF61 DUP2 PUSH2 0xF4F JUMP JUMPDEST DUP2 EQ PUSH2 0xF6B JUMPI PUSH0 DUP1 REVERT JUMPDEST POP JUMP JUMPDEST PUSH0 DUP2 CALLDATALOAD SWAP1 POP PUSH2 0xF7C DUP2 PUSH2 0xF58 JUMP JUMPDEST SWAP3 SWAP2 POP POP JUMP JUMPDEST PUSH0 PUSH1 0x20 DUP3 DUP5 SUB SLT ISZERO PUSH2 0xF97 JUMPI PUSH2 0xF96 PUSH2 0xF4B JUMP JUMPDEST JUMPDEST PUSH0 PUSH2 0xFA4 DUP5 DUP3 DUP6 ADD PUSH2 0xF6E JUMP JUMPDEST SWAP2 POP POP SWAP3 SWAP2 POP POP JUMP JUMPDEST PUSH0 PUSH20 0xFFFFFFFFFFFFFFFFFFFFFFFFFFFFFFFFFFFFFFFF DUP3 AND SWAP1 POP SWAP2 SWAP1 POP JUMP JUMPDEST PUSH0 PUSH2 0xFD6 DUP3 PUSH2 0xFAD JUMP JUMPDEST SWAP1 POP SWAP2 SWAP1 POP JUMP JUMPDEST PUSH2 0xFE6 DUP2 PUSH2 0xFCC JUMP JUMPDEST DUP3 MSTORE POP POP JUMP JUMPDEST PUSH2 0xFF5 DUP2 PUSH2 0xF4F JUMP JUMPDEST DUP3 MSTORE POP POP JUMP JUMPDEST PUSH0 DUP2 ISZERO ISZERO SWAP1 POP SWAP2 SWAP1 POP JUMP JUMPDEST PUSH2 0x100F DUP2 PUSH2 0xFFB JUMP JUMPDEST DUP3 MSTORE POP POP JUMP JUMPDEST PUSH0 PUSH1 0xA0 DUP3 ADD SWAP1 POP PUSH2 0x1028 PUSH0 DUP4 ADD DUP9 PUSH2 0xFDD JUMP JUMPDEST PUSH2 0x1035 PUSH1 0x20 DUP4 ADD DUP8 PUSH2 0xFDD JUMP JUMPDEST PUSH2 0x1042 PUSH1 0x40 DUP4 ADD DUP7 PUSH2 0xFEC JUMP JUMPDEST PUSH2 0x104F PUSH1 0x60 DUP4 ADD DUP6 PUSH2 0xFEC JUMP JUMPDEST PUSH2 0x105C PUSH1 0x80 DUP4 ADD DUP5 PUSH2 0x1006 JUMP JUMPDEST SWAP7 SWAP6 POP POP POP POP POP POP JUMP JUMPDEST PUSH0 PUSH1 0x20 DUP3 ADD SWAP1 POP PUSH2 0x1079 PUSH0 DUP4 ADD DUP5 PUSH2 0xFEC JUMP JUMPDEST SWAP3 SWAP2 POP POP JUMP JUMPDEST PUSH0 PUSH1 0x20 DUP3 ADD SWAP1 POP PUSH2 0x1092 PUSH0 DUP4 ADD DUP5 PUSH2 0xFDD JUMP JUMPDEST SWAP3 SWAP2 POP POP JUMP JUMPDEST PUSH2 0x10A1 DUP2 PUSH2 0xFCC JUMP JUMPDEST DUP2 EQ PUSH2 0x10AB JUMPI PUSH0 DUP1 REVERT JUMPDEST POP JUMP JUMPDEST PUSH0 DUP2 CALLDATALOAD SWAP1 POP PUSH2 0x10BC DUP2 PUSH2 0x1098 JUMP JUMPDEST SWAP3 SWAP2 POP POP JUMP JUMPDEST PUSH0 DUP1 PUSH0 PUSH1 0x60 DUP5 DUP7 SUB SLT ISZERO PUSH2 0x10D9 JUMPI PUSH2 0x10D8 PUSH2 0xF4B JUMP JUMPDEST JUMPDEST PUSH0 PUSH2 0x10E6 DUP7 DUP3 DUP8 ADD PUSH2 0x10AE JUMP JUMPDEST SWAP4 POP POP PUSH1 0x20 PUSH2 0x10F7 DUP7 DUP3 DUP8 ADD PUSH2 0xF6E JUMP JUMPDEST SWAP3 POP POP PUSH1 0x40 PUSH2 0x1108 DUP7 DUP3 DUP8 ADD PUSH2 0xF6E JUMP JUMPDEST SWAP2 POP POP SWAP3 POP SWAP3 POP SWAP3 JUMP JUMPDEST PUSH0 PUSH1 0x20 DUP3 DUP5 SUB SLT ISZERO PUSH2 0x1127 JUMPI PUSH2 0x1126 PUSH2 0xF4B JUMP JUMPDEST JUMPDEST PUSH0 PUSH2 0x1134 DUP5 DUP3 DUP6 ADD PUSH2 0x10AE JUMP JUMPDEST SWAP2 POP POP SWAP3 SWAP2 POP POP JUMP JUMPDEST PUSH0 DUP2 SWAP1 POP SWAP2 SWAP1 POP JUMP JUMPDEST PUSH0 PUSH2 0x1160 PUSH2 0x115B PUSH2 0x1156 DUP5 PUSH2 0xFAD JUMP JUMPDEST PUSH2 0x113D JUMP JUMPDEST PUSH2 0xFAD JUMP JUMPDEST SWAP1 POP SWAP2 SWAP1 POP JUMP JUMPDEST PUSH0 PUSH2 0x1171 DUP3 PUSH2 0x1146 JUMP JUMPDEST SWAP1 POP SWAP2 SWAP1 POP JUMP JUMPDEST PUSH0 PUSH2 0x1182 DUP3 PUSH2 0x1167 JUMP JUMPDEST SWAP1 POP SWAP2 SWAP1 POP JUMP JUMPDEST PUSH2 0x1192 DUP2 PUSH2 0x1178 JUMP JUMPDEST DUP3 MSTORE POP POP JUMP JUMPDEST PUSH0 PUSH1 0x20 DUP3 ADD SWAP1 POP PUSH2 0x11AB PUSH0 DUP4 ADD DUP5 PUSH2 0x1189 JUMP JUMPDEST SWAP3 SWAP2 POP POP JUMP JUMPDEST PUSH0 DUP3 DUP3 MSTORE PUSH1 0x20 DUP3 ADD SWAP1 POP SWAP3 SWAP2 POP POP JUMP JUMPDEST PUSH32 0x457363726F77206973206E6F7420616374697665000000000000000000000000 PUSH0 DUP3 ADD MSTORE POP JUMP JUMPDEST PUSH0 PUSH2 0x11F5 PUSH1 0x14 DUP4 PUSH2 0x11B1 JUMP JUMPDEST SWAP2 POP PUSH2 0x1200 DUP3 PUSH2 0x11C1 JUMP JUMPDEST PUSH1 0x20 DUP3 ADD SWAP1 POP SWAP2 SWAP1 POP JUMP JUMPDEST PUSH0 PUSH1 0x20 DUP3 ADD SWAP1 POP DUP2 DUP2 SUB PUSH0 DUP4 ADD MSTORE PUSH2 0x1222 DUP2 PUSH2 0x11E9 JUMP JUMPDEST SWAP1 POP SWAP2 SWAP1 POP JUMP JUMPDEST PUSH32 0x4F6E6C79207468652073656C6C65722063616E2077697468647261772066756E PUSH0 DUP3 ADD MSTORE PUSH32 0x6473000000000000000000000000000000000000000000000000000000000000 PUSH1 0x20 DUP3 ADD MSTORE POP JUMP JUMPDEST PUSH0 PUSH2 0x1283 PUSH1 0x22 DUP4 PUSH2 0x11B1 JUMP JUMPDEST SWAP2 POP PUSH2 0x128E DUP3 PUSH2 0x1229 JUMP JUMPDEST PUSH1 0x40 DUP3 ADD SWAP1 POP SWAP2 SWAP1 POP JUMP JUMPDEST PUSH0 PUSH1 0x20 DUP3 ADD SWAP1 POP DUP2 DUP2 SUB PUSH0 DUP4 ADD MSTORE PUSH2 0x12B0 DUP2 PUSH2 0x1277 JUMP JUMPDEST SWAP1 POP SWAP2 SWAP1 POP JUMP JUMPDEST PUSH32 0x4E487B7100000000000000000000000000000000000000000000000000000000 PUSH0 MSTORE PUSH1 0x11 PUSH1 0x4 MSTORE PUSH1 0x24 PUSH0 REVERT JUMPDEST PUSH0 PUSH2 0x12EE DUP3 PUSH2 0xF4F JUMP JUMPDEST SWAP2 POP PUSH2 0x12F9 DUP4 PUSH2 0xF4F JUMP JUMPDEST SWAP3 POP DUP3 DUP3 ADD SWAP1 POP DUP1 DUP3 GT ISZERO PUSH2 0x1311 JUMPI PUSH2 0x1310 PUSH2 0x12B7 JUMP JUMPDEST JUMPDEST SWAP3 SWAP2 POP POP JUMP JUMPDEST PUSH32 0x46756E64732063616E6E6F742062652077697468647261776E206265666F7265 PUSH0 DUP3 ADD MSTORE PUSH32 0x207468652072656C656173652074696D65000000000000000000000000000000 PUSH1 0x20 DUP3 ADD MSTORE POP JUMP JUMPDEST PUSH0 PUSH2 0x1371 PUSH1 0x31 DUP4 PUSH2 0x11B1 JUMP JUMPDEST SWAP2 POP PUSH2 0x137C DUP3 PUSH2 0x1317 JUMP JUMPDEST PUSH1 0x40 DUP3 ADD SWAP1 POP SWAP2 SWAP1 POP JUMP JUMPDEST PUSH0 PUSH1 0x20 DUP3 ADD SWAP1 POP DUP2 DUP2 SUB PUSH0 DUP4 ADD MSTORE PUSH2 0x139E DUP2 PUSH2 0x1365 JUMP JUMPDEST SWAP1 POP SWAP2 SWAP1 POP JUMP JUMPDEST PUSH0 DUP2 MLOAD SWAP1 POP PUSH2 0x13B3 DUP2 PUSH2 0xF58 JUMP JUMPDEST SWAP3 SWAP2 POP POP JUMP JUMPDEST PUSH0 PUSH1 0x20 DUP3 DUP5 SUB SLT ISZERO PUSH2 0x13CE JUMPI PUSH2 0x13CD PUSH2 0xF4B JUMP JUMPDEST JUMPDEST PUSH0 PUSH2 0x13DB DUP5 DUP3 DUP6 ADD PUSH2 0x13A5 JUMP JUMPDEST SWAP2 POP POP SWAP3 SWAP2 POP POP JUMP JUMPDEST PUSH32 0x496E73756666696369656E742062616C616E636520696E2074686520636F6E74 PUSH0 DUP3 ADD MSTORE PUSH32 0x7261637400000000000000000000000000000000000000000000000000000000 PUSH1 0x20 DUP3 ADD MSTORE POP JUMP JUMPDEST PUSH0 PUSH2 0x143E PUSH1 0x24 DUP4 PUSH2 0x11B1 JUMP JUMPDEST SWAP2 POP PUSH2 0x1449 DUP3 PUSH2 0x13E4 JUMP JUMPDEST PUSH1 0x40 DUP3 ADD SWAP1 POP SWAP2 SWAP1 POP JUMP JUMPDEST PUSH0 PUSH1 0x20 DUP3 ADD SWAP1 POP DUP2 DUP2 SUB PUSH0 DUP4 ADD MSTORE PUSH2 0x146B DUP2 PUSH2 0x1432 JUMP JUMPDEST SWAP1 POP SWAP2 SWAP1 POP JUMP JUMPDEST PUSH0 PUSH1 0x40 DUP3 ADD SWAP1 POP PUSH2 0x1485 PUSH0 DUP4 ADD DUP6 PUSH2 0xFDD JUMP JUMPDEST PUSH2 0x1492 PUSH1 0x20 DUP4 ADD DUP5 PUSH2 0xFEC JUMP JUMPDEST SWAP4 SWAP3 POP POP POP JUMP JUMPDEST PUSH2 0x14A2 DUP2 PUSH2 0xFFB JUMP JUMPDEST DUP2 EQ PUSH2 0x14AC JUMPI PUSH0 DUP1 REVERT JUMPDEST POP JUMP JUMPDEST PUSH0 DUP2 MLOAD SWAP1 POP PUSH2 0x14BD DUP2 PUSH2 0x1499 JUMP JUMPDEST SWAP3 SWAP2 POP POP JUMP JUMPDEST PUSH0 PUSH1 0x20 DUP3 DUP5 SUB SLT ISZERO PUSH2 0x14D8 JUMPI PUSH2 0x14D7 PUSH2 0xF4B JUMP JUMPDEST JUMPDEST PUSH0 PUSH2 0x14E5 DUP5 DUP3 DUP6 ADD PUSH2 0x14AF JUMP JUMPDEST SWAP2 POP POP SWAP3 SWAP2 POP POP JUMP JUMPDEST PUSH32 0x546F6B656E207472616E73666572206661696C65640000000000000000000000 PUSH0 DUP3 ADD MSTORE POP JUMP JUMPDEST PUSH0 PUSH2 0x1522 PUSH1 0x15 DUP4 PUSH2 0x11B1 JUMP JUMPDEST SWAP2 POP PUSH2 0x152D DUP3 PUSH2 0x14EE JUMP JUMPDEST PUSH1 0x20 DUP3 ADD SWAP1 POP SWAP2 SWAP1 POP JUMP JUMPDEST PUSH0 PUSH1 0x20 DUP3 ADD SWAP1 POP DUP2 DUP2 SUB PUSH0 DUP4 ADD MSTORE PUSH2 0x154F DUP2 PUSH2 0x1516 JUMP JUMPDEST SWAP1 POP SWAP2 SWAP1 POP JUMP JUMPDEST PUSH32 0x4F776E61626C6532537465703A2063616C6C6572206973206E6F742074686520 PUSH0 DUP3 ADD MSTORE PUSH32 0x6E6577206F776E65720000000000000000000000000000000000000000000000 PUSH1 0x20 DUP3 ADD MSTORE POP JUMP JUMPDEST PUSH0 PUSH2 0x15B0 PUSH1 0x29 DUP4 PUSH2 0x11B1 JUMP JUMPDEST SWAP2 POP PUSH2 0x15BB DUP3 PUSH2 0x1556 JUMP JUMPDEST PUSH1 0x40 DUP3 ADD SWAP1 POP SWAP2 SWAP1 POP JUMP JUMPDEST PUSH0 PUSH1 0x20 DUP3 ADD SWAP1 POP DUP2 DUP2 SUB PUSH0 DUP4 ADD MSTORE PUSH2 0x15DD DUP2 PUSH2 0x15A4 JUMP JUMPDEST SWAP1 POP SWAP2 SWAP1 POP JUMP JUMPDEST PUSH32 0x46756E64732063616E6E6F7420626520726566756E646564206265666F726520 PUSH0 DUP3 ADD MSTORE PUSH32 0x7468652072656C656173652074696D6500000000000000000000000000000000 PUSH1 0x20 DUP3 ADD MSTORE POP JUMP JUMPDEST PUSH0 PUSH2 0x163E PUSH1 0x30 DUP4 PUSH2 0x11B1 JUMP JUMPDEST SWAP2 POP PUSH2 0x1649 DUP3 PUSH2 0x15E4 JUMP JUMPDEST PUSH1 0x40 DUP3 ADD SWAP1 POP SWAP2 SWAP1 POP JUMP JUMPDEST PUSH0 PUSH1 0x20 DUP3 ADD SWAP1 POP DUP2 DUP2 SUB PUSH0 DUP4 ADD MSTORE PUSH2 0x166B DUP2 PUSH2 0x1632 JUMP JUMPDEST SWAP1 POP SWAP2 SWAP1 POP JUMP JUMPDEST PUSH32 0x52656C656173652074696D65206D75737420626520696E207468652066757475 PUSH0 DUP3 ADD MSTORE PUSH32 0x7265000000000000000000000000000000000000000000000000000000000000 PUSH1 0x20 DUP3 ADD MSTORE POP JUMP JUMPDEST PUSH0 PUSH2 0x16CC PUSH1 0x22 DUP4 PUSH2 0x11B1 JUMP JUMPDEST SWAP2 POP PUSH2 0x16D7 DUP3 PUSH2 0x1672 JUMP JUMPDEST PUSH1 0x40 DUP3 ADD SWAP1 POP SWAP2 SWAP1 POP JUMP JUMPDEST PUSH0 PUSH1 0x20 DUP3 ADD SWAP1 POP DUP2 DUP2 SUB PUSH0 DUP4 ADD MSTORE PUSH2 0x16F9 DUP2 PUSH2 0x16C0 JUMP JUMPDEST SWAP1 POP SWAP2 SWAP1 POP JUMP JUMPDEST PUSH32 0x416D6F756E74206D7573742062652067726561746572207468616E2030000000 PUSH0 DUP3 ADD MSTORE POP JUMP JUMPDEST PUSH0 PUSH2 0x1734 PUSH1 0x1D DUP4 PUSH2 0x11B1 JUMP JUMPDEST SWAP2 POP PUSH2 0x173F DUP3 PUSH2 0x1700 JUMP JUMPDEST PUSH1 0x20 DUP3 ADD SWAP1 POP SWAP2 SWAP1 POP JUMP JUMPDEST PUSH0 PUSH1 0x20 DUP3 ADD SWAP1 POP DUP2 DUP2 SUB PUSH0 DUP4 ADD MSTORE PUSH2 0x1761 DUP2 PUSH2 0x1728 JUMP JUMPDEST SWAP1 POP SWAP2 SWAP1 POP JUMP JUMPDEST PUSH0 PUSH1 0x60 DUP3 ADD SWAP1 POP PUSH2 0x177B PUSH0 DUP4 ADD DUP7 PUSH2 0xFDD JUMP JUMPDEST PUSH2 0x1788 PUSH1 0x20 DUP4 ADD DUP6 PUSH2 0xFDD JUMP JUMPDEST PUSH2 0x1795 PUSH1 0x40 DUP4 ADD DUP5 PUSH2 0xFEC JUMP JUMPDEST SWAP5 SWAP4 POP POP POP POP JUMP JUMPDEST PUSH0 PUSH2 0x17A7 DUP3 PUSH2 0xF4F JUMP JUMPDEST SWAP2 POP PUSH32 0xFFFFFFFFFFFFFFFFFFFFFFFFFFFFFFFFFFFFFFFFFFFFFFFFFFFFFFFFFFFFFFFF DUP3 SUB PUSH2 0x17D9 JUMPI PUSH2 0x17D8 PUSH2 0x12B7 JUMP JUMPDEST JUMPDEST PUSH1 0x1 DUP3 ADD SWAP1 POP SWAP2 SWAP1 POP JUMP JUMPDEST PUSH32 0x4F776E61626C653A2063616C6C6572206973206E6F7420746865206F776E6572 PUSH0 DUP3 ADD MSTORE POP JUMP JUMPDEST PUSH0 PUSH2 0x1818 PUSH1 0x20 DUP4 PUSH2 0x11B1 JUMP JUMPDEST SWAP2 POP PUSH2 0x1823 DUP3 PUSH2 0x17E4 JUMP JUMPDEST PUSH1 0x20 DUP3 ADD SWAP1 POP SWAP2 SWAP1 POP JUMP JUMPDEST PUSH0 PUSH1 0x20 DUP3 ADD SWAP1 POP DUP2 DUP2 SUB PUSH0 DUP4 ADD MSTORE PUSH2 0x1845 DUP2 PUSH2 0x180C JUMP JUMPDEST SWAP1 POP SWAP2 SWAP1 POP JUMP INVALID LOG2 PUSH5 0x6970667358 0x22 SLT KECCAK256 BASEFEE CALLVALUE EXTCODECOPY DUP13 PUSH4 0xF67DC42 SUB PUSH25 0x1FFD87250661C2C4A8871DB6D27B484B8929BDCC2864736F6C PUSH4 0x43000815 STOP CALLER "
				},
				"gasEstimates": {
					"creation": {
						"codeDepositCost": "1254800",
						"executionCost": "infinite",
						"totalCost": "infinite"
					},
					"external": {
						"acceptOwnership()": "54738",
						"createEscrow(address,uint256,uint256)": "infinite",
						"escrowCount()": "2470",
						"escrows(uint256)": "infinite",
						"owner()": "2515",
						"pendingOwner()": "2581",
						"refundToBuyer(uint256)": "infinite",
						"renounceOwnership()": "54727",
						"token()": "infinite",
						"transferOwnership(address)": "infinite",
						"withdraw(uint256)": "infinite"
					}
				},
				"methodIdentifiers": {
					"acceptOwnership()": "79ba5097",
					"createEscrow(address,uint256,uint256)": "e2ecb311",
					"escrowCount()": "675ac67a",
					"escrows(uint256)": "012f52ee",
					"owner()": "8da5cb5b",
					"pendingOwner()": "e30c3978",
					"refundToBuyer(uint256)": "b4050fc8",
					"renounceOwnership()": "715018a6",
					"token()": "fc0c546a",
					"transferOwnership(address)": "f2fde38b",
					"withdraw(uint256)": "2e1a7d4d"
				}
			},
			"storageLayout": {
				"storage": [
					{
						"astId": 7,
						"contract": "contracts/UntrustedEscrow.sol:UntrustedEscrow",
						"label": "_owner",
						"offset": 0,
						"slot": "0",
						"type": "t_address"
					},
					{
						"astId": 120,
						"contract": "contracts/UntrustedEscrow.sol:UntrustedEscrow",
						"label": "_pendingOwner",
						"offset": 0,
						"slot": "1",
						"type": "t_address"
					},
					{
						"astId": 315,
						"contract": "contracts/UntrustedEscrow.sol:UntrustedEscrow",
						"label": "token",
						"offset": 0,
						"slot": "2",
						"type": "t_contract(IERC20)273"
					},
					{
						"astId": 320,
						"contract": "contracts/UntrustedEscrow.sol:UntrustedEscrow",
						"label": "escrows",
						"offset": 0,
						"slot": "3",
						"type": "t_mapping(t_uint256,t_struct(Escrow)312_storage)"
					},
					{
						"astId": 322,
						"contract": "contracts/UntrustedEscrow.sol:UntrustedEscrow",
						"label": "escrowCount",
						"offset": 0,
						"slot": "4",
						"type": "t_uint256"
					}
				],
				"types": {
					"t_address": {
						"encoding": "inplace",
						"label": "address",
						"numberOfBytes": "20"
					},
					"t_bool": {
						"encoding": "inplace",
						"label": "bool",
						"numberOfBytes": "1"
					},
					"t_contract(IERC20)273": {
						"encoding": "inplace",
						"label": "contract IERC20",
						"numberOfBytes": "20"
					},
					"t_mapping(t_uint256,t_struct(Escrow)312_storage)": {
						"encoding": "mapping",
						"key": "t_uint256",
						"label": "mapping(uint256 => struct UntrustedEscrow.Escrow)",
						"numberOfBytes": "32",
						"value": "t_struct(Escrow)312_storage"
					},
					"t_struct(Escrow)312_storage": {
						"encoding": "inplace",
						"label": "struct UntrustedEscrow.Escrow",
						"members": [
							{
								"astId": 303,
								"contract": "contracts/UntrustedEscrow.sol:UntrustedEscrow",
								"label": "buyer",
								"offset": 0,
								"slot": "0",
								"type": "t_address"
							},
							{
								"astId": 305,
								"contract": "contracts/UntrustedEscrow.sol:UntrustedEscrow",
								"label": "seller",
								"offset": 0,
								"slot": "1",
								"type": "t_address"
							},
							{
								"astId": 307,
								"contract": "contracts/UntrustedEscrow.sol:UntrustedEscrow",
								"label": "releaseTime",
								"offset": 0,
								"slot": "2",
								"type": "t_uint256"
							},
							{
								"astId": 309,
								"contract": "contracts/UntrustedEscrow.sol:UntrustedEscrow",
								"label": "amount",
								"offset": 0,
								"slot": "3",
								"type": "t_uint256"
							},
							{
								"astId": 311,
								"contract": "contracts/UntrustedEscrow.sol:UntrustedEscrow",
								"label": "isActive",
								"offset": 0,
								"slot": "4",
								"type": "t_bool"
							}
						],
						"numberOfBytes": "160"
					},
					"t_uint256": {
						"encoding": "inplace",
						"label": "uint256",
						"numberOfBytes": "32"
					}
				}
			},
			"userdoc": {
				"kind": "user",
				"methods": {},
				"version": 1
			}
		}
	}
}