{
  "abi": [
    {
      "inputs": [
        {
          "internalType": "address",
          "name": "_token1363Address",
          "type": "address"
        },
        {
          "internalType": "address",
          "name": "_token777Address",
          "type": "address"
        },
        {
          "internalType": "uint256",
          "name": "_slope",
          "type": "uint256"
        },
        {
          "internalType": "uint256",
          "name": "_initialPrice",
          "type": "uint256"
        },
        {
          "internalType": "address",
          "name": "initialOwner",
          "type": "address"
        }
      ],
      "stateMutability": "nonpayable",
      "type": "constructor"
    },
    {
      "inputs": [
        {
          "internalType": "address",
          "name": "owner",
          "type": "address"
        }
      ],
      "name": "OwnableInvalidOwner",
      "type": "error"
    },
    {
      "inputs": [
        {
          "internalType": "address",
          "name": "account",
          "type": "address"
        }
      ],
      "name": "OwnableUnauthorizedAccount",
      "type": "error"
    },
    {
      "anonymous": false,
      "inputs": [
        {
          "indexed": true,
          "internalType": "address",
          "name": "previousOwner",
          "type": "address"
        },
        {
          "indexed": true,
          "internalType": "address",
          "name": "newOwner",
          "type": "address"
        }
      ],
      "name": "OwnershipTransferStarted",
      "type": "event"
    },
    {
      "anonymous": false,
      "inputs": [
        {
          "indexed": true,
          "internalType": "address",
          "name": "previousOwner",
          "type": "address"
        },
        {
          "indexed": true,
          "internalType": "address",
          "name": "newOwner",
          "type": "address"
        }
      ],
      "name": "OwnershipTransferred",
      "type": "event"
    },
    {
      "anonymous": false,
      "inputs": [
        {
          "indexed": true,
          "internalType": "address",
          "name": "buyer",
          "type": "address"
        },
        {
          "indexed": false,
          "internalType": "uint256",
          "name": "amount",
          "type": "uint256"
        },
        {
          "indexed": false,
          "internalType": "uint256",
          "name": "cost",
          "type": "uint256"
        }
      ],
      "name": "TokensPurchased",
      "type": "event"
    },
    {
      "anonymous": false,
      "inputs": [
        {
          "indexed": true,
          "internalType": "address",
          "name": "seller",
          "type": "address"
        },
        {
          "indexed": false,
          "internalType": "uint256",
          "name": "amount",
          "type": "uint256"
        },
        {
          "indexed": false,
          "internalType": "uint256",
          "name": "revenue",
          "type": "uint256"
        }
      ],
      "name": "TokensSold",
      "type": "event"
    },
    {
      "inputs": [],
      "name": "acceptOwnership",
      "outputs": [],
      "stateMutability": "nonpayable",
      "type": "function"
    },
    {
      "inputs": [],
      "name": "initialPrice",
      "outputs": [
        {
          "internalType": "uint256",
          "name": "",
          "type": "uint256"
        }
      ],
      "stateMutability": "view",
      "type": "function"
    },
    {
      "inputs": [],
      "name": "owner",
      "outputs": [
        {
          "internalType": "address",
          "name": "",
          "type": "address"
        }
      ],
      "stateMutability": "view",
      "type": "function"
    },
    {
      "inputs": [],
      "name": "pendingOwner",
      "outputs": [
        {
          "internalType": "address",
          "name": "",
          "type": "address"
        }
      ],
      "stateMutability": "view",
      "type": "function"
    },
    {
      "inputs": [
        {
          "internalType": "uint256",
          "name": "amount",
          "type": "uint256"
        }
      ],
      "name": "purchaseTokens",
      "outputs": [],
      "stateMutability": "nonpayable",
      "type": "function"
    },
    {
      "inputs": [],
      "name": "renounceOwnership",
      "outputs": [],
      "stateMutability": "nonpayable",
      "type": "function"
    },
    {
      "inputs": [
        {
          "internalType": "uint256",
          "name": "amount",
          "type": "uint256"
        }
      ],
      "name": "sellTokens",
      "outputs": [],
      "stateMutability": "nonpayable",
      "type": "function"
    },
    {
      "inputs": [],
      "name": "slope",
      "outputs": [
        {
          "internalType": "uint256",
          "name": "",
          "type": "uint256"
        }
      ],
      "stateMutability": "view",
      "type": "function"
    },
    {
      "inputs": [],
      "name": "token1363",
      "outputs": [
        {
          "internalType": "contract IERC1363",
          "name": "",
          "type": "address"
        }
      ],
      "stateMutability": "view",
      "type": "function"
    },
    {
      "inputs": [],
      "name": "token777",
      "outputs": [
        {
          "internalType": "contract IERC777",
          "name": "",
          "type": "address"
        }
      ],
      "stateMutability": "view",
      "type": "function"
    },
    {
      "inputs": [],
      "name": "tokensSold",
      "outputs": [
        {
          "internalType": "uint256",
          "name": "",
          "type": "uint256"
        }
      ],
      "stateMutability": "view",
      "type": "function"
    },
    {
      "inputs": [
        {
          "internalType": "address",
          "name": "newOwner",
          "type": "address"
        }
      ],
      "name": "transferOwnership",
      "outputs": [],
      "stateMutability": "nonpayable",
      "type": "function"
    },
    {
      "inputs": [
        {
          "internalType": "address",
          "name": "",
          "type": "address"
        }
      ],
      "name": "userBalances",
      "outputs": [
        {
          "internalType": "uint256",
          "name": "",
          "type": "uint256"
        }
      ],
      "stateMutability": "view",
      "type": "function"
    },
    {
      "inputs": [
        {
          "internalType": "uint256",
          "name": "amount",
          "type": "uint256"
        }
      ],
      "name": "withdrawEther",
      "outputs": [],
      "stateMutability": "nonpayable",
      "type": "function"
    },
    {
      "stateMutability": "payable",
      "type": "receive"
    }
  ],
  "bytecode": {
    "object": "0x608060405234801561001057600080fd5b50604051610c2e380380610c2e83398101604081905261002f91610101565b8061003981610079565b5050600280546001600160a01b039586166001600160a01b0319918216179091556003805494909516931692909217909255600491909155600555610158565b600180546001600160a01b031916905561009281610095565b50565b600080546001600160a01b038381166001600160a01b0319831681178455604051919092169283917f8be0079c531659141344cd1fd0a4f28419497f9722a3daafe3b4186f6b6457e09190a35050565b80516001600160a01b03811681146100fc57600080fd5b919050565b600080600080600060a0868803121561011957600080fd5b610122866100e5565b9450610130602087016100e5565b9350604086015192506060860151915061014c608087016100e5565b90509295509295909350565b610ac7806101676000396000f3fe6080604052600436106100e15760003560e01c806379ba50971161007f5780638da5cb5b116100595780638da5cb5b146102b75780639d4c4233146102d5578063e30c3978146102f5578063f2fde38b1461031357600080fd5b806379ba50971461026c5780637b97008d1461028157806383caf275146102a157600080fd5b80633bed33ce116100bb5780633bed33ce146101ff578063518ab2a8146102215780636c11bcd314610237578063715018a61461025757600080fd5b80631d0806ae1461017157806326224c641461019a57806329d5f724146101c757600080fd5b3661016c5760006100f134610333565b3360009081526007602052604090205490915061010f9082906109ae565b3360009081526007602052604090205560065461012d9082906109ae565b6006556040805182815234602082015233917f8fafebcaf9d154343dad25669bfa277f4fbacd7ac6b0c4fed522580e040a0f33910160405180910390a2005b600080fd5b34801561017d57600080fd5b5061018760055481565b6040519081526020015b60405180910390f35b3480156101a657600080fd5b506101876101b53660046109c1565b60076020526000908152604090205481565b3480156101d357600080fd5b506003546101e7906001600160a01b031681565b6040516001600160a01b039091168152602001610191565b34801561020b57600080fd5b5061021f61021a3660046109f1565b610374565b005b34801561022d57600080fd5b5061018760065481565b34801561024357600080fd5b5061021f6102523660046109f1565b61040e565b34801561026357600080fd5b5061021f61062a565b34801561027857600080fd5b5061021f61063e565b34801561028d57600080fd5b5061021f61029c3660046109f1565b610682565b3480156102ad57600080fd5b5061018760045481565b3480156102c357600080fd5b506000546001600160a01b03166101e7565b3480156102e157600080fd5b506002546101e7906001600160a01b031681565b34801561030157600080fd5b506001546001600160a01b03166101e7565b34801561031f57600080fd5b5061021f61032e3660046109c1565b610879565b60006006546004546103459190610a0a565b60055461035291906109ae565b61036483670de0b6b3a7640000610a0a565b61036e9190610a21565b92915050565b61037c6108ea565b804710156103d15760405162461bcd60e51b815260206004820152601d60248201527f496e73756666696369656e7420636f6e74726163742062616c616e636500000060448201526064015b60405180910390fd5b600080546040516001600160a01b039091169183156108fc02918491818181858888f1935050505015801561040a573d6000803e3d6000fd5b5050565b336000908152600760205260409020548111156104645760405162461bcd60e51b8152602060048201526014602482015273496e73756666696369656e742062616c616e636560601b60448201526064016103c8565b600061046f82610917565b9050804710156104c15760405162461bcd60e51b815260206004820181905260248201527f496e73756666696369656e742045544820696e2074686520636f6e747261637460448201526064016103c8565b6002546040516323b872dd60e01b8152336004820152306024820152604481018490526001600160a01b03909116906323b872dd906064016020604051808303816000875af1158015610518573d6000803e3d6000fd5b505050506040513d601f19601f8201168201806040525081019061053c9190610a43565b6105805760405162461bcd60e51b8152602060048201526015602482015274151bdad95b881d1c985b9cd9995c8819985a5b1959605a1b60448201526064016103c8565b604051339082156108fc029083906000818181858888f193505050501580156105ad573d6000803e3d6000fd5b50336000908152600760205260409020546105c9908390610a65565b336000908152600760205260409020556006546105e7908390610a65565b600655604080518381526020810183905233917f2dcf9433d75db0d8b1c172641f85e319ffe4ad22e108a95d1847ceb906e5195d91015b60405180910390a25050565b6106326108ea565b61063c6000610934565b565b60015433906001600160a01b031681146106765760405163118cdaa760e01b81526001600160a01b03821660048201526024016103c8565b61067f81610934565b50565b600061068d82610917565b6002546040516370a0823160e01b815230600482015291925082916001600160a01b03909116906370a0823190602401602060405180830381865afa1580156106da573d6000803e3d6000fd5b505050506040513d601f19601f820116820180604052508101906106fe9190610a78565b101561074c5760405162461bcd60e51b815260206004820152601e60248201527f496e73756666696369656e7420746f6b656e7320696e2072657365727665000060448201526064016103c8565b60025460405163a9059cbb60e01b8152336004820152602481018390526001600160a01b039091169063a9059cbb906044016020604051808303816000875af115801561079d573d6000803e3d6000fd5b505050506040513d601f19601f820116820180604052508101906107c19190610a43565b6108055760405162461bcd60e51b8152602060048201526015602482015274151bdad95b881d1c985b9cd9995c8819985a5b1959605a1b60448201526064016103c8565b336000908152600760205260409020546108209083906109ae565b3360009081526007602052604090205560065461083e9083906109ae565b600655604080518381526020810183905233917f8fafebcaf9d154343dad25669bfa277f4fbacd7ac6b0c4fed522580e040a0f33910161061e565b6108816108ea565b600180546001600160a01b0383166001600160a01b031990911681179091556108b26000546001600160a01b031690565b6001600160a01b03167f38d16b8cac22d99fc7c124b9cd0de2d3fa1faef420bfe791d8c362d765e2270060405160405180910390a350565b6000546001600160a01b0316331461063c5760405163118cdaa760e01b81523360048201526024016103c8565b6000816004546109279190610a0a565b60055461036e91906109ae565b600180546001600160a01b031916905561067f81600080546001600160a01b038381166001600160a01b0319831681178455604051919092169283917f8be0079c531659141344cd1fd0a4f28419497f9722a3daafe3b4186f6b6457e09190a35050565b634e487b7160e01b600052601160045260246000fd5b8082018082111561036e5761036e610998565b6000602082840312156109d357600080fd5b81356001600160a01b03811681146109ea57600080fd5b9392505050565b600060208284031215610a0357600080fd5b5035919050565b808202811582820484141761036e5761036e610998565b600082610a3e57634e487b7160e01b600052601260045260246000fd5b500490565b600060208284031215610a5557600080fd5b815180151581146109ea57600080fd5b8181038181111561036e5761036e610998565b600060208284031215610a8a57600080fd5b505191905056fea2646970667358221220308357d849735de8e11af0fc0721c3f4fb56e763ec779a22cf41155e1acae19564736f6c63430008150033",
    "linkReferences": {}
  },
  "methodIdentifiers": {
    "acceptOwnership()": "79ba5097",
    "initialPrice()": "1d0806ae",
    "owner()": "8da5cb5b",
    "pendingOwner()": "e30c3978",
    "purchaseTokens(uint256)": "7b97008d",
    "renounceOwnership()": "715018a6",
    "sellTokens(uint256)": "6c11bcd3",
    "slope()": "83caf275",
    "token1363()": "9d4c4233",
    "token777()": "29d5f724",
    "tokensSold()": "518ab2a8",
    "transferOwnership(address)": "f2fde38b",
    "userBalances(address)": "26224c64",
    "withdrawEther(uint256)": "3bed33ce"
  },
  "id": 15
}