{
  "abi": [
    {
      "inputs": [
        {
          "internalType": "address",
          "name": "_token",
          "type": "address"
        },
        {
          "internalType": "address",
          "name": "initialOwner",
          "type": "address"
        }
      ],
      "stateMutability": "nonpayable",
      "type": "constructor"
    },
    {
      "inputs": [
        {
          "internalType": "address",
          "name": "owner",
          "type": "address"
        }
      ],
      "name": "OwnableInvalidOwner",
      "type": "error"
    },
    {
      "inputs": [
        {
          "internalType": "address",
          "name": "account",
          "type": "address"
        }
      ],
      "name": "OwnableUnauthorizedAccount",
      "type": "error"
    },
    {
      "anonymous": false,
      "inputs": [
        {
          "indexed": true,
          "internalType": "uint256",
          "name": "escrowId",
          "type": "uint256"
        },
        {
          "indexed": true,
          "internalType": "address",
          "name": "buyer",
          "type": "address"
        },
        {
          "indexed": true,
          "internalType": "address",
          "name": "seller",
          "type": "address"
        },
        {
          "indexed": false,
          "internalType": "uint256",
          "name": "amount",
          "type": "uint256"
        }
      ],
      "name": "EscrowCreated",
      "type": "event"
    },
    {
      "anonymous": false,
      "inputs": [
        {
          "indexed": true,
          "internalType": "address",
          "name": "previousOwner",
          "type": "address"
        },
        {
          "indexed": true,
          "internalType": "address",
          "name": "newOwner",
          "type": "address"
        }
      ],
      "name": "OwnershipTransferStarted",
      "type": "event"
    },
    {
      "anonymous": false,
      "inputs": [
        {
          "indexed": true,
          "internalType": "address",
          "name": "previousOwner",
          "type": "address"
        },
        {
          "indexed": true,
          "internalType": "address",
          "name": "newOwner",
          "type": "address"
        }
      ],
      "name": "OwnershipTransferred",
      "type": "event"
    },
    {
      "anonymous": false,
      "inputs": [
        {
          "indexed": true,
          "internalType": "uint256",
          "name": "escrowId",
          "type": "uint256"
        },
        {
          "indexed": true,
          "internalType": "address",
          "name": "seller",
          "type": "address"
        },
        {
          "indexed": false,
          "internalType": "uint256",
          "name": "amount",
          "type": "uint256"
        }
      ],
      "name": "Withdrawal",
      "type": "event"
    },
    {
      "inputs": [],
      "name": "acceptOwnership",
      "outputs": [],
      "stateMutability": "nonpayable",
      "type": "function"
    },
    {
      "inputs": [
        {
          "internalType": "address",
          "name": "_seller",
          "type": "address"
        },
        {
          "internalType": "uint256",
          "name": "_releaseTime",
          "type": "uint256"
        },
        {
          "internalType": "uint256",
          "name": "_amount",
          "type": "uint256"
        }
      ],
      "name": "createEscrow",
      "outputs": [],
      "stateMutability": "nonpayable",
      "type": "function"
    },
    {
      "inputs": [],
      "name": "escrowCount",
      "outputs": [
        {
          "internalType": "uint256",
          "name": "",
          "type": "uint256"
        }
      ],
      "stateMutability": "view",
      "type": "function"
    },
    {
      "inputs": [
        {
          "internalType": "uint256",
          "name": "",
          "type": "uint256"
        }
      ],
      "name": "escrows",
      "outputs": [
        {
          "internalType": "address",
          "name": "buyer",
          "type": "address"
        },
        {
          "internalType": "address",
          "name": "seller",
          "type": "address"
        },
        {
          "internalType": "uint256",
          "name": "releaseTime",
          "type": "uint256"
        },
        {
          "internalType": "uint256",
          "name": "amount",
          "type": "uint256"
        },
        {
          "internalType": "bool",
          "name": "isActive",
          "type": "bool"
        }
      ],
      "stateMutability": "view",
      "type": "function"
    },
    {
      "inputs": [],
      "name": "owner",
      "outputs": [
        {
          "internalType": "address",
          "name": "",
          "type": "address"
        }
      ],
      "stateMutability": "view",
      "type": "function"
    },
    {
      "inputs": [],
      "name": "pendingOwner",
      "outputs": [
        {
          "internalType": "address",
          "name": "",
          "type": "address"
        }
      ],
      "stateMutability": "view",
      "type": "function"
    },
    {
      "inputs": [
        {
          "internalType": "uint256",
          "name": "_escrowId",
          "type": "uint256"
        }
      ],
      "name": "refundToBuyer",
      "outputs": [],
      "stateMutability": "nonpayable",
      "type": "function"
    },
    {
      "inputs": [],
      "name": "renounceOwnership",
      "outputs": [],
      "stateMutability": "nonpayable",
      "type": "function"
    },
    {
      "inputs": [],
      "name": "token",
      "outputs": [
        {
          "internalType": "contract IERC20",
          "name": "",
          "type": "address"
        }
      ],
      "stateMutability": "view",
      "type": "function"
    },
    {
      "inputs": [
        {
          "internalType": "address",
          "name": "newOwner",
          "type": "address"
        }
      ],
      "name": "transferOwnership",
      "outputs": [],
      "stateMutability": "nonpayable",
      "type": "function"
    },
    {
      "inputs": [
        {
          "internalType": "uint256",
          "name": "_escrowId",
          "type": "uint256"
        }
      ],
      "name": "withdraw",
      "outputs": [],
      "stateMutability": "nonpayable",
      "type": "function"
    }
  ],
  "bytecode": {
    "object": "0x608060405234801561001057600080fd5b50604051610d64380380610d6483398101604081905261002f916100e8565b8061003981610060565b5050600280546001600160a01b0319166001600160a01b039290921691909117905561011b565b600180546001600160a01b03191690556100798161007c565b50565b600080546001600160a01b038381166001600160a01b0319831681178455604051919092169283917f8be0079c531659141344cd1fd0a4f28419497f9722a3daafe3b4186f6b6457e09190a35050565b80516001600160a01b03811681146100e357600080fd5b919050565b600080604083850312156100fb57600080fd5b610104836100cc565b9150610112602084016100cc565b90509250929050565b610c3a8061012a6000396000f3fe608060405234801561001057600080fd5b50600436106100a95760003560e01c80638da5cb5b116100715780638da5cb5b14610171578063b4050fc814610196578063e2ecb311146101a9578063e30c3978146101bc578063f2fde38b146101cd578063fc0c546a146101e057600080fd5b8063012f52ee146100ae5780632e1a7d4d14610135578063675ac67a1461014a578063715018a61461016157806379ba509714610169575b600080fd5b6100fb6100bc366004610a84565b6003602081905260009182526040909120805460018201546002830154938301546004909301546001600160a01b039283169492909116929060ff1685565b604080516001600160a01b0396871681529590941660208601529284019190915260608301521515608082015260a0015b60405180910390f35b610148610143366004610a84565b6101f3565b005b61015360045481565b60405190815260200161012c565b6101486104b4565b6101486104c8565b6000546001600160a01b03165b6040516001600160a01b03909116815260200161012c565b6101486101a4366004610a84565b61050c565b6101486101b7366004610ab9565b610757565b6001546001600160a01b031661017e565b6101486101db366004610aec565b610982565b60025461017e906001600160a01b031681565b6000818152600360205260409020600481015460ff166102515760405162461bcd60e51b8152602060048201526014602482015273457363726f77206973206e6f742061637469766560601b60448201526064015b60405180910390fd5b60018101546001600160a01b031633146102b85760405162461bcd60e51b815260206004820152602260248201527f4f6e6c79207468652073656c6c65722063616e2077697468647261772066756e604482015261647360f01b6064820152608401610248565b60028101546102ca906203f480610b24565b4210156103335760405162461bcd60e51b815260206004820152603160248201527f46756e64732063616e6e6f742062652077697468647261776e206265666f7265604482015270207468652072656c656173652074696d6560781b6064820152608401610248565b6002546040516370a0823160e01b81523060048201526000916001600160a01b0316906370a0823190602401602060405180830381865afa15801561037c573d6000803e3d6000fd5b505050506040513d601f19601f820116820180604052508101906103a09190610b3d565b905081600301548110156103c65760405162461bcd60e51b815260040161024890610b56565b6004828101805460ff19169055600254600384015460405163a9059cbb60e01b8152339381019390935260248301526001600160a01b03169063a9059cbb906044016020604051808303816000875af1158015610427573d6000803e3d6000fd5b505050506040513d601f19601f8201168201806040525081019061044b9190610b9a565b6104675760405162461bcd60e51b815260040161024890610bbc565b336001600160a01b0316837f37e8063b72a944a76de602f32b82fd8c2a1c6f99564c727ffaf913c7762cd42084600301546040516104a791815260200190565b60405180910390a3505050565b6104bc6109f3565b6104c66000610a20565b565b60015433906001600160a01b031681146105005760405163118cdaa760e01b81526001600160a01b0382166004820152602401610248565b61050981610a20565b50565b6105146109f3565b6000818152600360205260409020600481015460ff1661056d5760405162461bcd60e51b8152602060048201526014602482015273457363726f77206973206e6f742061637469766560601b6044820152606401610248565b80600201544210156105da5760405162461bcd60e51b815260206004820152603060248201527f46756e64732063616e6e6f7420626520726566756e646564206265666f72652060448201526f7468652072656c656173652074696d6560801b6064820152608401610248565b6002546040516370a0823160e01b81523060048201526000916001600160a01b0316906370a0823190602401602060405180830381865afa158015610623573d6000803e3d6000fd5b505050506040513d601f19601f820116820180604052508101906106479190610b3d565b9050816003015481101561066d5760405162461bcd60e51b815260040161024890610b56565b6004828101805460ff191690556002548354600385015460405163a9059cbb60e01b81526001600160a01b03928316948101949094526024840152169063a9059cbb906044016020604051808303816000875af11580156106d2573d6000803e3d6000fd5b505050506040513d601f19601f820116820180604052508101906106f69190610b9a565b6107125760405162461bcd60e51b815260040161024890610bbc565b815460038301546040519081526001600160a01b039091169084907f37e8063b72a944a76de602f32b82fd8c2a1c6f99564c727ffaf913c7762cd420906020016104a7565b4282116107b15760405162461bcd60e51b815260206004820152602260248201527f52656c656173652074696d65206d75737420626520696e207468652066757475604482015261726560f01b6064820152608401610248565b600081116108015760405162461bcd60e51b815260206004820152601d60248201527f416d6f756e74206d7573742062652067726561746572207468616e20300000006044820152606401610248565b6002546040516323b872dd60e01b8152336004820152306024820152604481018390526001600160a01b03909116906323b872dd906064016020604051808303816000875af1158015610858573d6000803e3d6000fd5b505050506040513d601f19601f8201168201806040525081019061087c9190610b9a565b6108985760405162461bcd60e51b815260040161024890610bbc565b6040805160a081018252338082526001600160a01b038681166020808501828152858701898152606087018981526001608089018181526004805460009081526003808952908d90209b518c546001600160a01b0319908116918c16919091178d559651938c018054909716939099169290921790945591516002890155519487019490945551948301805460ff19169515159590951790945590549351858152909391927f9405ad0a6208539879349284d71265479b1623846f70303da1f9890d6e8c10a7910160405180910390a46004805490600061097883610beb565b9190505550505050565b61098a6109f3565b600180546001600160a01b0383166001600160a01b031990911681179091556109bb6000546001600160a01b031690565b6001600160a01b03167f38d16b8cac22d99fc7c124b9cd0de2d3fa1faef420bfe791d8c362d765e2270060405160405180910390a350565b6000546001600160a01b031633146104c65760405163118cdaa760e01b8152336004820152602401610248565b600180546001600160a01b031916905561050981600080546001600160a01b038381166001600160a01b0319831681178455604051919092169283917f8be0079c531659141344cd1fd0a4f28419497f9722a3daafe3b4186f6b6457e09190a35050565b600060208284031215610a9657600080fd5b5035919050565b80356001600160a01b0381168114610ab457600080fd5b919050565b600080600060608486031215610ace57600080fd5b610ad784610a9d565b95602085013595506040909401359392505050565b600060208284031215610afe57600080fd5b610b0782610a9d565b9392505050565b634e487b7160e01b600052601160045260246000fd5b80820180821115610b3757610b37610b0e565b92915050565b600060208284031215610b4f57600080fd5b5051919050565b60208082526024908201527f496e73756666696369656e742062616c616e636520696e2074686520636f6e746040820152631c9858dd60e21b606082015260800190565b600060208284031215610bac57600080fd5b81518015158114610b0757600080fd5b602080825260159082015274151bdad95b881d1c985b9cd9995c8819985a5b1959605a1b604082015260600190565b600060018201610bfd57610bfd610b0e565b506001019056fea26469706673582212208b78ef5481bc75d4b1726dc715f874abb1651a9af5da96ababe9cc72421c60e064736f6c63430008150033",
    "linkReferences": {}
  },
  "methodIdentifiers": {
    "acceptOwnership()": "79ba5097",
    "createEscrow(address,uint256,uint256)": "e2ecb311",
    "escrowCount()": "675ac67a",
    "escrows(uint256)": "012f52ee",
    "owner()": "8da5cb5b",
    "pendingOwner()": "e30c3978",
    "refundToBuyer(uint256)": "b4050fc8",
    "renounceOwnership()": "715018a6",
    "token()": "fc0c546a",
    "transferOwnership(address)": "f2fde38b",
    "withdraw(uint256)": "2e1a7d4d"
  },
  "id": 17
}