{
  "abi": [
    {
      "inputs": [
        {
          "internalType": "string",
          "name": "_name",
          "type": "string"
        },
        {
          "internalType": "string",
          "name": "_symbol",
          "type": "string"
        },
        {
          "internalType": "uint256",
          "name": "_initialSupply",
          "type": "uint256"
        }
      ],
      "stateMutability": "nonpayable",
      "type": "constructor"
    },
    {
      "inputs": [
        {
          "internalType": "address",
          "name": "spender",
          "type": "address"
        },
        {
          "internalType": "uint256",
          "name": "currentAllowance",
          "type": "uint256"
        },
        {
          "internalType": "uint256",
          "name": "requestedDecrease",
          "type": "uint256"
        }
      ],
      "name": "ERC20FailedDecreaseAllowance",
      "type": "error"
    },
    {
      "inputs": [
        {
          "internalType": "address",
          "name": "spender",
          "type": "address"
        },
        {
          "internalType": "uint256",
          "name": "allowance",
          "type": "uint256"
        },
        {
          "internalType": "uint256",
          "name": "needed",
          "type": "uint256"
        }
      ],
      "name": "ERC20InsufficientAllowance",
      "type": "error"
    },
    {
      "inputs": [
        {
          "internalType": "address",
          "name": "sender",
          "type": "address"
        },
        {
          "internalType": "uint256",
          "name": "balance",
          "type": "uint256"
        },
        {
          "internalType": "uint256",
          "name": "needed",
          "type": "uint256"
        }
      ],
      "name": "ERC20InsufficientBalance",
      "type": "error"
    },
    {
      "inputs": [
        {
          "internalType": "address",
          "name": "approver",
          "type": "address"
        }
      ],
      "name": "ERC20InvalidApprover",
      "type": "error"
    },
    {
      "inputs": [
        {
          "internalType": "address",
          "name": "receiver",
          "type": "address"
        }
      ],
      "name": "ERC20InvalidReceiver",
      "type": "error"
    },
    {
      "inputs": [
        {
          "internalType": "address",
          "name": "sender",
          "type": "address"
        }
      ],
      "name": "ERC20InvalidSender",
      "type": "error"
    },
    {
      "inputs": [
        {
          "internalType": "address",
          "name": "spender",
          "type": "address"
        }
      ],
      "name": "ERC20InvalidSpender",
      "type": "error"
    },
    {
      "anonymous": false,
      "inputs": [
        {
          "indexed": true,
          "internalType": "address",
          "name": "user",
          "type": "address"
        }
      ],
      "name": "AddressBanned",
      "type": "event"
    },
    {
      "anonymous": false,
      "inputs": [
        {
          "indexed": true,
          "internalType": "address",
          "name": "user",
          "type": "address"
        }
      ],
      "name": "AddressUnbanned",
      "type": "event"
    },
    {
      "anonymous": false,
      "inputs": [
        {
          "indexed": true,
          "internalType": "address",
          "name": "owner",
          "type": "address"
        },
        {
          "indexed": true,
          "internalType": "address",
          "name": "spender",
          "type": "address"
        },
        {
          "indexed": false,
          "internalType": "uint256",
          "name": "value",
          "type": "uint256"
        }
      ],
      "name": "Approval",
      "type": "event"
    },
    {
      "anonymous": false,
      "inputs": [
        {
          "indexed": true,
          "internalType": "address",
          "name": "from",
          "type": "address"
        },
        {
          "indexed": true,
          "internalType": "address",
          "name": "to",
          "type": "address"
        },
        {
          "indexed": false,
          "internalType": "uint256",
          "name": "value",
          "type": "uint256"
        }
      ],
      "name": "Transfer",
      "type": "event"
    },
    {
      "inputs": [],
      "name": "admin",
      "outputs": [
        {
          "internalType": "address",
          "name": "",
          "type": "address"
        }
      ],
      "stateMutability": "view",
      "type": "function"
    },
    {
      "inputs": [
        {
          "internalType": "address",
          "name": "owner",
          "type": "address"
        },
        {
          "internalType": "address",
          "name": "spender",
          "type": "address"
        }
      ],
      "name": "allowance",
      "outputs": [
        {
          "internalType": "uint256",
          "name": "",
          "type": "uint256"
        }
      ],
      "stateMutability": "view",
      "type": "function"
    },
    {
      "inputs": [
        {
          "internalType": "address",
          "name": "spender",
          "type": "address"
        },
        {
          "internalType": "uint256",
          "name": "value",
          "type": "uint256"
        }
      ],
      "name": "approve",
      "outputs": [
        {
          "internalType": "bool",
          "name": "",
          "type": "bool"
        }
      ],
      "stateMutability": "nonpayable",
      "type": "function"
    },
    {
      "inputs": [
        {
          "internalType": "address",
          "name": "account",
          "type": "address"
        }
      ],
      "name": "balanceOf",
      "outputs": [
        {
          "internalType": "uint256",
          "name": "",
          "type": "uint256"
        }
      ],
      "stateMutability": "view",
      "type": "function"
    },
    {
      "inputs": [
        {
          "internalType": "address",
          "name": "_user",
          "type": "address"
        }
      ],
      "name": "banAddress",
      "outputs": [],
      "stateMutability": "nonpayable",
      "type": "function"
    },
    {
      "inputs": [
        {
          "internalType": "address",
          "name": "",
          "type": "address"
        }
      ],
      "name": "bannedAdresses",
      "outputs": [
        {
          "internalType": "bool",
          "name": "",
          "type": "bool"
        }
      ],
      "stateMutability": "view",
      "type": "function"
    },
    {
      "inputs": [
        {
          "internalType": "address",
          "name": "_newAdmin",
          "type": "address"
        }
      ],
      "name": "changeAdmin",
      "outputs": [],
      "stateMutability": "nonpayable",
      "type": "function"
    },
    {
      "inputs": [],
      "name": "decimals",
      "outputs": [
        {
          "internalType": "uint8",
          "name": "",
          "type": "uint8"
        }
      ],
      "stateMutability": "view",
      "type": "function"
    },
    {
      "inputs": [
        {
          "internalType": "address",
          "name": "spender",
          "type": "address"
        },
        {
          "internalType": "uint256",
          "name": "requestedDecrease",
          "type": "uint256"
        }
      ],
      "name": "decreaseAllowance",
      "outputs": [
        {
          "internalType": "bool",
          "name": "",
          "type": "bool"
        }
      ],
      "stateMutability": "nonpayable",
      "type": "function"
    },
    {
      "inputs": [
        {
          "internalType": "address",
          "name": "spender",
          "type": "address"
        },
        {
          "internalType": "uint256",
          "name": "addedValue",
          "type": "uint256"
        }
      ],
      "name": "increaseAllowance",
      "outputs": [
        {
          "internalType": "bool",
          "name": "",
          "type": "bool"
        }
      ],
      "stateMutability": "nonpayable",
      "type": "function"
    },
    {
      "inputs": [],
      "name": "name",
      "outputs": [
        {
          "internalType": "string",
          "name": "",
          "type": "string"
        }
      ],
      "stateMutability": "view",
      "type": "function"
    },
    {
      "inputs": [],
      "name": "symbol",
      "outputs": [
        {
          "internalType": "string",
          "name": "",
          "type": "string"
        }
      ],
      "stateMutability": "view",
      "type": "function"
    },
    {
      "inputs": [],
      "name": "totalSupply",
      "outputs": [
        {
          "internalType": "uint256",
          "name": "",
          "type": "uint256"
        }
      ],
      "stateMutability": "view",
      "type": "function"
    },
    {
      "inputs": [
        {
          "internalType": "address",
          "name": "to",
          "type": "address"
        },
        {
          "internalType": "uint256",
          "name": "value",
          "type": "uint256"
        }
      ],
      "name": "transfer",
      "outputs": [
        {
          "internalType": "bool",
          "name": "",
          "type": "bool"
        }
      ],
      "stateMutability": "nonpayable",
      "type": "function"
    },
    {
      "inputs": [
        {
          "internalType": "address",
          "name": "from",
          "type": "address"
        },
        {
          "internalType": "address",
          "name": "to",
          "type": "address"
        },
        {
          "internalType": "uint256",
          "name": "value",
          "type": "uint256"
        }
      ],
      "name": "transferFrom",
      "outputs": [
        {
          "internalType": "bool",
          "name": "",
          "type": "bool"
        }
      ],
      "stateMutability": "nonpayable",
      "type": "function"
    },
    {
      "inputs": [
        {
          "internalType": "address",
          "name": "_user",
          "type": "address"
        }
      ],
      "name": "unBannedAddress",
      "outputs": [],
      "stateMutability": "nonpayable",
      "type": "function"
    }
  ],
  "bytecode": {
    "object": "0x60806040523480156200001157600080fd5b506040516200129f3803806200129f8339810160408190526200003491620002e7565b82826003620000448382620003e9565b506004620000538282620003e9565b5050506200008d336200006b620000a860201b60201c565b6200007b9060ff16600a620005ca565b620000879084620005df565b620000ad565b5050600580546001600160a01b03191633179055506200060f565b601290565b6001600160a01b038216620000dd5760405163ec442f0560e01b8152600060048201526024015b60405180910390fd5b620000eb60008383620000ef565b5050565b6001600160a01b0383166200011e578060026000828254620001129190620005f9565b90915550620001929050565b6001600160a01b03831660009081526020819052604090205481811015620001735760405163391434e360e21b81526001600160a01b03851660048201526024810182905260448101839052606401620000d4565b6001600160a01b03841660009081526020819052604090209082900390555b6001600160a01b038216620001b057600280548290039055620001cf565b6001600160a01b03821660009081526020819052604090208054820190555b816001600160a01b0316836001600160a01b03167fddf252ad1be2c89b69c2b068fc378daa952ba7f163c4a11628f55a4df523b3ef836040516200021591815260200190565b60405180910390a3505050565b634e487b7160e01b600052604160045260246000fd5b600082601f8301126200024a57600080fd5b81516001600160401b038082111562000267576200026762000222565b604051601f8301601f19908116603f0116810190828211818310171562000292576200029262000222565b81604052838152602092508683858801011115620002af57600080fd5b600091505b83821015620002d35785820183015181830184015290820190620002b4565b600093810190920192909252949350505050565b600080600060608486031215620002fd57600080fd5b83516001600160401b03808211156200031557600080fd5b620003238783880162000238565b945060208601519150808211156200033a57600080fd5b50620003498682870162000238565b925050604084015190509250925092565b600181811c908216806200036f57607f821691505b6020821081036200039057634e487b7160e01b600052602260045260246000fd5b50919050565b601f821115620003e457600081815260208120601f850160051c81016020861015620003bf5750805b601f850160051c820191505b81811015620003e057828155600101620003cb565b5050505b505050565b81516001600160401b0381111562000405576200040562000222565b6200041d816200041684546200035a565b8462000396565b602080601f8311600181146200045557600084156200043c5750858301515b600019600386901b1c1916600185901b178555620003e0565b600085815260208120601f198616915b82811015620004865788860151825594840194600190910190840162000465565b5085821015620004a55787850151600019600388901b60f8161c191681555b5050505050600190811b01905550565b634e487b7160e01b600052601160045260246000fd5b600181815b808511156200050c578160001904821115620004f057620004f0620004b5565b80851615620004fe57918102915b93841c9390800290620004d0565b509250929050565b6000826200052557506001620005c4565b816200053457506000620005c4565b81600181146200054d5760028114620005585762000578565b6001915050620005c4565b60ff8411156200056c576200056c620004b5565b50506001821b620005c4565b5060208310610133831016604e8410600b84101617156200059d575081810a620005c4565b620005a98383620004cb565b8060001904821115620005c057620005c0620004b5565b0290505b92915050565b6000620005d8838362000514565b9392505050565b8082028115828204841417620005c457620005c4620004b5565b80820180821115620005c457620005c4620004b5565b610c80806200061f6000396000f3fe608060405234801561001057600080fd5b50600436106101005760003560e01c80637f49f70911610097578063a457c2d711610066578063a457c2d71461021c578063a9059cbb1461022f578063dd62ed3e14610242578063f851a4401461025557600080fd5b80637f49f709146101d95780638f283970146101ee57806395d89b4114610201578063a13ef0f21461020957600080fd5b8063313ce567116100d3578063313ce5671461016b578063395093511461017a5780635734edb71461018d57806370a08231146101b057600080fd5b806306fdde0314610105578063095ea7b31461012357806318160ddd1461014657806323b872dd14610158575b600080fd5b61010d610280565b60405161011a9190610a8f565b60405180910390f35b610136610131366004610af9565b610312565b604051901515815260200161011a565b6002545b60405190815260200161011a565b610136610166366004610b23565b61032c565b6040516012815260200161011a565b610136610188366004610af9565b6103ff565b61013661019b366004610b5f565b60066020526000908152604090205460ff1681565b61014a6101be366004610b5f565b6001600160a01b031660009081526020819052604090205490565b6101ec6101e7366004610b5f565b610421565b005b6101ec6101fc366004610b5f565b610505565b61010d61055a565b6101ec610217366004610b5f565b610569565b61013661022a366004610af9565b61064c565b61013661023d366004610af9565b6106ae565b61014a610250366004610b7a565b610771565b600554610268906001600160a01b031681565b6040516001600160a01b03909116815260200161011a565b60606003805461028f90610bad565b80601f01602080910402602001604051908101604052809291908181526020018280546102bb90610bad565b80156103085780601f106102dd57610100808354040283529160200191610308565b820191906000526020600020905b8154815290600101906020018083116102eb57829003601f168201915b5050505050905090565b60003361032081858561079c565b60019150505b92915050565b6001600160a01b03831660009081526006602052604081205460ff161561038d5760405162461bcd60e51b815260206004820152601060248201526f14d95b99195c881a5cc818985b9b995960821b60448201526064015b60405180910390fd5b6001600160a01b03831660009081526006602052604090205460ff16156103ec5760405162461bcd60e51b8152602060048201526013602482015272149958da5c1a595b9d081a5cc818985b9b9959606a1b6044820152606401610384565b6103f78484846107ae565b949350505050565b6000336103208185856104128383610771565b61041c9190610be7565b61079c565b6005546001600160a01b0316336001600160a01b0316146104545760405162461bcd60e51b815260040161038490610c08565b6001600160a01b03811660009081526006602052604090205460ff16156104b95760405162461bcd60e51b81526020600482015260196024820152781059191c995cdcc81a5cc8185b1c9958591e4818985b9b9959603a1b6044820152606401610384565b6001600160a01b038116600081815260066020526040808220805460ff19166001179055517f4e1f1083e536396ee005a5640fc3beb4d082ac0ec24882c6b8b35121beb61c5c9190a250565b6005546001600160a01b0316336001600160a01b0316146105385760405162461bcd60e51b815260040161038490610c08565b600580546001600160a01b0319166001600160a01b0392909216919091179055565b60606004805461028f90610bad565b6005546001600160a01b0316336001600160a01b03161461059c5760405162461bcd60e51b815260040161038490610c08565b6001600160a01b03811660009081526006602052604090205460ff166106005760405162461bcd60e51b81526020600482015260196024820152781059191c995cdcc81a5cc8185b1c9958591e4818985b9b9959603a1b6044820152606401610384565b6001600160a01b038116600081815260066020526040808220805460ff19166001179055517faf21b055f404aae56187594ef6bc522fbab24d4a05adc05c41c16a844b73b0249190a250565b6000338161065a8286610771565b90508381101561069657604051632983c0c360e21b81526001600160a01b03861660048201526024810182905260448101859052606401610384565b6106a3828686840361079c565b506001949350505050565b3360009081526006602052604081205460ff16156107015760405162461bcd60e51b815260206004820152601060248201526f14d95b99195c881a5cc818985b9b995960821b6044820152606401610384565b6001600160a01b03831660009081526006602052604090205460ff16156107605760405162461bcd60e51b8152602060048201526013602482015272149958da5c1a595b9d081a5cc818985b9b9959606a1b6044820152606401610384565b61076a83836107c7565b9392505050565b6001600160a01b03918216600090815260016020908152604080832093909416825291909152205490565b6107a983838360016107d5565b505050565b6000336107bc8582856108ab565b6106a385858561090b565b60003361032081858561090b565b6001600160a01b0384166107ff5760405163e602df0560e01b815260006004820152602401610384565b6001600160a01b03831661082957604051634a1406b160e11b815260006004820152602401610384565b6001600160a01b03808516600090815260016020908152604080832093871683529290522082905580156108a557826001600160a01b0316846001600160a01b03167f8c5be1e5ebec7d5bd14f71427d1e84f3dd0314c0f7b2291e5b200ac8c7c3b9258460405161089c91815260200190565b60405180910390a35b50505050565b60006108b78484610771565b905060001981146108a557818110156108fc57604051637dc7a0d960e11b81526001600160a01b03841660048201526024810182905260448101839052606401610384565b6108a5848484840360006107d5565b6001600160a01b03831661093557604051634b637e8f60e11b815260006004820152602401610384565b6001600160a01b03821661095f5760405163ec442f0560e01b815260006004820152602401610384565b6107a98383836001600160a01b0383166109905780600260008282546109859190610be7565b90915550610a029050565b6001600160a01b038316600090815260208190526040902054818110156109e35760405163391434e360e21b81526001600160a01b03851660048201526024810182905260448101839052606401610384565b6001600160a01b03841660009081526020819052604090209082900390555b6001600160a01b038216610a1e57600280548290039055610a3d565b6001600160a01b03821660009081526020819052604090208054820190555b816001600160a01b0316836001600160a01b03167fddf252ad1be2c89b69c2b068fc378daa952ba7f163c4a11628f55a4df523b3ef83604051610a8291815260200190565b60405180910390a3505050565b600060208083528351808285015260005b81811015610abc57858101830151858201604001528201610aa0565b506000604082860101526040601f19601f8301168501019250505092915050565b80356001600160a01b0381168114610af457600080fd5b919050565b60008060408385031215610b0c57600080fd5b610b1583610add565b946020939093013593505050565b600080600060608486031215610b3857600080fd5b610b4184610add565b9250610b4f60208501610add565b9150604084013590509250925092565b600060208284031215610b7157600080fd5b61076a82610add565b60008060408385031215610b8d57600080fd5b610b9683610add565b9150610ba460208401610add565b90509250929050565b600181811c90821680610bc157607f821691505b602082108103610be157634e487b7160e01b600052602260045260246000fd5b50919050565b8082018082111561032657634e487b7160e01b600052601160045260246000fd5b60208082526022908201527f4f6e6c792061646d696e2063616e20706572666f726d2074686973206163746960408201526137b760f11b60608201526080019056fea2646970667358221220e5e60f01f0375a8c39029786540cc52c6b152fac2c8708cc18278ece6fd1219e64736f6c63430008150033",
    "linkReferences": {}
  },
  "methodIdentifiers": {
    "admin()": "f851a440",
    "allowance(address,address)": "dd62ed3e",
    "approve(address,uint256)": "095ea7b3",
    "balanceOf(address)": "70a08231",
    "banAddress(address)": "7f49f709",
    "bannedAdresses(address)": "5734edb7",
    "changeAdmin(address)": "8f283970",
    "decimals()": "313ce567",
    "decreaseAllowance(address,uint256)": "a457c2d7",
    "increaseAllowance(address,uint256)": "39509351",
    "name()": "06fdde03",
    "symbol()": "95d89b41",
    "totalSupply()": "18160ddd",
    "transfer(address,uint256)": "a9059cbb",
    "transferFrom(address,address,uint256)": "23b872dd",
    "unBannedAddress(address)": "a13ef0f2"
  },
  "id": 6
}